:020000040800F2
:1000000000000220AD1C0008ED1A0008EF1A0008DD
:10001000F11A0008F31A0008F51A000800000000A1
:10002000000000000000000000000000F71A0008B7
:10003000F91A000800000000FB1A0008FD1A000869
:10004000FD1C0008FD1C0008FD1C0008FD1C00082C
:10005000FD1C0008FD1C0008FD1C0008FD1C00081C
:10006000FD1C0008FD1C0008FD1C0008FD1C00080C
:10007000FD1C0008FD1C0008FD1C0008FD1C0008FC
:10008000FD1C0008FD1C0008FD1C0008FD1C0008EC
:10009000FD1C0008FD1C0008FD1C0008FD1C0008DC
:1000A000FD1C0008FD1C0008FD1C0008FD1C0008CC
:1000B000FD1C0008FD1C0008FD1C0008FD1C0008BC
:1000C000FD1C0008FD1C0008FD1C0008FD1C0008AC
:1000D000FD1C0008FD1C0008051B0008FD1C000895
:1000E000FD1C0008FD1C0008FD1C0008FD1C00088C
:1000F000FD1C0008FD1C0008FD1C0008FD1C00087C
:10010000FD1C0008FD1C0008FD1C0008FD1C00086B
:10011000FD1C0008FD1C0008FD1C0008FD1C00085B
:10012000FD1C0008FD1C0008FD1C0008FD1C00084B
:10013000FD1C00080000000000000000FD1C00087D
:10014000FD1C0008FD1C0008FD1C0008FD1C00082B
:10015000FD1C0008FD1C0008FD1C0008FD1C00081B
:10016000FD1C0008FD1C0008FD1C0008FD1C00080B
:10017000FD1C0008FD1C000800000000000000003D
:08018000FD1C0008FD1C000835
:1001C00010B5054C237833B9044B13B10448AFF391
:1001D00000800123237010BDBC0900200000000036
:1001E000B4C2000808B5034B1BB103490348AFF381
:1001F000008008BD00000000C0090020B4C2000853
:1002000081F0004102E000BF83F0004330B54FEAC7
:1002100041044FEA430594EA050F08BF90EA020F34
:100220001FBF54EA000C55EA020C7FEA645C7FEAC7
:10023000655C00F0E2804FEA5454D4EB5555B8BFEA
:100240006D420CDD2C4480EA020281EA030382EA5B
:10025000000083EA010180EA020281EA0303362DED
:1002600088BF30BD11F0004F4FEA01314FF4801CC0
:100270004CEA113102D0404261EB410113F0004FD2
:100280004FEA03334CEA133302D0524263EB430389
:1002900094EA050F00F0A780A4F10104D5F1200E27
:1002A0000DDB02FA0EFC22FA05F2801841F1000182
:1002B00003FA0EF2801843FA05F359410EE0A5F156
:1002C00020050EF1200E012A03FA0EFC28BF4CF087
:1002D000020C43FA05F3C01851EBE37101F000453D
:1002E00007D54FF0000EDCF1000C7EEB00006EEB4A
:1002F0000101B1F5801F1BD3B1F5001F0CD34908D4
:100300005FEA30004FEA3C0C04F101044FEA44522A
:1003100012F5800F80F09A80BCF1004F08BF5FEAB1
:10032000500C50F1000041EB045141EA050130BD91
:100330005FEA4C0C404141EB0101013C28BFB1F5A3
:10034000801FE9D291F0000F04BF01460020B1FAEE
:1003500081F308BF2033A3F10B03B3F120020CDAC1
:100360000C3208DD02F1140CC2F10C0201FA0CF09F
:1003700021FA02F10CE002F11402D8BFC2F1200C04
:1003800001FA02F120FA0CFCDCBF41EA0C019040BA
:10039000E41AA2BF01EB0451294330BD6FEA040403
:1003A0001F3C1CDA0C340EDC04F11404C4F12002EE
:1003B00020FA04F001FA02F340EA030021FA04F300
:1003C00045EA030130BDC4F10C04C4F1200220FA57
:1003D00002F001FA04F340EA0300294630BD21FA95
:1003E00004F0294630BD94F0000F83F4801306BF5B
:1003F00081F480110134013D4EE77FEA645C18BF4F
:100400007FEA655C29D094EA050F08BF90EA020FE5
:1004100005D054EA000C04BF1946104630BD91EADD
:10042000030F1EBF0021002030BD5FEA545C05D1E0
:100430004000494128BF41F0004130BD14F580041F
:100440003CBF01F5801130BD01F0004545F0FE4193
:1004500041F470014FF0000030BD7FEA645C1ABFC8
:10046000194610467FEA655C1CBF0B46024650EAFF
:10047000013406BF52EA033591EA030F41F400212B
:1004800030BD00BF90F0000F04BF0021704730B5B1
:100490004FF4806404F132044FF000054FF0000186
:1004A00050E700BF90F0000F04BF0021704730B547
:1004B0004FF4806404F1320410F0004548BF40421C
:1004C0004FF000013EE700BF42004FEAE2014FEA71
:1004D00031014FEA02701FBF12F07F4393F07F4F4C
:1004E00081F06051704732F07F4208BF704793F04F
:1004F0007F4F04BF41F40021704730B54FF4607462
:1005000001F0004521F000411CE700BF50EA010264
:1005100008BF704730B54FF000050AE050EA01020D
:1005200008BF704730B511F0004502D5404261EB7D
:1005300041014FF4806404F132045FEA915C3FF4BE
:10054000D8AE4FF003025FEADC0C18BF03325FEA5B
:10055000DC0C18BF033202EBDC02C2F1200300FA0C
:1005600003FC20FA02F001FA03FE40EA0E0021FA31
:1005700002F11444BDE600BF4FF0FF3C06E000BFAF
:100580004FF0010C02E000BF4FF0010C4DF804CD1C
:100590004FEA410C7FEA6C5C4FEA430C18BF7FEADC
:1005A0006C5C1BD001B050EA410C0CBF52EA430C0A
:1005B00091EA030F02BF90EA020F0020704710F18A
:1005C000000F91EA030F58BF994208BF90422CBF19
:1005D000D8176FEAE37040F0010070474FEA410C12
:1005E0007FEA6C5C02D150EA013C07D14FEA430C30
:1005F0007FEA6C5CD6D152EA033CD3D05DF8040BA1
:10060000704700BF8446104662468C4619466346D2
:1006100000E000BF01B5FFF7B7FF002848BF10F1A9
:10062000000F01BD4DF808EDFFF7F4FF0CBF0120EE
:1006300000205DF808FB00BF4DF808EDFFF7EAFF6A
:1006400034BF012000205DF808FB00BF4DF808ED25
:10065000FFF7E0FF94BF012000205DF808FB00BF1A
:100660004DF808EDFFF7CEFF94BF012000205DF8A4
:1006700008FB00BF4DF808EDFFF7C4FF34BF0120B1
:1006800000205DF808FB00BF4FEA4102B2F1E043F1
:1006900024BFB3F5001CDCF1FE5C0DD901F0004C69
:1006A0004FEAC0024CEA5070B2F1004F40EB8300B9
:1006B00008BF20F00100704711F0804F21D113F1E5
:1006C0003872BCBF01F00040704741F480114FEA1E
:1006D0005252C2F11802C2F1200C10FA0CF320FAA7
:1006E00002F018BF40F001004FEAC1234FEAD323C4
:1006F00003FA0CFC40EA0C0023FA02F34FEA43032E
:10070000CCE77FEA625307D150EA01331EBF4FF0B6
:10071000FE4040F44000704701F0004040F0FE40D1
:1007200040F40000704700BF80F0004002E000BFCE
:1007300081F0004142001FBF5FEA410392EA030FCC
:100740007FEA226C7FEA236C6AD04FEA1262D2EB16
:100750001363C1BFD218414048404140B8BF5B421B
:10076000192B88BF704710F0004F40F4000020F0B4
:100770007F4018BF404211F0004F41F4000121F0CA
:100780007F4118BF494292EA030F3FD0A2F1010214
:1007900041FA03FC10EB0C00C3F1200301FA03F152
:1007A00000F0004302D5494260EB4000B0F5000F75
:1007B00013D3B0F1807F06D340084FEA310102F134
:1007C0000102FE2A51D2B1F1004F40EBC25008BFE6
:1007D00020F0010040EA03007047490040EB0000B0
:1007E000013A28BFB0F5000FEDD2B0FA80FCACF1B1
:1007F000080CB2EB0C0200FA0CF0AABF00EBC250DE
:1008000052421843BCBFD0401843704792F0000FCB
:1008100081F4000106BF80F400000132013BB5E71E
:100820004FEA41037FEA226C18BF7FEA236C21D094
:1008300092EA030F04D092F0000F08BF08467047F9
:1008400090EA010F1CBF0020704712F07F4F04D1C7
:10085000400028BF40F00040704712F100723CBFDA
:1008600000F50000704700F0004343F0FE4040F404
:10087000000070477FEA226216BF08467FEA2363C2
:100880000146420206BF5FEA412390EA010F40F4AD
:10089000800070474FF0000304E000BF10F00043F9
:1008A00048BF40425FEA000C08BF704743F09643E0
:1008B00001464FF000001CE050EA010208BF7047FB
:1008C0004FF000030AE000BF50EA010208BF704782
:1008D00011F0004302D5404261EB41015FEA010C97
:1008E00002BF84460146002043F0B64308BFA3F18F
:1008F0008053A3F50003BCFA8CF2083AA3EBC25371
:1009000010DB01FA02FC634400FA02FCC2F120028F
:10091000BCF1004F20FA02F243EB020008BF20F0C6
:100920000100704702F1200201FA02FCC2F120022C
:1009300050EA4C0021FA02F243EB020008BF20EA21
:10094000DC7070474FF0FF0C1CEAD0521EBF1CEA4F
:10095000D15392EA0C0F93EA0C0F6FD01A4480EA3D
:10096000010C400218BF5FEA41211ED04FF0006326
:1009700043EA501043EA5111A0FB01310CF0004052
:10098000B1F5000F3EBF490041EAD3715B0040EA78
:10099000010062F17F02FD2A1DD8B3F1004F40EB48
:1009A000C25008BF20F00100704790F0000F0CF01B
:1009B000004C08BF49024CEA502040EA51207F3ADF
:1009C000C2BFD2F1FF0340EAC250704740F40000BA
:1009D0004FF00003013A5DDC12F1190FDCBF00F0AB
:1009E00000407047C2F10002410021FA02F1C2F159
:1009F000200200FA02FC5FEA310040F1000053EAF5
:100A00004C0308BF20EADC70704792F0000F00F042
:100A1000004C02BF400010F4000F013AF9D040EA48
:100A20000C0093F0000F01F0004C02BF490011F4DC
:100A3000000F013BF9D041EA0C018FE70CEAD153DA
:100A400092EA0C0F18BF93EA0C0F0AD030F0004C5A
:100A500018BF31F0004CD8D180EA010000F000400E
:100A6000704790F0000F17BF90F0004F084691F0CC
:100A7000000F91F0004F14D092EA0C0F01D1420206
:100A80000FD193EA0C0F03D14B0218BF084608D1CF
:100A900080EA010000F0004040F0FE4040F4000019
:100AA000704740F0FE4040F4400070474FF0FF0CAC
:100AB0001CEAD0521EBF1CEAD15392EA0C0F93EAF3
:100AC0000C0F69D0A2EB030280EA010C49024FEA45
:100AD000402037D04FF0805343EA111143EA1013FE
:100AE0000CF000408B4238BF5B0042F17D024FF4B6
:100AF000000C8B4224BF5B1A40EA0C00B3EB510F91
:100B000024BFA3EB510340EA5C00B3EB910F24BF79
:100B1000A3EB910340EA9C00B3EBD10F24BFA3EBFE
:100B2000D10340EADC001B0118BF5FEA1C1CE0D1C6
:100B3000FD2A3FF650AF8B4240EBC25008BF20F079
:100B4000010070470CF0004C4CEA50207F32C2BFCD
:100B5000D2F1FF0340EAC250704740F400004FF06A
:100B60000003013A37E792F0000F00F0004C02BF9B
:100B7000400010F4000F013AF9D040EA0C0093F065
:100B8000000F01F0004C02BF490011F4000F013BBF
:100B9000F9D041EA0C0195E70CEAD15392EA0C0F27
:100BA00008D142027FF47DAF93EA0C0F7FF470AF5F
:100BB000084676E793EA0C0F04D14B023FF44CAFA2
:100BC00008466EE730F0004C18BF31F0004CCAD137
:100BD00030F000427FF45CAF31F000437FF43CAF73
:100BE0005FE700BF4FF0FF3C06E000BF4FF0010C95
:100BF00002E000BF4FF0010C4DF804CD4FEA400277
:100C00004FEA41037FEA226C18BF7FEA236C11D0C0
:100C100001B052EA530C18BF90EA010F58BFB2EB73
:100C2000030088BFC81738BF6FEAE17018BF40F0F3
:100C3000010070477FEA226C02D15FEA402C05D1A7
:100C40007FEA236CE4D15FEA412CE1D05DF8040B2C
:100C5000704700BF844608466146FFE70FB5FFF7BF
:100C6000C9FF002848BF10F1000F0FBD4DF808ED77
:100C7000FFF7F4FF0CBF012000205DF808FB00BF68
:100C80004DF808EDFFF7EAFF34BF012000205DF8C2
:100C900008FB00BF4DF808EDFFF7E0FF94BF01200F
:100CA00000205DF808FB00BF4DF808EDFFF7D2FF0C
:100CB00094BF012000205DF808FB00BF4DF808ED4F
:100CC000FFF7C8FF34BF012000205DF808FB00BF1C
:100CD0004FEA4002B2F1FE4F0FD34FF09E03B3EB49
:100CE00012620DD94FEA002343F0004310F0004F89
:100CF00023FA02F018BF404270474FF000007047DF
:100D000012F1610F01D1420205D110F0004008BF7D
:100D10006FF0004070474FF00000704742000ED265
:100D2000B2F1FE4F0BD34FF09E03B3EB126209D426
:100D30004FEA002343F0004323FA02F070474FF0DC
:100D40000000704712F1610F01D1420202D14FF051
:100D5000FF3070474FF00000704700BF53B94AB9E9
:100D6000002908BF00281CBF4FF0FF314FF0FF30B3
:100D700000F074B9ADF1080C6DE904CE00F006F88E
:100D8000DDF804E0DDE9022304B070472DE9F04707
:100D9000089E0D4604468846002B4DD18A42944653
:100DA00068D9B2FA82F252B101FA02F3C2F120011B
:100DB00020FA01F10CFA02FC41EA030894404FEAE0
:100DC0001C45210CB8FBF5FE1FFA8CF705FB1E83B2
:100DD00041EA03430EFB07F199420BD91CEB0303D5
:100DE0000EF1FF3080F01E81994240F21B81AEF17E
:100DF000020E63445B1AA4B2B3FBF5F005FB10339B
:100E000044EA034400FB07F7A7420AD91CEB040499
:100E100000F1FF3380F00881A74240F2058164446D
:100E20000238E41B40EA0E4000211EB1D4400023EA
:100E3000C6E90043BDE8F0878B4208D9002E00F0D8
:100E4000EE800021C6E900050846BDE8F087B3FA48
:100E500083F100294AD1AB4202D3824200F2F980E9
:100E6000841A65EB030301209846002EE2D0C6E900
:100E70000048DFE702B9FFDEB2FA82F2002A40F052
:100E80009180A1EB0C054FEA1C471FFA8CFE012153
:100E9000B5FBF7F307FB1350250C45EA00450EFBA5
:100EA00003F0A84208D91CEB050503F1FF3802D274
:100EB000A84200F2CB8043462D1AA4B2B5FBF7F04E
:100EC00007FB105544EA05440EFB00FEA64508D971
:100ED0001CEB040400F1FF3502D2A64500F2BB80F2
:100EE0002846A4EB0E0440EA03409EE7C1F1200728
:100EF0008B4022FA07FC4CEA030C20FA07F405FAAF
:100F000001F31C43FD404FEA1C4900FA01F3B5FB15
:100F1000F9F8200C1FFA8CFE09FB185540EA05452C
:100F200008FB0EF0A84202FA01F20BD91CEB0505F2
:100F300008F1FF3A80F08880A84240F28580A8F14D
:100F4000020865442D1AA4B2B5FBF9F009FB10554F
:100F500044EA054500FB0EFEAE4508D91CEB05052D
:100F600000F1FF346CD2AE456AD90238654440EADC
:100F70000840A0FB0294A5EB0E05A542C846A64674
:100F800056D353D05EB1B3EB080265EB0E0505FAFC
:100F900007F722FA01F3CD401F43C6E9007500218F
:100FA000BDE8F087C2F1200320FA03F10CFA02FC3D
:100FB00025FA03F395400D434FEA1C471FFA8CFEB8
:100FC000B3FBF7F107FB11302B0C43EA004301FBA5
:100FD0000EF0984204FA02F408D91CEB030301F165
:100FE000FF382FD298422DD9023963441B1AADB273
:100FF000B3FBF7F007FB103345EA034500FB0EF3A4
:10100000AB4208D91CEB050500F1FF3816D2AB4204
:1010100014D902386544ED1A40EA014138E73146F7
:10102000304607E78646E5E61846FAE64B45A9D27C
:10103000B9EB020864EB0C0E0138A3E74046EAE77F
:10104000204694E74146D1E7D0467BE7023B654422
:1010500032E7084609E76444023842E7704700BFB8
:101060000000000000000000000000000000000080
:101070000000000000000000000000000000000070
:1010800090F800F06DE9024520F007016FF0000CC8
:1010900010F0070491F820F040F049804FF0000470
:1010A0006FF00700D1E9002391F840F000F108004B
:1010B00082FA4CF2A4FA8CF283FA4CF3A2FA8CF383
:1010C0004BBBD1E9022382FA4CF200F10800A4FAEA
:1010D0008CF283FA4CF3A2FA8CF3E3B9D1E904233E
:1010E00082FA4CF200F10800A4FA8CF283FA4CF375
:1010F000A2FA8CF37BB9D1E9062301F1200182FA2F
:101100004CF200F10800A4FA8CF283FA4CF3A2FA34
:101110008CF3002BC6D0002A04BF04301A4612BA42
:10112000B2FA82F2FDE8024500EBD2007047D1E945
:10113000002304F00305C4F100004FEAC50514F0D4
:10114000040F91F840F00CFA05F562EA05021CBFA5
:1011500063EA050362464FF00004A9E700000000BF
:1011600001F0FF01102A2BDB10F0070F08D010F858
:10117000013B013A8B422DD010F0070F42B3F6D15C
:10118000F0B441EA012141EA014122F007047FF075
:1011900000070023F0E80256083C85EA010586EACC
:1011A000010685FA47F5A3FA87F586FA47F6A5FA08
:1011B00087F68EB9EED1F0BC01F0FF0102F0070214
:1011C00032B110F8013B013A83EA010313B1F8D1BF
:1011D0000020704701387047002D06BF35460338A0
:1011E000073815F0010F07D1013015F4807F02BFD9
:1011F000013015F4C03F0130F0BC0138704700BF2A
:10120000844641EA000313F003036DD1403A41D311
:1012100051F8043B40F8043B51F8043B40F8043BD0
:1012200051F8043B40F8043B51F8043B40F8043BC0
:1012300051F8043B40F8043B51F8043B40F8043BB0
:1012400051F8043B40F8043B51F8043B40F8043BA0
:1012500051F8043B40F8043B51F8043B40F8043B90
:1012600051F8043B40F8043B51F8043B40F8043B80
:1012700051F8043B40F8043B51F8043B40F8043B70
:1012800051F8043B40F8043B51F8043B40F8043B60
:10129000403ABDD2303211D351F8043B40F8043B00
:1012A00051F8043B40F8043B51F8043B40F8043B40
:1012B00051F8043B40F8043B103AEDD20C3205D310
:1012C00051F8043B40F8043B043AF9D2043208D008
:1012D000D2071CBF11F8013B00F8013B01D30B887A
:1012E00003806046704700BF082A13D38B078DD058
:1012F00010F003038AD0C3F10403D21ADB071CBF2A
:1013000011F8013B00F8013B80D331F8023B20F893
:10131000023B7BE7043AD9D3013A11F8013B00F8CC
:10132000013BF9D20B7803704B7843708B78837054
:101330006046704770B54FF0FF0C4CF4E06C1CEA4F
:1013400011541DBF1CEA135594EA0C0F95EA0C0FBB
:1013500000F0DEF82C4481EA030621EA4C5123EA2E
:101360004C5350EA013518BF52EA033541F480115D
:1013700043F4801338D0A0FB02CE4FF00005E1FB10
:1013800002E506F00042E0FB03E54FF00006E1FB5A
:1013900003569CF0000F18BF4EF0010EA4F1FF049D
:1013A000B6F5007F64F5407404D25FEA4E0E6D41DD
:1013B00046EB060642EAC62141EA55514FEAC520EE
:1013C00040EA5E504FEACE2EB4F1FD0C88BFBCF56A
:1013D000E06F1ED8BEF1004F08BF5FEA500E50F11B
:1013E000000041EB045170BD06F0004646EA0101E1
:1013F00040EA020081EA0301B4EB5C04C2BFD4EB13
:101400000C0541EA045170BD41F480114FF0000E0B
:10141000013C00F3AB8014F1360FDEBF002001F079
:10142000004170BDC4F10004203C35DA0C341BDCF3
:1014300004F11404C4F1200500FA05F320FA04F0C5
:1014400001FA05F240EA020001F0004221F00041F9
:1014500010EBD37021FA04F642EB06015EEA430E6C
:1014600008BF20EAD37070BDC4F10C04C4F120059C
:1014700000FA04F320FA05F001FA04F240EA02004F
:1014800001F0004110EBD37041F100015EEA430E20
:1014900008BF20EAD37070BDC4F1200500FA05F240
:1014A0004EEA020E20FA04F301FA05F243EA0203BF
:1014B00021FA04F001F0004121FA04F220EA0200CE
:1014C00000EBD3705EEA430E08BF20EAD37070BD14
:1014D00094F0000F0FD101F00046400041EB0101F4
:1014E00011F4801F08BF013CF7D041EA060195F0D6
:1014F000000F18BF704703F00046520043EB030390
:1015000013F4801F08BF013DF7D043EA060370477C
:1015100094EA0C0F0CEA135518BF95EA0C0F0CD087
:1015200050EA410618BF52EA4306D1D181EA0301CD
:1015300001F000414FF0000070BD50EA410606BFC7
:101540001046194652EA430619D094EA0C0F02D10C
:1015500050EA013613D195EA0C0F05D152EA033651
:101560001CBF104619460AD181EA030101F000416F
:1015700041F0FE4141F470014FF0000070BD41F0B8
:10158000FE4141F4780170BD70B54FF0FF0C4CF492
:10159000E06C1CEA11541DBF1CEA135594EA0C0FB1
:1015A00095EA0C0F00F0A7F8A4EB050481EA030EFE
:1015B00052EA03354FEA013100F088804FEA0333E5
:1015C0004FF0805545EA131343EA12634FEA0222B3
:1015D00045EA111545EA10654FEA00260EF0004174
:1015E0009D4208BF964244F1FD0404F5407402D2C6
:1015F0005B084FEA3202B61A65EB03055B084FEA57
:1016000032024FF480104FF4002CB6EB020E75EB53
:10161000030E22BFB61A754640EA0C005B084FEA7B
:101620003202B6EB020E75EB030E22BFB61A7546F8
:1016300040EA5C005B084FEA3202B6EB020E75EB43
:10164000030E22BFB61A754640EA9C005B084FEABB
:101650003202B6EB020E75EB030E22BFB61A7546C8
:1016600040EADC0055EA060E18D04FEA051545EAB7
:1016700016754FEA06164FEAC30343EA52734FEA60
:10168000C2025FEA1C1CC0D111F4801F0BD141EAD9
:1016900000014FF000004FF0004CB6E711F4801F3E
:1016A00004BF01430020B4F1FD0C88BFBCF5E06F1E
:1016B0003FF6AFAEB5EB030C04BFB6EB020C5FEA2E
:1016C000500C50F1000041EB045170BD0EF0004E83
:1016D0004EEA113114EB5C04C2BFD4EB0C0541EAB5
:1016E000045170BD41F480114FF0000E013C90E6B2
:1016F00045EA060E8DE60CEA135594EA0C0F08BF76
:1017000095EA0C0F3FF43BAF94EA0C0F0AD150EA74
:1017100001347FF434AF95EA0C0F7FF425AF104607
:1017200019462CE795EA0C0F06D152EA03353FF42F
:10173000FDAE1046194622E750EA410618BF52EAAC
:1017400043067FF4C5AE50EA41047FF40DAF52EA80
:1017500043057FF4EBAE12E74FEA410C7FEA6C5C85
:1017600002D150EA013C0AD14FEA430C7FEA6C5C9B
:1017700002D152EA033C02D14FF0000070474FF013
:10178000010070474FEA410212F5001215D211D53F
:101790006FF47873B3EB625212D94FEAC12343F06E
:1017A000004343EA505311F0004F23FA02F018BFF0
:1017B000404270474FF00000704750EA013005D1B9
:1017C00011F0004008BF6FF0004070474FF000007C
:1017D000704700BF4A0011D212F5001211D20DD588
:1017E0006FF47873B3EB62520ED44FEAC12343F027
:1017F000004343EA505323FA02F070474FF00000D1
:10180000704750EA013002D14FF0FF3070474FF07F
:101810000000704738B505460C4628462146002290
:101820000023FEF709FF28B928462146BDE83840C5
:1018300000F00AB8284604F1004100F005F84042E3
:1018400061EB410138BD00BFD0B50C4B002206460C
:101850000F46FFF76FFDFFF7BDFF0446FEF712FED0
:10186000074B0022FFF766FD02460B46304639461D
:10187000FEF7CAFCFFF7AEFF2146D0BD0000F03DE9
:101880000000F04110B588B0002203920492059246
:10189000069207920092184B196B41F08001196370
:1018A000196B01F08001009100990192196B41F0D0
:1018B00001011963196B01F0010101910199029273
:1018C000196B41F0020119631B6B03F002030293D1
:1018D000029B0A4C3021204600F034FC3023039355
:1018E0000123049305930323069303A9204600F0E4
:1018F00037FB08B010BD00BF0038024000040240B2
:1019000072B6FEE700B595B03022002108A802F0BB
:10191000CBFA002303930493059306930793019353
:10192000204A116C41F080511164126C02F0805217
:101930000192019A02931C4B1A6842F480421A6089
:101940001B6803F480430293029B012308934FF426
:101950008033099302220E924FF480030F930423E5
:101960001093A82111911292139308A800F0F0FB94
:1019700098B90F23039302230493002305934FF494
:10198000A05306934FF480530793052103A800F05A
:1019900045FE20B915B05DF804FBFFF7B1FFFFF776
:1019A000AFFF00BF003802400070004008B500F0F3
:1019B000CDF9FFF7A7FFFFF765FF00F0E1F8274C2F
:1019C000204602F0D3F9642000F0ECF901F0CAFFE0
:1019D00001F0F4FE02F03AF8214B224A1A60224B41
:1019E0000A221A60214B4FF080421A60204B214A94
:1019F0001A60214A214B1A60214B22491960224B5F
:101A0000002119700125214B1D70214B4FF07C5195
:101A100019602049596020490A60DA601F4B204A4A
:101A20001A6000261F4B1E6001F008FB4FF0FF31CB
:101A3000304601F0C5FC1C4802F0EAFA00F09EFEB8
:101A40001A4BA3FB0030800C00F018FA2A46184904
:101A5000204601F0D6FA01F0EBFCFCE7E00A00209A
:101A6000440B0020000040412C0B0020480B0020BC
:101A7000400B00200000C0400000A0413C0B0020B3
:101A8000280B0020000048425C0B00204C0B00207B
:101A9000E40B0020CDCC4C3E080C00207C0B002039
:101AA00017B7D138380B0020D0C2000883DE1B43A3
:101AB000DD0A002082B0002100910B4B5A6C42F4E9
:101AC00080425A645A6C02F480420092009A01915A
:101AD0001A6C42F080521A641B6C03F0805301931D
:101AE000019B02B0704700BF00380240FEE7FEE7EE
:101AF000FEE7FEE7FEE770477047704708B500F065
:101B00003FF908BD08B5024801F01EF908BD00BF45
:101B1000E00A00200120704708B502F09BF9162367
:101B200003604FF0FF3008BD08B54FF0FF31FFF7FD
:101B3000F3FFFEE710B503460C4A0D490D48006857
:101B400040B10C4800680344521A934206D8094A2F
:101B5000136010BD0748084C0460F2E702F07AF900
:101B60000C2303604FF0FF30F3E700BF00000220BA
:101B700000040000D8090020780C00207047000005
:101B800008B50A480A4B03604FF4E1334360002371
:101B90008360C36003610C2242618361C36100F012
:101BA0003DFF00B908BDFFF7ABFEFBE7E00A0020F0
:101BB0000044004010B588B00023039304930593BC
:101BC000069307930268184B9A4201D008B010BDE3
:101BD0000024019403F5FA331A6C42F400321A64BB
:101BE0001A6C02F400320192019A02941A6B42F0CC
:101BF00001021A631B6B03F001030293029B0C2387
:101C0000039302230493032306930723079303A953
:101C1000064800F0A5F922462146262000F0E8F803
:101C2000262000F01DF9D1E70044004000000240EA
:101C300008B5184B1A78FF2A11D0531CDBB215498E
:101C40000B7015491548007888545A1E8A5C0A2A78
:101C500014D001221149124801F0D3F908BD002126
:101C600019704FF480720C4802F01EF94FF6FF73A2
:101C70000A220C490A4800F000FFEAE7023BCB5C6D
:101C80000D2BE6D1084B01221A60024B00221A707C
:101C9000DFE700BFDC0A0020DC090020DD0A0020AD
:101CA000E00A0020F8C20008300B0020DFF834D032
:101CB0000D480E490E4A002302E0D458C4500433A4
:101CC000C4188C42F9D30B4A0B4C002301E013607B
:101CD0000432A242FBD3FFF751FF02F0C1F8FFF735
:101CE00065FE70470000022000000020BC090020B3
:101CF0004CCE0008BC090020780C0020FEE7000054
:101D000010B504460E4B18784FF47A73B3FBF0F31A
:101D10000C4A1068B0FBF3F000F0B0F868B90F2C73
:101D200001D901200AE0002221464FF0FF3000F0E7
:101D30005FF8054B1C60002000E0012010BD00BFD3
:101D400004000020000000200800002008B50B4B14
:101D50001A6842F400721A601A6842F480621A60CB
:101D60001A6842F480721A60032000F02FF80F20E6
:101D7000FFF7C6FFFFF79EFE002008BD003C0240B3
:101D8000034A1168034B1B780B441360704700BF74
:101D9000240B002004000020014B1868704700BF8E
:101DA000240B002038B50446FFF7F6FF0546B4F1D2
:101DB000FF3F02D0044B1B781C44FFF7EDFF401B94
:101DC000A042FAD338BD00BF04000020074AD36800
:101DD00023F4E0631B041B0C000200F4E0600343E7
:101DE00043F0BF6343F40033D360704700ED00E07D
:101DF00000B5194BDB68C3F30223C3F1070CBCF138
:101E0000040F28BF4FF0040C03F1040EBEF1060FBF
:101E100018D9033B4FF0FF3E0EFA0CFC21EA0C01EF
:101E200099400EFA03F322EA0303194300280BDB5F
:101E30000901C9B200F1604000F5614080F800136B
:101E40005DF804FB0023E5E700F00F000901C9B2CB
:101E5000024B1954F4E700BF00ED00E014ED00E080
:101E6000002807DB00F01F02400901239340024ACB
:101E700042F82030704700BF00E100E00138B0F1C7
:101E8000807F0BD24FF0E0235861054AF02182F8A1
:101E900023100020986107221A61704701207047C3
:101EA00000ED00E070B50446866DFFF775FF94F80D
:101EB0003530DBB2022B06D080236365002384F823
:101EC0003430012070BD05462268136823F01603E4
:101ED00013602268536923F080035361236CE3B1DC
:101EE0002268136823F0080313602268136823F044
:101EF0000103136023681B6813F0010F11D0FFF773
:101F00004BFF431B052BF5D920236365032084F881
:101F10003500002384F83430D4E7A36C002BDFD1E4
:101F2000E3E7E26D3F239340B360012384F835304B
:101F3000002084F83400C5E790F83530DBB2022B7E
:101F400003D08023436501207047052380F8353096
:101F50000268136823F0010313600020704700003B
:101F600000230F2B00F2E48070B582B060E085683A
:101F70005E000324B44025EA0405CC68B4402C4339
:101F80008460456825EA02054C68C4F300129A4053
:101F90002A4342605AE0DC08083450F8246003F019
:101FA000070295000F22AA4026EA020E0A69AA40FB
:101FB00042EA0E0240F824205CE0072200E0002202
:101FC00002FA0EF22A4302345A4D45F824205A4AA6
:101FD00094686FEA0C0224EA0C054E6816F4801F20
:101FE00001D04CEA0405544CA560E46802EA0405FB
:101FF0004E6816F4001F01D04CEA04054E4CE56013
:10200000646802EA04054E6816F4003F01D04CEA09
:102010000405494C6560246822404D6815F4803FF2
:1020200001D04CEA0402444C226001330F2B7DD8CE
:1020300001229A400C6804EA020C32EA0404F4D14A
:102040004C6804F00304013C012C90D94A6802F06A
:102050000302032A09D0C4685D000322AA4024EACF
:1020600002048A68AA402243C2604A6802F003025E
:10207000022A90D004684FEA430E032202FA0EF2BD
:1020800024EA02044A6802F0030202FA0EF2224332
:1020900002604A6812F4403FC7D000220192274AEA
:1020A000546C44F480445464526C02F480420192B3
:1020B000019A9C08A51C1F4A52F8255003F0030200
:1020C0004FEA820E0F2202FA0EF225EA02051C4A9E
:1020D00090423FF474AF02F5806290421AD002F54C
:1020E0008062904218D002F58062904216D002F5CC
:1020F0008062904214D002F58062904212D002F5C4
:102100008062904210D002F5806290423FF455AF59
:10211000082255E7012253E7022251E703224FE745
:1021200004224DE705224BE7062249E702B070BDC5
:10213000704700BF00380140003C014000380240B9
:10214000000002400AB18161704709048161704753
:10215000002800F0E08170B582B00446036813F0F7
:10216000010F3BD09F4B9B6803F00C03042B2CD03A
:102170009C4B9B6803F00C03082B21D06368B3F5DC
:10218000803F4FD0B3F5A02F52D0964B1A6822F45F
:1021900080321A601A6822F480221A606368002B69
:1021A00050D0FFF7F9FD05468E4B1B6813F4003F36
:1021B00014D1FFF7F1FD401B6428F5D90320B1E1EC
:1021C000884B5B6813F4800FD8D0864B1B6813F4E0
:1021D000003F03D06368002B00F09F81236813F059
:1021E000020F54D07F4B9B6813F00C0F3ED07D4BF9
:1021F0009B6803F00C03082B33D0E368002B68D0F6
:10220000794B01221A60FFF7C7FD0546754B1B6825
:1022100013F0020F54D1FFF7BFFD401B0228F5D980
:1022200003207FE16F4A136843F480331360B5E7FE
:102230006C4B1A6842F480221A601A6842F48032A9
:102240001A60ABE7FFF7A8FD0546664B1B6813F461
:10225000003FC3D0FFF7A0FD401B6428F5D9032041
:1022600060E1604B5B6813F4800FC6D15D4B1B6867
:1022700013F0020F03D0E368012B40F05081594A5C
:10228000136823F0F803216943EAC103136023684C
:1022900013F0080F42D063696BB3534B0122C3F8AC
:1022A000802EFFF779FD05464E4B5B6F13F0020F52
:1022B00034D1FFF771FD401B0228F5D9032031E12D
:1022C000484A136823F0F803216943EAC103136005
:1022D000DDE7454B00221A60FFF75EFD0546414BE6
:1022E0001B6813F0020FD2D0FFF756FD401B0228E7
:1022F000F5D9032016E13C4B0022C3F8802EFFF7EE
:102300004BFD0546374B5B6F13F0020F06D0FFF70E
:1023100043FD401B0228F5D9032003E1236813F095
:10232000040F77D02F4B1B6C13F0805F33D1002349
:1023300001932C4B1A6C42F080521A641B6C03F010
:1023400080530193019B0125284B1B6813F4807F68
:1023500023D0A368012B34D0052B38D0214B1A6F22
:1023600022F001021A671A6F22F004021A67A368AA
:10237000002B3DD0FFF710FD06461A4B1B6F13F0E4
:10238000020F46D1FFF708FD801B41F288339842C7
:10239000F3D90320C6E00025D6E7144A136843F4B6
:1023A00080731360FFF7F8FC0646104B1B6813F4AC
:1023B000807FCED1FFF7F0FC801B0228F5D90320E7
:1023C000B0E0084A136F43F001031367CFE7054BF2
:1023D0001A6F42F004021A671A6F42F001021A677C
:1023E000C5E700BF003802400000474200700040CF
:1023F000FFF7D2FC0646524B1B6F13F0020F08D0BA
:10240000FFF7CAFC801B41F288339842F3D90320BE
:1024100088E0EDB9A369002B00F08380484A9268F8
:1024200002F00C02082A51D0022B17D0454B002293
:102430001A66FFF7B1FC0446414B1B6813F0007F9E
:1024400042D0FFF7A9FC001B0228F5D9032069E060
:102450003B4A136C23F080531364DBE7394B0022B3
:102460001A66FFF799FC0546354B1B6813F0007F91
:1024700006D0FFF791FC401B0228F5D9032051E05C
:10248000E369226A1343626A43EA8213A26A52082A
:10249000013A43EA0243E26A43EA0263284A53608C
:1024A000284B01221A66FFF777FC0446244B1B6871
:1024B00013F0007F06D1FFF76FFC001B0228F5D94F
:1024C00003202FE000202DE000202BE0012B2BD05B
:1024D0001B4B5B6803F48001E269914226D103F053
:1024E0003F02216A8A4223D1616A47F6C0721A40CC
:1024F000B2EB811F1ED103F44031A26A5208013AA7
:10250000B1EB024F18D103F07063E26AB3EB026FD4
:1025100014D1002006E001207047012002E00120D4
:1025200000E0002002B070BD0120FBE70120F9E7C8
:102530000120F7E70120F5E70120F3E70120F1E7AB
:10254000003802400000474208B5314B9B6803F059
:102550000C03042B57D0082B57D12D4B5A6802F08F
:102560003F025B6813F4800F2AD0294B5968C1F3EE
:10257000881C4FEA4C11B1EB0C006EEB0E0E4FEACB
:102580008E1343EA90638101091A63EB0E03DB00AB
:1025900043EA5173C90011EB0C0C43F100035902DB
:1025A00000234FEA4C2041EADC51FEF7D7FB184BE1
:1025B0005B68C3F3014301335B00B0FBF3F025E03C
:1025C000134B5968C1F3881C4FEA4C11B1EB0C0056
:1025D0006EEB0E0E4FEA8E1343EA90638101091AE7
:1025E00063EB0E03DB0043EA5173C90011EB0C0CE3
:1025F00043F10003990200234FEA8C2041EA9C51E9
:10260000FEF7ACFBD3E7034800E0034808BD00BF7A
:102610000038024000127A000024F400002800F084
:102620009B8070B50D4604464F4B1B6803F00703B3
:102630008B4208D2CBB24C4A1370136803F00703E5
:102640008B4240F08B80236813F0020F17D013F0F9
:10265000040F04D0454A936843F4E0539360236821
:1026600013F0080F04D0414A936843F46043936029
:102670003E4A936823F0F003A1680B4393602368FC
:1026800013F0010F32D06368012B21D09A1E012A6A
:1026900025D9364A126812F0020F61D033498A6890
:1026A00022F0030213438B60FFF776FB06462F4BA5
:1026B0009B6803F00C036268B3EB820F16D0FFF740
:1026C0006BFB801B41F288339842F0D9032042E033
:1026D000264A126812F4003FE0D101203BE0234A71
:1026E000126812F0007FD9D1012034E01E4B1B6824
:1026F00003F00703AB4207D9EAB21B4B1A701B6801
:1027000003F00703AB422DD1236813F0040F06D06A
:10271000164A936823F4E053E1680B4393602368FF
:1027200013F0080F07D0114A936823F4604321691E
:1027300043EAC1039360FFF707FF0C4B9B68C3F3A9
:1027400003130B4AD35CD8400A4B18600A4B186835
:10275000FFF7D6FA002070BD012070470120FAE78C
:102760000120F8E70120F6E7003C02400038024073
:10277000E0C200080000002008000020014B18689B
:10278000704700BF0000002008B5FFF7F7FF044BBB
:102790009B68C3F38223034AD35CD84008BD00BFC3
:1027A00000380240F0C2000808B5FFF7E7FF044B0D
:1027B0009B68C3F34233034AD35CD84008BD00BFD3
:1027C00000380240F0C20008026802F10C0353E82E
:1027D000003F23F490730C3242E800310029F3D11A
:1027E000026802F1140353E8003F23F0010314329E
:1027F00042E800310029F3D1036B012B05D02023DF
:1028000080F83E30002303637047026802F10C0336
:1028100053E8003F23F010030C3242E80031002956
:10282000F3D1ECE790F83D30DBB2212B01D0022050
:1028300070478368B3F5805F17D0036A5A1C026241
:102840001A7803685A60C38C9BB2013B9BB2C38465
:102850004BB90268D36823F08003D3600268D36861
:1028600043F04003D360002070470369002BE4D19C
:10287000036A1B880268C3F308035360036A0233C8
:102880000362E0E738B504460268136923F4405355
:10289000C1680B43136183680269134342691343A0
:1028A000C2691A430168CB6823F4164323F00C0372
:1028B0001343CB600268536923F4407381690B436F
:1028C00053610368314A934206D002F58062934215
:1028D00002D0FFF759FF01E0FFF766FFE369B3F5A8
:1028E000004F29D00021031849411B1841F1000174
:1028F000C90041EA5371DB00181863684FEA83028C
:102900004FEA937341F10001FEF728FA204DA5FB31
:1029100000325109642303FB11031B013233A5FB71
:1029200003235B0903F0F00202EB011203F00F0333
:10293000216813448B6038BD0023021843EB030168
:10294000121841F10001C90041EA5271D200101879
:1029500041F10001626892185B41FEF7FFF90C4DEE
:10296000A5FB00325109642303FB1103DB00323362
:10297000A5FB03235B095A0002F4F87202EB011273
:1029800003F00703216813448B60D4E70010014073
:102990001F85EB512DE9F84305460F46164699462B
:1029A000DDF820802C68246837EA04030CBF4FF060
:1029B000010C4FF0000CB4452DD1B8F1FF3FF1D020
:1029C000B8F1000F05D0FFF7E7F9A0EB090040458B
:1029D000E8D92A6802F10C0353E8003F23F4D073CE
:1029E0000C3242E800310029F3D12A6802F11403C5
:1029F00053E8003F23F00103143242E8003100297C
:102A0000F3D1202385F83D3085F83E30002385F84A
:102A10003C30032000E00020BDE8F88358B310B537
:102A2000044690F83D300BB3242384F83D302268EF
:102A3000D36823F40053D3602046FFF723FF2268B6
:102A4000136923F4904313612268536923F02A0326
:102A500053612268D36843F40053D360002020649C
:102A6000202384F83D3084F83E3010BD80F83C309F
:102A7000FFF7A0F8D8E7012070472DE9F04182B0B8
:102A80001E4690F83D30DBB2202B54D104460D4653
:102A90009046002953D0002A53D090F83C30012BA7
:102AA00051D0012380F83C3000230364212380F8B7
:102AB0003D30FFF771F90746A4F82480A4F826807A
:102AC000A368B3F5805F05D04FF00008002384F8B9
:102AD0003C3012E0236913B14FF00008F6E7A84636
:102AE0000025F3E738F8023B2268C3F3080353607C
:102AF000E28C92B2013A92B2E284E38C9BB273B15F
:102B000000963B46002280212046FFF743FFE0B9B4
:102B1000002DE7D015F8012B23685A60E8E70096EE
:102B20003B46002240212046FFF734FF78B920239E
:102B300084F83D3000E0022002B0BDE8F0810120C1
:102B4000FAE70120F8E70220F6E70320F4E7032084
:102B5000F2E72DE9F04182B01E4690F83E30DBB23C
:102B6000202B5CD104460D46904600295BD0002AFC
:102B70005BD090F83C30012B59D0012380F83C30D9
:102B800000230364222280F83E200363FFF704F948
:102B90000746A4F82C80A4F82E80A368B3F5805FC4
:102BA00005D04FF00008002384F83C3017E023697B
:102BB00013B14FF00008F6E7A8460025F3E72368B5
:102BC0005B68C3F3080328F8023B03E023685B68F3
:102BD0002B700135E28D92B2013A92B2E285E38D1B
:102BE0009BB2BBB100963B46002220212046FFF756
:102BF000D1FEF0B9002DE2D0A368B3F5805FE5D037
:102C000013B92369002BE1D023685B6803F07F03CD
:102C10002B70DEE7202384F83E30002000E0022005
:102C200002B0BDE8F0810120FAE70120F8E70220B8
:102C3000F6E70320F4E7704708B50168CA6822F098
:102C40004002CA60202280F83D20FFF7F4FF0020F8
:102C500008BD704708B5806B0023C385C384FFF7A8
:102C6000F8FF08BD704790F83E30DBB2222B67D1E9
:102C70008368B3F5805F4DD0826AB3F5805F04D07E
:102C8000002B54D10369002B51D103685B6813708A
:102C9000836A01338362C38D9BB2013B9BB2C385C0
:102CA000002B4FD100B583B00268D36823F0200316
:102CB000D3600268D36823F48073D36002685369D9
:102CC00023F001035361202380F83E30036B012B76
:102CD00033D100230363026802F10C0353E8003F81
:102CE00023F010030C3242E800310029F3D10368CD
:102CF0001A6812F0100F06D0002201921A68019291
:102D00005B680193019B818DFFF7ACFF002003B04E
:102D10005DF804FB0269002AAED1826A03685B6831
:102D2000C3F308031380836A02338362B3E7036843
:102D30005B6803F07F031370AAE7FEF779FFE5E70E
:102D4000022070470020704730B583B00446026807
:102D50001368D068516913F00F0505D113F0200FE7
:102D600002D010F0200F19D12DB111F0010119D1AD
:102D700010F4907F16D1216B01297DD013F0800FC4
:102D800003D010F0800F40F0158113F0400F03D0F6
:102D900010F0400F40F0128103B030BD2046FFF725
:102DA00062FFF9E713F0010F06D010F4807F03D023
:102DB000226C42F00102226413F0040F04D019B116
:102DC000226C42F00202226413F0020F04D019B107
:102DD000226C42F00402226413F0080F07D010F0B6
:102DE000200F00D119B1226C42F008022264226C3B
:102DF000002AD1D013F0200F02D010F0200F29D1DB
:102E000023685B6903F04003226C12F0080F00D1C5
:102E100063B32046FFF7D8FC23685B6913F0400FCB
:102E200020D0226802F1140353E8003F23F040034E
:102E3000143242E800310029F3D1A36B73B1614A27
:102E40001A65A06BFFF778F80028A5D0A06B036D7A
:102E50009847A1E72046FFF706FFD1E72046FFF796
:102E6000F8FE99E72046FFF7F4FE95E72046FFF7C6
:102E7000F0FE002323648FE713F0100F3FF47EAFC2
:102E800010F0100F3FF47AAF002301931368019301
:102E900053680193019B536913F0400F50D0A26B0C
:102EA00013685B689BB2002B3FF476AFA18D99420B
:102EB0007FF672AFE385D369B3F5807F37D02268A0
:102EC00002F10C0353E8003F23F480730C3242E814
:102ED00000310029F3D1226802F1140353E8003FC6
:102EE00023F00103143242E800310029F3D12268B3
:102EF00002F1140353E8003F23F04003143242E888
:102F000000310029F3D1202384F83E3000232363CD
:102F1000226802F10C0353E8003F23F010030C3247
:102F200042E800310029F3D1A06BFEF7BBFFA18D71
:102F3000E38D9BB2C91A89B22046FFF793FE2BE7B7
:102F4000A18DE38D9BB2C91A89B2E38D9BB2002B90
:102F50003FF422AF00293FF41FAF226802F10C03B7
:102F600053E8003F23F490730C3242E8003000280D
:102F7000F3D1226802F1140353E8003F23F0010368
:102F8000143242E800300028F3D1202384F83E3088
:102F900000232363226802F10C0353E8003F23F06F
:102FA00010030C3242E800300028F3D12046FFF72E
:102FB00059FEF1E62046FFF735FCEDE62046FFF727
:102FC0003BFEE9E6552C000881628285C28500231C
:102FD0000364222280F83E2080F83C30036923B14C
:102FE0000268D36843F48073D3600268536943F086
:102FF000010353610268D36843F02003D3600020CB
:10300000704708B590F83E30DBB2202B0DD171B17E
:103010007AB190F83C30012B0DD0012380F83C3080
:1030200000230363FFF7D0FF00E0022008BD01206A
:10303000FCE70120FAE70220F8E7000010B510488D
:1030400000F0E6FF0F4B1C6821460F4B1868FDF798
:1030500035FE08B10C4B1C600C4B1C610C4B1C6109
:103060000C4B1B7833B90C4B1C610C4B1A680C4B86
:103070001A6110BD0B4B1A68074B1A61F5E700BFC8
:1030800004C30008400B0020480B0020C00B0020A8
:103090009C0B00205C0B0020E40B00203C0B00206C
:1030A000080C0020280B00202DE9704305460C4633
:1030B000164600212046FDF7D9FD00284DD12146B6
:1030C0002046FDF73FFC804629462846FDF73AFC9E
:1030D00001464046FDF72EFB00F066FB2046FDF75B
:1030E000F3F9804689462846FDF7EEF942464B46FD
:1030F00008F004FD04460D463046FDF7E5F922468A
:103100002B46FDF783F8FDF7BFFA00F025FB0446D8
:1031100016492046FDF7CAFC4FF07E51FDF70AFB29
:10312000FDF7FCFDFDF7B6FB05461049FDF70AFC6F
:103130002146FDF7FDFA00F053FA4FF07E51284684
:10314000FDF7F6FA0949FDF7FDFB01462046FDF7BC
:10315000EFFA00F045FABDE8708305493046FDF707
:10316000E9FA00F0F9FA0446D2E700BF920A863F76
:10317000DB0FC93FF8B57C4800F04AFF7B4B1E6867
:10318000002E40F0AA80344615E02046FDF786FB6D
:103190007749FDF7D7FB7749FDF788FC7649FDF7BE
:1031A000C9FA02460021754B1868FFF77DFF012020
:1031B000FEF7F8FD0134B4F5FA7FE6DD00F068FBB8
:1031C00005464FF4FA7415E02046FDF767FB6849A1
:1031D000FDF7B8FB6749FDF769FC6749FDF7AAFAF7
:1031E00002460021654B1868FFF75EFF0120FEF7DD
:1031F000D9FD013C002CE7DA00F04AFB0446002030
:1032000002460146FFF750FF0120FEF7CBFD28469E
:10321000FDF75AF902460B46594800F097FE204642
:10322000FDF752F902460B46564800F08FFE214644
:103230002846FDF77DFA20F0004721462846FDF795
:1032400015FD00283AD150493846FDF719FD0028F0
:1032500034D121462846FDF713FD002832D04B48D3
:1032600000F0D6FE414B4FF0FF321A60484800F0A4
:103270006DFE484B1868FDF711FB3946FDF762FB00
:103280003B49FDF755FA20F000404FF07C51FDF727
:1032900015FDF0B1404800F059FE39463448FDF7BD
:1032A00005FC4FF07C51FDF745FAFDF711FD014695
:1032B000384B1860394800F049FE11E0384800F0FA
:1032C000A7FE49E0374800F0A3FE284B01221A6010
:1032D000CCE7354800F09CFE02E0344800F098FE50
:1032E0000021334B1868FDF7C1FC002836D00025BB
:1032F000214A2946214B1868FFF7D6FE4620FEF7E3
:1033000051FD1A4B1868FDF7C9FA044600F0C0FADF
:103310000146204B1E682046FDF714FB314600F0A5
:1033200039FA00F019FA224C20601420FEF73AFD19
:10333000204800F00BFE2068FDF7C6F802460B4659
:103340001D4800F003FE2A4629462846FFF7ACFE3A
:103350001420FEF727FD01263046F8BD174800F07F
:1033600057FE0126F8E700BF10C30008340B002009
:10337000DB0FC9400000FA43E4CB9640480B002025
:1033800024C3000838C300080AD7233C78C30008C8
:10339000B0C300082C0B0020C0C30008D8C300082D
:1033A0004CC3000894C30008E0C30008E8C3000849
:1033B000600B002000C4000818C4000820C40008E6
:1033C00038B505460C460021FDF750FC18B9114BE5
:1033D0001D60114B1C60FFF7CDFE00F059FA0F4B3A
:1033E00018600520FEF7DEFC00F0B8F80C4B186002
:1033F0000520FEF7D7FC00F09BF80A4B18600A4B3B
:103400001B78022B03D00A20FEF7CCFC38BD074BFB
:103410001860F8E7600B0020340B00208C0B0020B4
:10342000580B0020540B00204C0B0020380B0020C0
:1034300008B5324B1B68012B00D008BD304B1B7800
:10344000413B152B0FD8DFE803F04F0E0E0E0E0E8A
:103450000E0B360E0E0E0E0E0E270E0E0E180E450D
:10346000284800F0D5FD4FF480720021244800F078
:103470001BFD224B00221A60DFE7234800F0E6FC28
:10348000FDF702F9214B1860FDF71EF802460B46C6
:103490001F4800F05BFDE6E71B4800F0D7FCFDF796
:1034A000F3F81C4B1860FDF70FF802460B461A485C
:1034B00000F04CFDD7E7144800F0C8FCFDF7E4F835
:1034C000144B5860FDF700F802460B46134800F015
:1034D0003DFDC8E7124B1868FCF7F6FF02460B46A5
:1034E000104800F033FDBEE70F4B1868FCF7ECFF07
:1034F00002460B460D4800F029FDB4E7300B0020D2
:10350000DC0900203CC40008DD090020380B002045
:103510004CC40008E40B002058C4000864C4000830
:10352000580B002070C40008540B00207CC4000815
:1035300010B5084B1868FDF7B1F9044600F0A8F97A
:1035400001462046FDF7FEF9034B1968FDF7F0F838
:1035500010BD00BF340B0020500B002010B5084BED
:103560001868FDF79BF9044600F028FA0146054863
:1035700000F040F901462046FDF7E4F910BD00BF18
:10358000340B00207C0B002038B500F0BBFA6C2017
:1035900000F0B8FB00F0F6FA0C2000F0B3FB00F0EE
:1035A000F1FA00F0AFFA6D2000F0ACFB00F0EAFA9F
:1035B000012000F069FB0446002000F065FB054691
:1035C00000F0C0FA2402A4B2601980B238BD08B578
:1035D000FFF7DAFFC0F30B0008BD00000000000099
:1035E00010B504465449FDF74BFB38BB5349204600
:1035F000FDF746FB002842D151492046FDF740FB2C
:1036000000286FD04F492046FDF79CF90446002161
:10361000FDF74AFB00285BD04FF07C512046FDF7B8
:1036200089F8FDF755FBA0F5C770474B53F820000C
:10363000FDF734F94549FDF785F917E04149204682
:10364000FDF780F904460021FDF72EFB78B14FF01D
:103650007C512046FDF76EF8FDF73AFB3A4B53F8E4
:103660002000FDF71BF93A49FDF76CF910BD4FF04A
:103670007C512046FDF75CF8FDF72AFBEEE7314967
:103680002046FDF75FF904460021FDF70DFBA8B1C8
:103690004FF07C512046FDF74DF8FDF719FBC0F5C2
:1036A000C770294B53F82000FCF7FCFE20A3D3E998
:1036B0000023FDF73FFEFCF7E7FFD7E74FF07C5113
:1036C0002046FDF735F8FDF703FBC0F5C770E8E7C6
:1036D0004FF07C512046FDF72BF8FDF7F9FAA0F5E5
:1036E000C770A2E717492046FDF72CF904460021D0
:1036F000FDF7DAFA88B14FF07C512046FDF71AF851
:10370000FDF7E6FAC0F547700F4B53F82000FDF7C0
:10371000C5F80E49FDF716F9A8E74FF07C51204691
:10372000FDF706F8FDF7D4FAC0F54770ECE700BFE7
:103730002D431CEBE2361A3FDB0FC93FDB0F49403C
:10374000E4CB9640E65FFD4288C4000817B7D1B8C5
:1037500017B7D1380000000010B5FCF7B5FE0AA37A
:10376000D3E9002308F0CCF9FCF78EFF04460021D2
:10377000FDF79AFA08B1204610BD05492046FCF72E
:10378000D9FF0446F7E700BF00000060FB211940A5
:10379000DB0FC94010B504460846FDF77FF8214607
:1037A000FDF7D0F810BD000008B501460248A0EBB7
:1037B0006100FDF7C7F808BD865A375F084B094816
:1037C00018600021596000229A60074B1860596008
:1037D0009A60064B0648186059609A60704700BFAF
:1037E000700B0020CDCC4C3D640B00207C0B0020E6
:1037F00017B7D138F8B505460C464FF0E0239F695E
:103800008068B8422CD9C01BFDF744F81D49FDF76C
:103810004DF91D49FDF796F80646AF601B49304645
:10382000FDF74CFA58BB2F6831463846FCF782FF4B
:1038300001463846FDF73AF9064601466868FDF745
:1038400081F8074631464FF07E50FCF771FF214664
:10385000FDF778F801463846FCF76CFF6860F8BD64
:10386000C01B00F1FF1000F57F40FDF713F805497C
:10387000FDF71CF90449FDF765F80646CDE76C60D5
:103880002046ECE70000A841BD3786359A99993E5D
:103890002DE9F041FFF79BFE0446294B1D68451BAF
:1038A0002846FCF7FFFD804621F00047254B1868AD
:1038B000FCF7F4FF06462449FDF744F8FCF704FE44
:1038C00002460B4640463946FCF7D4FE38B1002D7F
:1038D00034DD1E491E4D2868FCF72CFF2860184B6C
:1038E0001C601C491A4B1868FDF7DEF940B1184BF3
:1038F00000221A60184D17492868FCF719FF286044
:103900001649134B1868FDF7C5F940B1104B00225A
:103910001A60114D0F492868FCF70CFF28602046FB
:10392000FCF7BCFF3146FDF7C1F80D49FDF70AF879
:10393000074B1968FCF7FEFEBDE8F0810849C9E7AE
:10394000880B0020900B0020CDCC4C3FDB0FC9C072
:10395000940B00207C5944468C0B00207C5944C6B3
:10396000DB0FC94008B500F0A7F80E4B4FF48052AA
:103970001A600D4800F04CFB6420FEF713FAFFF7C5
:1039800026FE0A4B18600A4B00221A60094B0022DF
:103990001A603220FEF706FAFFF77AFF064B18602E
:1039A00008BD00BF900B0020A8C70008880B0020AE
:1039B000940B0020980B00208C0B0020F8B54FF0E2
:1039C000E0239D691C4B1868A84216DD401BFCF7DC
:1039D00065FF1A49FDF76AF81949FCF7B3FF044679
:1039E00000212046FDF742F9B0B94FF07C51204646
:1039F000FDF764F988B1134C0FE0C5F1FF1303F52F
:103A00007F431844FCF74AFF0C49FDF74FF80C4977
:103A1000FCF798FF0446E3E70A4CFFF739FF064638
:103A2000094F3968FCF784FE2146FDF73FF83E60F8
:103A3000014B1D60F8BD00BF980B00200000A8419D
:103A4000BD3786356F12833A8C0B0020154A4FF034
:103A50007C501060002353609360D3605361936186
:103A6000D36100211162104ADFF840C0C2F800C0E3
:103A700053609360D36053619361D36111620C4AC8
:103A8000106053609360D36053619361D36111629E
:103A9000084A106053609360D36053619361D361AF
:103AA00011627047E40B0020080C00200000A041C8
:103AB000C00B00209C0B002070B586B00023009343
:103AC0000E4B1A6B42F002021A631B6B03F00203E7
:103AD0000093009B30260196012402940394022354
:103AE0000493074D01A92846FEF73AFA22463146CB
:103AF0002846FEF727FB06B070BD00BF0038024025
:103B00000004024010B50E4C012220212046FEF791
:103B100019FB012210212046FEF714FB0120FEF7BD
:103B200041F9002220212046FEF70CFB0120FEF780
:103B300039F9002210212046FEF704FB10BD00BF1A
:103B40000004024010B50E4C002220212046FEF752
:103B5000F9FA002210212046FEF7F4FA0120FEF7C0
:103B600021F9012220212046FEF7ECFA0122102142
:103B70002046FEF7E7FA0120FEF714F910BD00BF5A
:103B80000004024010B51E4C236823F440632360F8
:103B900023682360012220212046FEF7D3FA012268
:103BA00010212046FEF7CEFA0120FEF7FBF8002395
:103BB000134A126912F0200F13D00133DBB2FA2B33
:103BC000F6D90F4B1A6822F440621A601A6842F460
:103BD00080621A60FFF7B6FF0A4800F019FA012068
:103BE0000DE00748036823F440630360036843F46F
:103BF0008063036000221021FEF7A4FA002010BDAC
:103C000000040240B8C7000810B50E4C0022102175
:103C10002046FEF797FA002220212046FEF792FA6E
:103C20000120FEF7BFF8012210212046FEF78AFA94
:103C30000120FEF7B7F8002210212046FEF782FA95
:103C400010BD00BF0004024010B50E4C0022102130
:103C50002046FEF777FA012220212046FEF772FA6D
:103C60000120FEF79FF8012210212046FEF76AFA94
:103C70000120FEF797F8002210212046FEF762FA95
:103C800010BD00BF00040240F8B507461C4B1A687F
:103C900022F440621A601A681A600024254604E083
:103CA0000120FEF77FF80135EDB2072D16D8144E2E
:103CB000002210213046FEF745FA0120FEF772F887
:103CC000012210213046FEF73DFA6400E4B2336968
:103CD00013F0200FE4D00134E4B2E1E7084B1A6896
:103CE00022F440621A601A6842F480621A601FB9B6
:103CF000FFF7AAFF2046F8BDFFF786FFFAE700BFEF
:103D00000004024070B50446002210211648FEF758
:103D100019FA00251BE0002220211348FEF712FAB1
:103D20006400E4B20120FEF73DF80F4E012210219D
:103D30003046FEF707FA0120FEF734F80022102182
:103D40003046FEF7FFF90120FEF72CF80135072D6C
:103D500008D814F0800FDED0012220210248FEF79F
:103D6000F1F9DDE770BD00BF0004024008B5054B66
:103D70001860054B1868002302221946806800F07D
:103D80004FF908BD2C0C00200C000020022801D89F
:103D90000120704708B500F05DF80923036000209A
:103DA00008BD000010B5013801280AD814464FF0AC
:103DB000FF3392B207480068FEF75FFE40B9204625
:103DC00010BD00F047F8092303604FF0FF30F7E71C
:103DD0000520F5E72C0C0020022801D800207047B0
:103DE00008B500F037F8092303604FF0FF3008BD35
:103DF00008B500F02FF8092303604FF0FF3008BD2D
:103E000008B548B94FF0FF33012208480068FEF7B3
:103E1000A0FE40B9012008BD00F01CF80923036092
:103E20004FF0FF30F7E70520F5E700BF2C0C00202E
:103E300008B5022804D84FF400534B60002008BD99
:103E400000F008F809230360F8E70000002101F002
:103E500057B900BF014B1868704700BF0C00002025
:103E600070B50D4E0D4D761BB61006D0002455F8DA
:103E7000043B01349847A642F9D1094E094D761BFF
:103E800008F018FAB61006D0002455F8043B0134A7
:103E90009847A642F9D170BD40CE000840CE000838
:103EA00048CE000840CE0008830730B548D0541EE5
:103EB000002A3FD0CAB2034601E0013C3AD303F8DE
:103EC000012B9D07F9D1032C2DD9CDB245EA05254B
:103ED0000F2C45EA054536D9A4F1100222F00F0C4B
:103EE00003F1200EE6444FEA121C03F1100242E9EE
:103EF000045542E9025510327245F8D10CF1010225
:103F000014F00C0F03EB021204F00F0C13D0ACF101
:103F1000040323F003030433134442F8045B934285
:103F2000FBD10CF003042CB1CAB21C4403F8012BE2
:103F30009C42FBD130BD64461346002CF4D1F9E716
:103F400003461446BFE71A46A446E0E70FB400B59F
:103F5000074983B004AB086853F8042B81680193C8
:103F600001F0DCF803B05DF804EB04B0704700BF6B
:103F70000C00002070B5054688B008460C46FDF7D9
:103F80007FF8224EAA6B059001214318CDE9066106
:103F900004A8022104940393AC680190029122B317
:103FA000636E13F0010FB4F90C309AB201D1980589
:103FB00025D5910406D4626E43F4005322F40052D6
:103FC000A3816266284601AA214604F081F9636E46
:103FD000002814BF4FF0FF350A25DA0702D4A38961
:103FE0009B0506D5284608B070BD284603F072FF31
:103FF000D6E7A06D04F034FF284608B070BDA06D70
:1040000004F02CFFB4F90C309AB2D2E754C4000883
:10401000024B01461868FFF7ADBF00BF0C0000203F
:104020002DE9F043694CD4F8008083B004460E4675
:1040300017461D46B8F1000F03D0D8F83830002BD2
:1040400077D0022F05D0012F00F2AC80002DC0F2F6
:10405000A980636EDA0752D52146404603F006FF79
:10406000216B41B104F14003994202D0404604F073
:1040700029F800232363B4F90CC000231CF0800F3F
:10408000A361636064D12CF44A6C2CF0030C022F02
:10409000A4F80CC06AD001AB6A462146404604F041
:1040A00051FFA3891843A081002D2FD0002E2ED0C0
:1040B000D8F83830002B38D0009B2660AB42B4F9DA
:1040C0000C301CBF43F40063A381012F04BF43F0F5
:1040D0000103A3819AB213F00803C4E904652CD04C
:1040E000D1075DD56D42A561656E002315F0010510
:1040F000A36027D00025284603B0BDE8F083A3893C
:104100009B05A9D4A06D04F0A9FEA5E7009D284653
:1041100004F048FF0646002847D0A38943F08003F7
:10412000A381D8F83830002BC6D1404603F0D2FE28
:10413000C2E7404603F0CEFE83E7A360656E15F04C
:104140000105D7D1930524D5284603B0BDE8F083F7
:104150002169404603F0B6FFB4F90CC02CF44A6C58
:104160002CF0030C022FA4F80CC094D100250022DF
:1041700004F14303A2600122C4E904322360636EA8
:104180004CF0020CD807A4F80CC0DDD41CF4007F5E
:10419000DAD1A06D04F064FE284603B0BDE8F083D8
:1041A000A560CBE74FF0FF35CEE7DDF80090A945DD
:1041B00004D0484604F0F6FE064620B9B4F90CC017
:1041C0004FF0FF35D3E74D46A7E700BF0C000020B6
:1041D0002DE9F04F1C46984B1B68A1B00025814685
:1041E0001846884608921C950493FCF749FF002165
:1041F00083460020CDE90601CDF86C804246174683
:1042000012F8013B2D2B2FD8DFE813F0A1002E0070
:104210002E002E002E002E002E002E002E00AF00AD
:10422000AF00AF00AF00AF002E002E002E002E001A
:104230002E002E002E002E002E002E002E002E000E
:104240002E002E002E002E002E002E00AF002E007D
:104250002E002E002E002E002E002E002E002E00EE
:104260002E0006042E00FC0300220A92302B7ED082
:10427000002209922F2B1C4640F233854FF0000A92
:1042800038465646554612E00130082D1B90C8BFEF
:104290000AEB8A0A0478C6BF03EB4A03A3F1300A8B
:1042A000A2F130062F2C05F10105234670DD06EB47
:1042B0008602392C03EB4202E6DD04995A4606F0E9
:1042C00063F90346002835D11B9A11465A441B92C4
:1042D00011F80B40002D40F0AC85302C40F0648587
:1042E000C2F10101531801321B921478302CF9D01D
:1042F000A4F13102082A00F23883A4F1300E1B9C8D
:1043000003F1010B002301252746049306EB8606E3
:104310000EEB46060023621C1B926478A4F1300168
:10432000092900F2ED8201338E46002940F0B8845D
:104330001B9CF0E70023652C04959B469E4601D00C
:10434000452C32D1002D7CD1099A1A4378D1089B93
:1043500013B1089BC3F800804FF0000BCDF810B0EC
:104360000499584621B0BDE8F08F1B9247E77B784F
:1043700003F0DF03582B00F0748401371B973B7860
:10438000302BFAD0002B00F0CC800122099271E78B
:1043900004995A4606F0F8F80346002800F0D68043
:1043A00004954FF0000B5B46DE4600220B92002D79
:1043B00000F09380049A1346002A08BF2B4630462B
:1043C0000493FCF75FF80B460246CDE906230B9BEE
:1043D000102DA3EB0B032C46A8BF1024092D0E9320
:1043E00013DD164B03EBC40353E91223FCF7A2FFC2
:1043F000CDE906015046FCF745F802460B46DDE9DB
:104400000601FBF703FFCDE906010F2D00F3A7809E
:104410000E9B002B00F018840E9B40F39283162B0A
:1044200040F3F9840E9AC5F12503934280F20C857E
:104430000E9B2C1B1C4498E0BCCA000880CB0008D3
:104440000025DDF86C8008F101021B9298F801400C
:104450002B2C00F087822D2C00F0218200220E925E
:10446000A4F13002092A00F21582302C05D11B9AE2
:1044700001321B921478302CFAD0A4F13102082AB0
:1044800093D81B990B914A1C1B92A4F130004C78D5
:104490002F2C09DC00F034BC01321B929CF8014047
:1044A0002F2CA1F1300006DD00EB8001392C944661
:1044B00004EB4101F0DD0B99521A082A40F32084E5
:1044C00044F61F620B920E9A002A3FF470AF0B9ACB
:1044D00052420B92002D7FF46DAF099A134320D105
:1044E000BEF1000F7FF433AF692C00F03B8400F382
:1044F0004183492C00F036844E2C7FF428AFAC4920
:104500001BA804F0ADFB00283FF421AF1B9B1B78D8
:10451000282B00F06D85A74805F0D8FF834604914D
:1045200003E04FF0000BCDF810B0089A0AB11B9BC6
:1045300013600A9B002B3FF413AF049901F1004371
:1045400004930499584621B0BDE8F08F1B9A049556
:1045500002EB0B011B9112F80B409B46DEE60E9B13
:104560002C1B1C44002C40F30A8314F00F000AD0CB
:10457000914901EBC001DDE90623D1E90001FCF717
:10458000D9FECDE9060134F00F0340F08B82002301
:104590000993049A00962B463946484605F0D8F808
:1045A0001390002800F055830B9BABEB03000E9B90
:1045B000002BB4BF024600220F9223EAE3730022CD
:1045C000934612939046139C4846616805F040F864
:1045D0000746002800F0418122690232920004F16E
:1045E0000C010C30FCF70CFEDDE9060104910B46D2
:1045F0001EA901911DA90B9002460091484605F0A5
:1046000053FC1C90002800F018810121484605F059
:1046100047F98046002800F020811D9B002BC0F246
:104620000F810F9A129D9E18099A1E9C9B1A234473
:10463000624A013B9342C4F1360480F2AE80D21A42
:104640001F2AA4EB020400F31D814FF0010A00238E
:104650000AFA02FA0C93099B25443444A6421D44ED
:104660003346A8BF2346AB42A8BF2B46002B02DD32
:10467000E41AED1AF61A0F9B002B00F3BE80002CF3
:1046800000F3D2800E9B002B00F3DE80002D00F3A0
:10469000EF80002E08DD41463246484605F03CFAE0
:1046A0008046002800F0D9801C993A46484605F01B
:1046B000CBFA8346002800F0D0800026C368C6608D
:1046C0004146109305F0A0FAB042C0F2638400F0B6
:1046D000D2834146584605F049FC00224FF0804302
:1046E00004460D46FBF7B2FF00286FD0109B002B4D
:1046F00000F0E180079B1193314B314C0022CDE952
:104700000C2335462F4E119A2F4B02EA060A9A4582
:1047100000F0FC80099B93B1BAF1D46F0FD822A3AB
:10472000D3E9002328462146FBF790FF002840F0FC
:1047300087810D9B03F1D663A3EB0A030D93049EBF
:104740000B98DDE90C233146CDE9042305F022FB6B
:1047500002460B46DDE90401FCF7ECFD33460B9AFB
:10476000FBF754FDCDE906010E46099B23B9154B15
:1047700033409A4500F002811C99484604F08EFFB0
:104780003946484604F08AFF4146484604F086FF11
:104790005946484604F082FF15E700230C934FF07A
:1047A000010A58E7AFF300800000C0FFFFFFDF41C0
:1047B000D4C70008DCC3000880CB000802FCFFFF60
:1047C0000000F03F0000F07F0000E07FAE4B20468D
:1047D00029460022FCF7AEFD109B024605460C461A
:1047E000002B64D101F1004314901593079B1193A2
:1047F000DDE91423CDE90C2384E741461A464846F7
:1048000005F02AF9804640B301461C9A484605F057
:1048100075F810B310901C99484604F03FFF109BA8
:104820001C93002C7FF72EAF1C992246484605F0BA
:1048300073F91C9000287FF425AFBA465E460FE05E
:10484000129A0F9ED51AEFE63946129A484605F09D
:1048500003F9074600287FF419AFBA465E461C9854
:104860002223C9F80030894B04934FF0000BB4E0C9
:1048700039462A46484605F04FF9074600287FF496
:1048800008AFEAE7824A4FF0010AD31A0AFA03F3A3
:104890000C93E0E60022CDF86C800B9287E50122B4
:1048A0000E9208F102021B9298F80240D8E50B46DE
:1048B000CDE914239AE7DDE90612002940F0AF8024
:1048C000C2F313031192002B40F0AF80714B002212
:1048D00020462946FBF7B0FE002840F0AE826A4B26
:1048E000204629460022FCF725FD01F1004305463C
:1048F0000C4618901993DDE91823CDE90C2301E744
:10490000652C4FF0010E3FF49CAD19E5A2F15473F4
:104910000793DDE90623DDE90C01CDE90601104628
:104920001946CDE90C2305F035FA02460B46DDE9C0
:104930000601FCF7FFFCDDE90C23FBF767FC564A98
:104940000E409642CDE9060176D9049A534B9A421D
:1049500002D10B9B013380D0504A4FF0FF33CDE999
:10496000063209E700220E929BE7652C00F0FB80DF
:10497000452C00F0F8804FF0010EAEE528462146A8
:10498000FCF748FFFBF7CAFD0B46024621462846C6
:10499000FBF73AFC109C069DC6F3130644EA050C8F
:1049A0005CEA060304460D4600F0C28032A3D3E958
:1049B0000023FBF741FE48B931A3D3E90023204689
:1049C0002946FBF757FE00283FF4D6AEDDE9063452
:1049D0001C9804945E46BA469B460146484604F03D
:1049E0005DFE5146484604F059FE4146484604F0F3
:1049F00055FE1399484604F051FE3146484604F0EE
:104A00004DFE92E501230A937A1C1B927B78002BC2
:104A10003FF49DAC174629E400230A93F4E7DDE94F
:104A20000612012900F0748111921D4B194C0022CD
:104A3000CDE90C23002565E601F15476079694E64E
:104A400021462846FCF7C6FE012838BF0120FBF7A7
:104A500019FD109B024605460C46002B40F069816B
:104A600001F1004316901793DDE91623CDE90C23DD
:104A70005FE600BFAFF300809535A094FFFFDF3FF6
:104A800035E5AF350000E03F0000E03F0000F07F7B
:104A9000E2FBFFFF0000F03FFFFF9F7CFFFFEF7F87
:104AA0000000F0BFB3F59A7F00F3D380102B4FEADC
:104AB0002314A54B40F3C682DDE90601984609930D
:104AC00000239A4614F0010F0AF1010A4FEA640428
:104AD00004D0D8E90023FCF72DFC0123012C08F1B8
:104AE0000808EFD10BB1CDE90601099B03EBCA0120
:104AF000079BA3F154730793DDE90623D1E9000175
:104B0000FCF718FC914BCDE906010B400A46904991
:104B10008B4200F29E80A1F580118B4240F21C82F4
:104B20008C494FF0FF33CDE906310023099330E57E
:104B300083A3D3E90023FBF77FFD00283FF41CAEDD
:104B400044E71633FFF60BAD0B9BABEB0302824B36
:104B500003EBC203DDE90601D3E90023FCF714FDF2
:104B600083460491E1E40022049293464FF0010E43
:104B7000FFF7EABB6E2C3FF4C2ACFFF7E8BB3FF493
:104B800006AD644214F00F020AD0734B03EBC2036C
:104B9000DDE90601D3E90023FCF7F6FCCDE90601C7
:104BA00024113FF4F4AC1F2C35DC14F01003DDE9C4
:104BB000060118BF6A23DFF8A48109930023E207E6
:104BC00004D5D8E90023FCF7B5FB0123641008F1F4
:104BD0000808F4D10BB1CDE90601099B93B1DDE9D9
:104BE0000601C1F30A52C2F16B03002B0ADD1F2B31
:104BF00040F350820020342B069040F356824FF051
:104C00005C730793DDE9060100220023FBF70AFD30
:104C100000283FF4BEAC22234FF0000BC9F800304F
:104C2000CDF810B081E41E9B06931D9B03F2334226
:104C30001F9B23F4801343EA02530793200742BFCC
:104C4000079B43F000430793DDE906349B46049439
:104C50006BE43E4A04922223C9F800304FF0000B67
:104C600063E40A9B01931CAB029400933C4A1DAB86
:104C70001BA9484603F016FD10F0070504463FF453
:104C800050AC062D40F09380089B0137002B3FF479
:104C900063AB4FF0000B1F60CDF810B0FFF760BBA7
:104CA0006A1C012B1B9C9B44104615D02B4403F11E
:104CB000FF3C03E0460094450DD001322B46082B03
:104CC000154606EB8600F5D9102ADCBF0AEB8A0AE6
:104CD0004FEA4A0AEFE7981C082D5BDC0546FFF710
:104CE00015BB04995A46384605F04EFC002800F0E2
:104CF000888000231D4604939A461E46FFF751BB49
:104D000044F61F629042A8BF10460B90FFF7DBBB32
:104D1000DDE906341194002C7FF487AEBA465E4676
:104D200022234FF0000B1C98C9F80030CDF810B0CA
:104D300053E60B46CDE9162396E600BFAFF300809D
:104D40009535A094FFFFCF3F58CB00080000F07FBF
:104D50000000A07CFFFFEF7F80CB000800C80008A8
:104D6000D8C70008AD491BA803F07AFF00283FF41C
:104D7000EEAA1B9BAA49013B1BA81B9303F070FFE3
:104D800010B91B9B01331B93A64B04934FF0000BF0
:104D9000FFF7CBBB1028DCBF0AEB8A0A01EB4A0AFB
:104DA00005460023FFF7B7BA0023FFF7A1BA1C9A04
:104DB0003AB135211EA805F007F91C99484604F0C0
:104DC0006DFC013D042D3FF639AF01A353F825F0EA
:104DD000274C0008F94D0008F34D0008E54D000888
:104DE000274C00084FF0FF336FF00045CDE9063542
:104DF00024E78C4B079321E71E9B06931F9B079389
:104E00001CE71B9A13465A441B9213F80B400646A4
:104E10008246FFF762BA0E98834901EBC001DDE9D3
:104E20000623D1E90001FCF785FA83460491FFF7D8
:104E30007CBB04958346FFF771BA7C4B7C4C109D7C
:104E40000022CDE9182356E5774CC5F10F0504EB98
:104E5000C501DDE90623D1E90001FCF76BFA0E9BE1
:104E60005D1B04EBC504D4E90023FCF763FA834619
:104E70000491FFF75ABB109B5E46D446BA46DDE963
:104E80000BB7002B6FD0DDE906456A4BC5F3130164
:104E900099422A463CD0002F00F0A380DDE906238A
:104EA0001F421C4621D0109B04995846002B00F04D
:104EB000CD8004F06FFF099D02460B467DB1C4F31F
:104EC0000A54C4F16B04002C09DD240504F17F535E
:104ED000002203F54013FCF72DFA02460B46049915
:104EE0005846FBF793F983460491099B73B10499E3
:104EF000514B58460022FCF71DFA03460B4308BFEE
:104F000022238346049108BFC9F800301C9864E549
:104F1000099B0699002B00F0C580424B2B40B3F152
:104F2000D46F00F2BF801B0DC3F16B034FF0FF3055
:104F300000FA03F39942AED1404B9A4200F0D88078
:104F4000384B134003F58013079300230693DDE9E4
:104F500006349B460494C8E702F154730793002378
:104F60000993FFF716BBDDE90612C2F313030B43E7
:104F7000144690D1099B002B40F0AF80294B234071
:104F8000A3F580136FEA13536FEA035307934FF0AF
:104F9000FF33DBE7DDE90612109B0B4358465E4604
:104FA000BA46DDF82CB0A0D1C2F313031446002B8F
:104FB0009BD122F000431B0D1B05B3F1D66F94D992
:104FC000436913B90369012B8FDD3146012248463D
:104FD00004F0A2FD4146064604F016FE002884DDDA
:104FE000C8E7DDE906341CEA030F3FF47EAF5AE759
:104FF00013491BA81EAA03F04DFE05287FF48BAAB7
:105000001F9B43F0FF4343F4E00307931E9B06936B
:10501000DDE906349B460494FFF787BAC8C7000849
:10502000CCC700080000F07F80CB00080000E0BF84
:105030000000E03FFFFF0F0000005039FFFFEF7F4F
:10504000ECC7000809934FF0000A4EE504F0A2FEF9
:10505000099D02460B4695B3C4F30A54C4F16B0490
:10506000002C09DD240504F17F53109A03F5401349
:10507000FCF760F902460B4604995846FBF7C4F862
:105080000022002383460491FBF7CCFA00283FF46A
:105090002EAF45E64FF0FF3202FA03F3069A1A40AC
:1050A0000692AFE54FF0FF3344E74FF0FF33C2F114
:1050B0004B0203FA02F202EA01030793A2E5049904
:1050C0005846FBF7A1F80022002383460491FBF722
:1050D000A9FA00283FF41AAF22E6084B2340B3F1A7
:1050E000D66F3FF74DAFB3F15C7F3FF700AF17E6E8
:1050F00001317FF425AFFFF7B2BB00BF0000F07FA6
:1051000010B4044C044B84460A46206810BC614627
:10511000FFF75EB80C000020400400202DE9F04F9E
:10512000D5B01C46079191460546099003F08EFEC6
:105130000268179210460E94FBF7A2FF16901DB15D
:10514000AB6B002B00F02A82079A536EDD0740F10B
:105150003881B2F90C2091B28F0409D4079B42F434
:1051600000529A8191B21A465B6E23F40053536643
:105170000E0740F1CB80079B1B69002B00F0C68017
:1051800001F01A030A2B00F0CF8000242BAB4D4610
:10519000CDE92944CDE91944CDE91B441294289363
:1051A0009846189400230B940024CDE914342B78EE
:1051B000002B00F09D81AA4604E01AF8013F002B65
:1051C00000F0C780252BF8D1BAEB050640F0C5806A
:1051D0009AF80030002B00F08B8100234FF0FF3253
:1051E0009AF801608DF883300A930AF1010A089257
:1051F0001F462B244FF020090AF1010AA6F12003D3
:105200005A2B00F2ED80DFE813F0EB02EB00EB002D
:10521000E602EB00EB00EB006A00EB00EB005C0247
:105220008002EB0067028A02EB0085025B005B00F4
:105230005B005B005B005B005B005B005B00EB0006
:10524000EB00EB00EB00EB00EB00EB007A01EB0076
:10525000F801D2017A017A017A01EB00EB00EB0050
:10526000EB00E102EB00EB002D02EB00EB00EB00AA
:105270000202EB00A402EB00EB008307EB00EB0063
:10528000EB00EB00EB00EB00EB00EB007A01EB0036
:10529000F801D4017A017A017A01C702D401CD0163
:1052A000EB00D402EB006C022F02B502CD01EB0043
:1052B00002027E008007EB00EB006107EB007E003E
:1052C000A6F1300300221AF8016B02EB820203EB15
:1052D0004202A6F13003092BF5D90A928EE7DDF8D8
:1052E00024B0584603F0B2FD43681B931846FBF701
:1052F000C7FE1C900646584603F0A8FD8368199324
:10530000002E40F0CD869AF8006075E7079D099859
:10531000294601F0ADFC002841F01C83A98901F069
:105320001A030A2B7FF431AF079AB2F90E30002B23
:10533000FFF62BAF536ED80702D4890541F13B81AC
:105340000799099823464A4655B0BDE8F04F01F049
:105350004FBCBAEB050600F0CB802A9B33442A935E
:10536000299B0133072BC8E90056299305DC08F176
:1053700008080B9B33440B932AE70799099828AA3E
:1053800005F0B0F980B90DF1AC08F2E7079909987A
:1053900028AA05F0A7F9002800F09B800D9B1BB1FF
:1053A0000998194602F08EFE079A536ED90740F10C
:1053B000EA8093895B0601F1D9820B9855B0BDE86C
:1053C000F08F079BB3F90C20900591B23FF5C4AE66
:1053D0001D46986D03F042FDB5F90C2091B2BBE675
:1053E000002E00F0858000228DF8EC608DF883207F
:1053F0000123CDE90C32069308920F92139210927A
:105400003BAD17F0020302D006990231069117F066
:10541000840B07D10A990698A1EB0009B9F1000F96
:1054200000F370832A9C8AB1299A0DF1830101321D
:105430000134C8F80010072A4FF001012A9429927C
:10544000C8F8041000F3B68308F1080883B1299B5B
:1054500021AA01330234C8F80020072B4FF00202C2
:105460002A942993C8F8042000F3B28308F10808AD
:10547000BBF1800F00F06982089B0C9AA3EB020B32
:10548000BBF1000F00F3AA82FB0500F100820C9B28
:10549000C8F804301C44299BC8F800500133072B7E
:1054A0002A94299300F3228308F10808780705D588
:1054B0000A9B069A9D1A002D00F39683DDE90A23C4
:1054C00006998A42ACBF9B185B180B93002C7FF4A3
:1054D0005DAF002329930D9B1BB10D99099802F034
:1054E000F1FD0DF1AC0855462B78002B7FF463AE2F
:1054F0002A9B002B41F0D3810023299354E70E9B74
:10550000073323F00702F2E80234CDE91434DDE971
:10551000143424F000440E92994618462146B54BA7
:105520004FF0FF32FCF718F9002840F0EF84B14B40
:10553000484621464FF0FF32FBF788F8002840F03C
:10554000E584DDE9140100220023FBF775F800284B
:1055500040F067879DF88320A74DA84B27F0800770
:105560000321472EC8BF1D4600230D9306910C91C1
:1055700008930F9313931093002A3FF442AF069BB6
:10558000013306933DE7079B9B899A053FF512AFD0
:10559000079CA06D03F064FCA3890BE7099802F057
:1055A00099FCD1E59AF8006047F0200724E647F01F
:1055B0001007BA060E9B40F13B84073323F0070324
:1055C0001A465B6852F8084B0E929946002BC0F2BF
:1055D0004C84089B013300F0D88254EA090327F079
:1055E000800B40F0D382089B002B40F0D4825F46B2
:1055F000002308930C9354AD1DE10E9B002253F839
:10560000041B8DF883208DF8EC100E93F0E60E9CB1
:10561000089B54F8045B4FF000098DF88390002D2F
:1056200000F093855A1C00F051861A4649462846D8
:10563000FBF796FD0D90002801F00E810D9BCDF833
:1056400020905B1B0C930E9423EAE3739DF8832058
:105650000693CDF83490CDF83C90CDF84C90CDF831
:10566000409089E747F0100717F0200900F0D28337
:105670000E9B073323F00703D3F8049053F8084B2D
:105680000E9327F4806B002300228DF88320089A64
:10569000511C00F0B88054EA09012BF0800740F05B
:1056A000B180002A40F0F685002BA1D11BF0010348
:1056B0000C9300F0148430238DF84F310DF24F1508
:1056C000B9E00E9B53F8042B0A92002A80F2DA8389
:1056D0000A9A0E9352420A929AF8006047F0040721
:1056E0008AE5BD0600F1D184FC0600F1D885780674
:1056F00000F1A586B90540F1D2850E9B0B9953F8B0
:10570000042B0E9311705546EEE69AF800608DF862
:10571000834071E59AF8006047F080076CE55246D7
:1057200012F8016B2A2E01F03F82A6F13003092BFB
:10573000924698BF002201F2BC801AF8016B02EB7E
:10574000820203EB4202A6F13003092BF5D908923D
:1057500054E547F0100B1BF0200900F076830E9BF8
:10576000073323F00703D3F8049053F8084B0E9344
:10577000012389E70E9B53F8044B0E9330237826C0
:105780008DF884301E4B189347F0020B8DF885601E
:105790004FF00009022377E79AF80060682E03BFF4
:1057A0009AF8016047F400770AF1010A47F04007D0
:1057B00022E59AF800606C2E03BF9AF8016047F06A
:1057C00020070AF1010A47F0100715E59AF8006072
:1057D00047F0080710E59AF8006047F001070BE56D
:1057E0009DF88330002B7FF48EAD9AF800608DF821
:1057F000839001E5FFFFEF7F28C800082CC8000850
:1058000038C80008BB46012B00F0C081022B54AD04
:1058100020D1189A04F00F032409D35C05F8013D48
:1058200044EA09744FEA191954EA0903F2D154AB56
:105830005B1B5F460C9308990C989DF8832081426E
:105840004FF00003B8BF01460D9306910F931393D9
:10585000109391E604F00703E40844EA49744FEA20
:10586000D909303354EA09012A4605F8013DF1D13E
:105870001BF0010FDBD0302BD9D03023023A05F8D2
:10588000013C54AB9B1A5F460C931546D3E7652E3B
:1058900040F3E680DDE9140100220023FAF7C2FE9E
:1058A000002800F0DC81299BBF4AC8F800200133A2
:1058B00001340122072B2A942993C8F8042000F30D
:1058C000CC8408F10808229B129A934280F2D68277
:1058D000169B179A1C44C8E90023299B2A9401337C
:1058E000072B299300F3248408F10808129B5D1EFE
:1058F000002D7FF7DBAD102D299BDFF8B09240F330
:10590000BD8449462246B946DDF824B0079C1026DE
:105910000F4605E008F10808103D102D40F3AA8459
:1059200001331032072BC8E90076CDE92932F1DDC9
:1059300028AA2146584604F0D5FE00287FF42EAD53
:10594000DDE929320DF1AC08E6E70A9B069AA3EBE4
:10595000020BBBF1000F7FF78FADBBF1100F299A3F
:10596000DFF848922CDD1D9621464E46079CDDF857
:105970002490102306E0ABF1100BBBF1100F08F1DF
:1059800008081ADD01321031072AC8E90063CDE9A1
:105990002921F0DD28AA214648460DF1AC0804F083
:1059A000A1FE00287FF4FAACABF1100BBBF1100F95
:1059B000DDE929214FF01003E4DCB1461D9E0C46C1
:1059C00001325C44072ACDE92924C8F80090C8F8C0
:1059D00004B000F3A08308F108084DE5BBF1100FF7
:1059E000299ADFF8C8912DDD41462046A8464C464D
:1059F000079DDDF82490102306E0ABF1100BBBF1FE
:105A0000100F01F1080119DD01321030072AC1E938
:105A10000043CDE92920F0DD28AA2946484604F0B4
:105A200061FE00287FF4BAACABF1100BBBF1100F94
:105A3000DDE929202BA94FF01003E5DC4546A146FE
:105A40008846044601325C44072ACDE92924C8F877
:105A50000090C8F804B000F3D08108F1080813E5FD
:105A6000129B012B40F38081299EC8F8005001361B
:105A700001340123072E2A942996C8F8043000F334
:105A80007C8308F10808169B179A01361C44072EE0
:105A9000C8E90023CDE9296400F37C8308F10808F4
:105AA000DDE9140100220023FAF7BCFD002840F0D4
:105AB0007881129B0136013B01351C44072EC8F842
:105AC00000502996C8F804302A9400F35D8108F14B
:105AD00008081A9BC8F8043001361C44072E24AB72
:105AE000CDE92964C8F800307FF7DEAC0799099842
:105AF00028AA04F0F7FD00287FF450AC2A9C0DF191
:105B0000AC08D3E4B9F1100FDDE929212BDDCDE993
