:020000040800F2
:10000000000002200D1C0008391A00083B1A0008E5
:100010003D1A00083F1A0008411A000800000000BD
:10002000000000000000000000000000431A00086B
:10003000451A000800000000471A0008491A000885
:100040005D1C00085D1C00085D1C00085D1C0008AC
:100050005D1C00085D1C00085D1C00085D1C00089C
:100060005D1C00085D1C00085D1C00085D1C00088C
:100070005D1C00085D1C00085D1C00085D1C00087C
:100080005D1C00085D1C00085D1C00085D1C00086C
:100090005D1C00085D1C00085D1C00085D1C00085C
:1000A0005D1C00085D1C00085D1C00085D1C00084C
:1000B0005D1C00085D1C00085D1C00085D1C00083C
:1000C0005D1C00085D1C00085D1C00085D1C00082C
:1000D0005D1C00085D1C0008511A00085D1C00082A
:1000E0005D1C00085D1C00085D1C00085D1C00080C
:1000F0005D1C00085D1C00085D1C00085D1C0008FC
:100100005D1C00085D1C00085D1C00085D1C0008EB
:100110005D1C00085D1C00085D1C00085D1C0008DB
:100120005D1C00085D1C00085D1C00085D1C0008CB
:100130005D1C000800000000000000005D1C0008BD
:100140005D1C00085D1C00085D1C00085D1C0008AB
:100150005D1C00085D1C00085D1C00085D1C00089B
:100160005D1C00085D1C00085D1C00085D1C00088B
:100170005D1C00085D1C000800000000000000007D
:080180005D1C00085D1C000875
:1001C00010B5054C237833B9044B13B10448AFF391
:1001D00000800123237010BDB8090020000000003A
:1001E00024A6000808B5034B1BB103490348AFF32D
:1001F000008008BD00000000BC09002024A6000803
:1002000081F0004102E000BF83F0004330B54FEAC7
:1002100041044FEA430594EA050F08BF90EA020F34
:100220001FBF54EA000C55EA020C7FEA645C7FEAC7
:10023000655C00F0E2804FEA5454D4EB5555B8BFEA
:100240006D420CDD2C4480EA020281EA030382EA5B
:10025000000083EA010180EA020281EA0303362DED
:1002600088BF30BD11F0004F4FEA01314FF4801CC0
:100270004CEA113102D0404261EB410113F0004FD2
:100280004FEA03334CEA133302D0524263EB430389
:1002900094EA050F00F0A780A4F10104D5F1200E27
:1002A0000DDB02FA0EFC22FA05F2801841F1000182
:1002B00003FA0EF2801843FA05F359410EE0A5F156
:1002C00020050EF1200E012A03FA0EFC28BF4CF087
:1002D000020C43FA05F3C01851EBE37101F000453D
:1002E00007D54FF0000EDCF1000C7EEB00006EEB4A
:1002F0000101B1F5801F1BD3B1F5001F0CD34908D4
:100300005FEA30004FEA3C0C04F101044FEA44522A
:1003100012F5800F80F09A80BCF1004F08BF5FEAB1
:10032000500C50F1000041EB045141EA050130BD91
:100330005FEA4C0C404141EB0101013C28BFB1F5A3
:10034000801FE9D291F0000F04BF01460020B1FAEE
:1003500081F308BF2033A3F10B03B3F120020CDAC1
:100360000C3208DD02F1140CC2F10C0201FA0CF09F
:1003700021FA02F10CE002F11402D8BFC2F1200C04
:1003800001FA02F120FA0CFCDCBF41EA0C019040BA
:10039000E41AA2BF01EB0451294330BD6FEA040403
:1003A0001F3C1CDA0C340EDC04F11404C4F12002EE
:1003B00020FA04F001FA02F340EA030021FA04F300
:1003C00045EA030130BDC4F10C04C4F1200220FA57
:1003D00002F001FA04F340EA0300294630BD21FA95
:1003E00004F0294630BD94F0000F83F4801306BF5B
:1003F00081F480110134013D4EE77FEA645C18BF4F
:100400007FEA655C29D094EA050F08BF90EA020FE5
:1004100005D054EA000C04BF1946104630BD91EADD
:10042000030F1EBF0021002030BD5FEA545C05D1E0
:100430004000494128BF41F0004130BD14F580041F
:100440003CBF01F5801130BD01F0004545F0FE4193
:1004500041F470014FF0000030BD7FEA645C1ABFC8
:10046000194610467FEA655C1CBF0B46024650EAFF
:10047000013406BF52EA033591EA030F41F400212B
:1004800030BD00BF90F0000F04BF0021704730B5B1
:100490004FF4806404F132044FF000054FF0000186
:1004A00050E700BF90F0000F04BF0021704730B547
:1004B0004FF4806404F1320410F0004548BF40421C
:1004C0004FF000013EE700BF42004FEAE2014FEA71
:1004D00031014FEA02701FBF12F07F4393F07F4F4C
:1004E00081F06051704732F07F4208BF704793F04F
:1004F0007F4F04BF41F40021704730B54FF4607462
:1005000001F0004521F000411CE700BF50EA010264
:1005100008BF704730B54FF000050AE050EA01020D
:1005200008BF704730B511F0004502D5404261EB7D
:1005300041014FF4806404F132045FEA915C3FF4BE
:10054000D8AE4FF003025FEADC0C18BF03325FEA5B
:10055000DC0C18BF033202EBDC02C2F1200300FA0C
:1005600003FC20FA02F001FA03FE40EA0E0021FA31
:1005700002F11444BDE600BF4FF0FF3C06E000BFAF
:100580004FF0010C02E000BF4FF0010C4DF804CD1C
:100590004FEA410C7FEA6C5C4FEA430C18BF7FEADC
:1005A0006C5C1BD001B050EA410C0CBF52EA430C0A
:1005B00091EA030F02BF90EA020F0020704710F18A
:1005C000000F91EA030F58BF994208BF90422CBF19
:1005D000D8176FEAE37040F0010070474FEA410C12
:1005E0007FEA6C5C02D150EA013C07D14FEA430C30
:1005F0007FEA6C5CD6D152EA033CD3D05DF8040BA1
:10060000704700BF8446104662468C4619466346D2
:1006100000E000BF01B5FFF7B7FF002848BF10F1A9
:10062000000F01BD4DF808EDFFF7F4FF0CBF0120EE
:1006300000205DF808FB00BF4DF808EDFFF7EAFF6A
:1006400034BF012000205DF808FB00BF4DF808ED25
:10065000FFF7E0FF94BF012000205DF808FB00BF1A
:100660004DF808EDFFF7CEFF94BF012000205DF8A4
:1006700008FB00BF4DF808EDFFF7C4FF34BF0120B1
:1006800000205DF808FB00BF4FEA4102B2F1E043F1
:1006900024BFB3F5001CDCF1FE5C0DD901F0004C69
:1006A0004FEAC0024CEA5070B2F1004F40EB8300B9
:1006B00008BF20F00100704711F0804F21D113F1E5
:1006C0003872BCBF01F00040704741F480114FEA1E
:1006D0005252C2F11802C2F1200C10FA0CF320FAA7
:1006E00002F018BF40F001004FEAC1234FEAD323C4
:1006F00003FA0CFC40EA0C0023FA02F34FEA43032E
:10070000CCE77FEA625307D150EA01331EBF4FF0B6
:10071000FE4040F44000704701F0004040F0FE40D1
:1007200040F40000704700BF80F0004002E000BFCE
:1007300081F0004142001FBF5FEA410392EA030FCC
:100740007FEA226C7FEA236C6AD04FEA1262D2EB16
:100750001363C1BFD218414048404140B8BF5B421B
:10076000192B88BF704710F0004F40F4000020F0B4
:100770007F4018BF404211F0004F41F4000121F0CA
:100780007F4118BF494292EA030F3FD0A2F1010214
:1007900041FA03FC10EB0C00C3F1200301FA03F152
:1007A00000F0004302D5494260EB4000B0F5000F75
:1007B00013D3B0F1807F06D340084FEA310102F134
:1007C0000102FE2A51D2B1F1004F40EBC25008BFE6
:1007D00020F0010040EA03007047490040EB0000B0
:1007E000013A28BFB0F5000FEDD2B0FA80FCACF1B1
:1007F000080CB2EB0C0200FA0CF0AABF00EBC250DE
:1008000052421843BCBFD0401843704792F0000FCB
:1008100081F4000106BF80F400000132013BB5E71E
:100820004FEA41037FEA226C18BF7FEA236C21D094
:1008300092EA030F04D092F0000F08BF08467047F9
:1008400090EA010F1CBF0020704712F07F4F04D1C7
:10085000400028BF40F00040704712F100723CBFDA
:1008600000F50000704700F0004343F0FE4040F404
:10087000000070477FEA226216BF08467FEA2363C2
:100880000146420206BF5FEA412390EA010F40F4AD
:10089000800070474FF0000304E000BF10F00043F9
:1008A00048BF40425FEA000C08BF704743F09643E0
:1008B00001464FF000001CE050EA010208BF7047FB
:1008C0004FF000030AE000BF50EA010208BF704782
:1008D00011F0004302D5404261EB41015FEA010C97
:1008E00002BF84460146002043F0B64308BFA3F18F
:1008F0008053A3F50003BCFA8CF2083AA3EBC25371
:1009000010DB01FA02FC634400FA02FCC2F120028F
:10091000BCF1004F20FA02F243EB020008BF20F0C6
:100920000100704702F1200201FA02FCC2F120022C
:1009300050EA4C0021FA02F243EB020008BF20EA21
:10094000DC7070474FF0FF0C1CEAD0521EBF1CEA4F
:10095000D15392EA0C0F93EA0C0F6FD01A4480EA3D
:10096000010C400218BF5FEA41211ED04FF0006326
:1009700043EA501043EA5111A0FB01310CF0004052
:10098000B1F5000F3EBF490041EAD3715B0040EA78
:10099000010062F17F02FD2A1DD8B3F1004F40EB48
:1009A000C25008BF20F00100704790F0000F0CF01B
:1009B000004C08BF49024CEA502040EA51207F3ADF
:1009C000C2BFD2F1FF0340EAC250704740F40000BA
:1009D0004FF00003013A5DDC12F1190FDCBF00F0AB
:1009E00000407047C2F10002410021FA02F1C2F159
:1009F000200200FA02FC5FEA310040F1000053EAF5
:100A00004C0308BF20EADC70704792F0000F00F042
:100A1000004C02BF400010F4000F013AF9D040EA48
:100A20000C0093F0000F01F0004C02BF490011F4DC
:100A3000000F013BF9D041EA0C018FE70CEAD153DA
:100A400092EA0C0F18BF93EA0C0F0AD030F0004C5A
:100A500018BF31F0004CD8D180EA010000F000400E
:100A6000704790F0000F17BF90F0004F084691F0CC
:100A7000000F91F0004F14D092EA0C0F01D1420206
:100A80000FD193EA0C0F03D14B0218BF084608D1CF
:100A900080EA010000F0004040F0FE4040F4000019
:100AA000704740F0FE4040F4400070474FF0FF0CAC
:100AB0001CEAD0521EBF1CEAD15392EA0C0F93EAF3
:100AC0000C0F69D0A2EB030280EA010C49024FEA45
:100AD000402037D04FF0805343EA111143EA1013FE
:100AE0000CF000408B4238BF5B0042F17D024FF4B6
:100AF000000C8B4224BF5B1A40EA0C00B3EB510F91
:100B000024BFA3EB510340EA5C00B3EB910F24BF79
:100B1000A3EB910340EA9C00B3EBD10F24BFA3EBFE
:100B2000D10340EADC001B0118BF5FEA1C1CE0D1C6
:100B3000FD2A3FF650AF8B4240EBC25008BF20F079
:100B4000010070470CF0004C4CEA50207F32C2BFCD
:100B5000D2F1FF0340EAC250704740F400004FF06A
:100B60000003013A37E792F0000F00F0004C02BF9B
:100B7000400010F4000F013AF9D040EA0C0093F065
:100B8000000F01F0004C02BF490011F4000F013BBF
:100B9000F9D041EA0C0195E70CEAD15392EA0C0F27
:100BA00008D142027FF47DAF93EA0C0F7FF470AF5F
:100BB000084676E793EA0C0F04D14B023FF44CAFA2
:100BC00008466EE730F0004C18BF31F0004CCAD137
:100BD00030F000427FF45CAF31F000437FF43CAF73
:100BE0005FE700BF4FF0FF3C06E000BF4FF0010C95
:100BF00002E000BF4FF0010C4DF804CD4FEA400277
:100C00004FEA41037FEA226C18BF7FEA236C11D0C0
:100C100001B052EA530C18BF90EA010F58BFB2EB73
:100C2000030088BFC81738BF6FEAE17018BF40F0F3
:100C3000010070477FEA226C02D15FEA402C05D1A7
:100C40007FEA236CE4D15FEA412CE1D05DF8040B2C
:100C5000704700BF844608466146FFE70FB5FFF7BF
:100C6000C9FF002848BF10F1000F0FBD4DF808ED77
:100C7000FFF7F4FF0CBF012000205DF808FB00BF68
:100C80004DF808EDFFF7EAFF34BF012000205DF8C2
:100C900008FB00BF4DF808EDFFF7E0FF94BF01200F
:100CA00000205DF808FB00BF4DF808EDFFF7D2FF0C
:100CB00094BF012000205DF808FB00BF4DF808ED4F
:100CC000FFF7C8FF34BF012000205DF808FB00BF1C
:100CD0004FEA4002B2F1FE4F0FD34FF09E03B3EB49
:100CE00012620DD94FEA002343F0004310F0004F89
:100CF00023FA02F018BF404270474FF000007047DF
:100D000012F1610F01D1420205D110F0004008BF7D
:100D10006FF0004070474FF00000704742000ED265
:100D2000B2F1FE4F0BD34FF09E03B3EB126209D426
:100D30004FEA002343F0004323FA02F070474FF0DC
:100D40000000704712F1610F01D1420202D14FF051
:100D5000FF3070474FF00000704700BF53B94AB9E9
:100D6000002908BF00281CBF4FF0FF314FF0FF30B3
:100D700000F074B9ADF1080C6DE904CE00F006F88E
:100D8000DDF804E0DDE9022304B070472DE9F04707
:100D9000089E0D4604468846002B4DD18A42944653
:100DA00068D9B2FA82F252B101FA02F3C2F120011B
:100DB00020FA01F10CFA02FC41EA030894404FEAE0
:100DC0001C45210CB8FBF5FE1FFA8CF705FB1E83B2
:100DD00041EA03430EFB07F199420BD91CEB0303D5
:100DE0000EF1FF3080F01E81994240F21B81AEF17E
:100DF000020E63445B1AA4B2B3FBF5F005FB10339B
:100E000044EA034400FB07F7A7420AD91CEB040499
:100E100000F1FF3380F00881A74240F2058164446D
:100E20000238E41B40EA0E4000211EB1D4400023EA
:100E3000C6E90043BDE8F0878B4208D9002E00F0D8
:100E4000EE800021C6E900050846BDE8F087B3FA48
:100E500083F100294AD1AB4202D3824200F2F980E9
:100E6000841A65EB030301209846002EE2D0C6E900
:100E70000048DFE702B9FFDEB2FA82F2002A40F052
:100E80009180A1EB0C054FEA1C471FFA8CFE012153
:100E9000B5FBF7F307FB1350250C45EA00450EFBA5
:100EA00003F0A84208D91CEB050503F1FF3802D274
:100EB000A84200F2CB8043462D1AA4B2B5FBF7F04E
:100EC00007FB105544EA05440EFB00FEA64508D971
:100ED0001CEB040400F1FF3502D2A64500F2BB80F2
:100EE0002846A4EB0E0440EA03409EE7C1F1200728
:100EF0008B4022FA07FC4CEA030C20FA07F405FAAF
:100F000001F31C43FD404FEA1C4900FA01F3B5FB15
:100F1000F9F8200C1FFA8CFE09FB185540EA05452C
:100F200008FB0EF0A84202FA01F20BD91CEB0505F2
:100F300008F1FF3A80F08880A84240F28580A8F14D
:100F4000020865442D1AA4B2B5FBF9F009FB10554F
:100F500044EA054500FB0EFEAE4508D91CEB05052D
:100F600000F1FF346CD2AE456AD90238654440EADC
:100F70000840A0FB0294A5EB0E05A542C846A64674
:100F800056D353D05EB1B3EB080265EB0E0505FAFC
:100F900007F722FA01F3CD401F43C6E9007500218F
:100FA000BDE8F087C2F1200320FA03F10CFA02FC3D
:100FB00025FA03F395400D434FEA1C471FFA8CFEB8
:100FC000B3FBF7F107FB11302B0C43EA004301FBA5
:100FD0000EF0984204FA02F408D91CEB030301F165
:100FE000FF382FD298422DD9023963441B1AADB273
:100FF000B3FBF7F007FB103345EA034500FB0EF3A4
:10100000AB4208D91CEB050500F1FF3816D2AB4204
:1010100014D902386544ED1A40EA014138E73146F7
:10102000304607E78646E5E61846FAE64B45A9D27C
:10103000B9EB020864EB0C0E0138A3E74046EAE77F
:10104000204694E74146D1E7D0467BE7023B654422
:1010500032E7084609E76444023842E7704700BFB8
:101060000000000000000000000000000000000080
:101070000000000000000000000000000000000070
:1010800090F800F06DE9024520F007016FF0000CC8
:1010900010F0070491F820F040F049804FF0000470
:1010A0006FF00700D1E9002391F840F000F108004B
:1010B00082FA4CF2A4FA8CF283FA4CF3A2FA8CF383
:1010C0004BBBD1E9022382FA4CF200F10800A4FAEA
:1010D0008CF283FA4CF3A2FA8CF3E3B9D1E904233E
:1010E00082FA4CF200F10800A4FA8CF283FA4CF375
:1010F000A2FA8CF37BB9D1E9062301F1200182FA2F
:101100004CF200F10800A4FA8CF283FA4CF3A2FA34
:101110008CF3002BC6D0002A04BF04301A4612BA42
:10112000B2FA82F2FDE8024500EBD2007047D1E945
:10113000002304F00305C4F100004FEAC50514F0D4
:10114000040F91F840F00CFA05F562EA05021CBFA5
:1011500063EA050362464FF00004A9E700000000BF
:1011600001F0FF01102A2BDB10F0070F08D010F858
:10117000013B013A8B422DD010F0070F42B3F6D15C
:10118000F0B441EA012141EA014122F007047FF075
:1011900000070023F0E80256083C85EA010586EACC
:1011A000010685FA47F5A3FA87F586FA47F6A5FA08
:1011B00087F68EB9EED1F0BC01F0FF0102F0070214
:1011C00032B110F8013B013A83EA010313B1F8D1BF
:1011D0000020704701387047002D06BF35460338A0
:1011E000073815F0010F07D1013015F4807F02BFD9
:1011F000013015F4C03F0130F0BC0138704700BF2A
:10120000844641EA000313F003036DD1403A41D311
:1012100051F8043B40F8043B51F8043B40F8043BD0
:1012200051F8043B40F8043B51F8043B40F8043BC0
:1012300051F8043B40F8043B51F8043B40F8043BB0
:1012400051F8043B40F8043B51F8043B40F8043BA0
:1012500051F8043B40F8043B51F8043B40F8043B90
:1012600051F8043B40F8043B51F8043B40F8043B80
:1012700051F8043B40F8043B51F8043B40F8043B70
:1012800051F8043B40F8043B51F8043B40F8043B60
:10129000403ABDD2303211D351F8043B40F8043B00
:1012A00051F8043B40F8043B51F8043B40F8043B40
:1012B00051F8043B40F8043B103AEDD20C3205D310
:1012C00051F8043B40F8043B043AF9D2043208D008
:1012D000D2071CBF11F8013B00F8013B01D30B887A
:1012E00003806046704700BF082A13D38B078DD058
:1012F00010F003038AD0C3F10403D21ADB071CBF2A
:1013000011F8013B00F8013B80D331F8023B20F893
:10131000023B7BE7043AD9D3013A11F8013B00F8CC
:10132000013BF9D20B7803704B7843708B78837054
:101330006046704770B54FF0FF0C4CF4E06C1CEA4F
:1013400011541DBF1CEA135594EA0C0F95EA0C0FBB
:1013500000F0DEF82C4481EA030621EA4C5123EA2E
:101360004C5350EA013518BF52EA033541F480115D
:1013700043F4801338D0A0FB02CE4FF00005E1FB10
:1013800002E506F00042E0FB03E54FF00006E1FB5A
:1013900003569CF0000F18BF4EF0010EA4F1FF049D
:1013A000B6F5007F64F5407404D25FEA4E0E6D41DD
:1013B00046EB060642EAC62141EA55514FEAC520EE
:1013C00040EA5E504FEACE2EB4F1FD0C88BFBCF56A
:1013D000E06F1ED8BEF1004F08BF5FEA500E50F11B
:1013E000000041EB045170BD06F0004646EA0101E1
:1013F00040EA020081EA0301B4EB5C04C2BFD4EB13
:101400000C0541EA045170BD41F480114FF0000E0B
:10141000013C00F3AB8014F1360FDEBF002001F079
:10142000004170BDC4F10004203C35DA0C341BDCF3
:1014300004F11404C4F1200500FA05F320FA04F0C5
:1014400001FA05F240EA020001F0004221F00041F9
:1014500010EBD37021FA04F642EB06015EEA430E6C
:1014600008BF20EAD37070BDC4F10C04C4F120059C
:1014700000FA04F320FA05F001FA04F240EA02004F
:1014800001F0004110EBD37041F100015EEA430E20
:1014900008BF20EAD37070BDC4F1200500FA05F240
:1014A0004EEA020E20FA04F301FA05F243EA0203BF
:1014B00021FA04F001F0004121FA04F220EA0200CE
:1014C00000EBD3705EEA430E08BF20EAD37070BD14
:1014D00094F0000F0FD101F00046400041EB0101F4
:1014E00011F4801F08BF013CF7D041EA060195F0D6
:1014F000000F18BF704703F00046520043EB030390
:1015000013F4801F08BF013DF7D043EA060370477C
:1015100094EA0C0F0CEA135518BF95EA0C0F0CD087
:1015200050EA410618BF52EA4306D1D181EA0301CD
:1015300001F000414FF0000070BD50EA410606BFC7
:101540001046194652EA430619D094EA0C0F02D10C
:1015500050EA013613D195EA0C0F05D152EA033651
:101560001CBF104619460AD181EA030101F000416F
:1015700041F0FE4141F470014FF0000070BD41F0B8
:10158000FE4141F4780170BD70B54FF0FF0C4CF492
:10159000E06C1CEA11541DBF1CEA135594EA0C0FB1
:1015A00095EA0C0F00F0A7F8A4EB050481EA030EFE
:1015B00052EA03354FEA013100F088804FEA0333E5
:1015C0004FF0805545EA131343EA12634FEA0222B3
:1015D00045EA111545EA10654FEA00260EF0004174
:1015E0009D4208BF964244F1FD0404F5407402D2C6
:1015F0005B084FEA3202B61A65EB03055B084FEA57
:1016000032024FF480104FF4002CB6EB020E75EB53
:10161000030E22BFB61A754640EA0C005B084FEA7B
:101620003202B6EB020E75EB030E22BFB61A7546F8
:1016300040EA5C005B084FEA3202B6EB020E75EB43
:10164000030E22BFB61A754640EA9C005B084FEABB
:101650003202B6EB020E75EB030E22BFB61A7546C8
:1016600040EADC0055EA060E18D04FEA051545EAB7
:1016700016754FEA06164FEAC30343EA52734FEA60
:10168000C2025FEA1C1CC0D111F4801F0BD141EAD9
:1016900000014FF000004FF0004CB6E711F4801F3E
:1016A00004BF01430020B4F1FD0C88BFBCF5E06F1E
:1016B0003FF6AFAEB5EB030C04BFB6EB020C5FEA2E
:1016C000500C50F1000041EB045170BD0EF0004E83
:1016D0004EEA113114EB5C04C2BFD4EB0C0541EAB5
:1016E000045170BD41F480114FF0000E013C90E6B2
:1016F00045EA060E8DE60CEA135594EA0C0F08BF76
:1017000095EA0C0F3FF43BAF94EA0C0F0AD150EA74
:1017100001347FF434AF95EA0C0F7FF425AF104607
:1017200019462CE795EA0C0F06D152EA03353FF42F
:10173000FDAE1046194622E750EA410618BF52EAAC
:1017400043067FF4C5AE50EA41047FF40DAF52EA80
:1017500043057FF4EBAE12E74FEA410C7FEA6C5C85
:1017600002D150EA013C0AD14FEA430C7FEA6C5C9B
:1017700002D152EA033C02D14FF0000070474FF013
:10178000010070474FEA410212F5001215D211D53F
:101790006FF47873B3EB625212D94FEAC12343F06E
:1017A000004343EA505311F0004F23FA02F018BFF0
:1017B000404270474FF00000704750EA013005D1B9
:1017C00011F0004008BF6FF0004070474FF000007C
:1017D000704700BF10B588B00022039204920592B2
:1017E000069207920092184B196B41F08001196321
:1017F000196B01F08001009100990192196B41F081
:1018000001011963196B01F0010101910199029223
:10181000196B41F0020119631B6B03F00203029381
:10182000029B0A4C3021204600F03CFC30230393FD
:101830000123049305930323069303A9204600F094
:101840003FFB08B010BD00BF00380240000402405A
:1018500072B6FEE700B595B03022002108A802F06C
:1018600053FA00230393049305930693079301937C
:10187000204A116C41F080511164126C02F08052C8
:101880000192019A02931C4B1A6842F480421A603A
:101890001B6803F480430293029B012308934FF4D7
:1018A0008033099302220E924FF480030F93042396
:1018B0001093A82111911292139308A800F0F8FB3D
:1018C00098B90F23039302230493002305934FF445
:1018D000A05306934FF480530793052103A800F00B
:1018E0004DFE20B915B05DF804FBFFF7B1FFFFF71F
:1018F000AFFF00BF003802400070004008B500F0A4
:10190000D5F9FFF7A7FFFFF765FF00F0DFF8264CDA
:10191000204602F05FF9642000F0F4F901F056FF70
:1019200001F080FE01F0C6FF204B214A1A60214BD6
:101930000A221A60204B4FF080421A601F4B204A47
:101940001A60204A204B1A60204B21491960214B14
:10195000002119700125204B1D70204B4FF07C5148
:1019600019601F4959601F490A60DA601E4B1F4AFF
:101970001A6000261E4B1E6001F016FB4FF0FF316F
:10198000304601F0D3FC1B4802F072FA00F0A6FECC
:10199000194BA3FB0030800C00F020FA2A461749AF
:1019A000204601F0E4FAFEE7DC0A00203C0B0020B0
:1019B00000004041280B0020400B0020380B002085
:1019C0000000C0400000A041340B0020240B002088
:1019D00000004842540B0020440B0020DC0B002088
:1019E000CDCC4C3E000C0020740B002017B7D13832
:1019F000300B002040A6000883DE1B43D90A0020DC
:101A000082B0002100910B4B5A6C42F480425A6420
:101A10005A6C02F480420092009A01911A6C42F0D2
:101A200080521A641B6C03F080530193019B02B037
:101A3000704700BF00380240FEE7FEE7FEE7FEE722
:101A4000FEE770477047704708B500F049F908BDD8
:101A500008B5024801F028F908BD00BFDC0A0020E3
:101A60000120704708B502F025F9162303604FF0F6
:101A7000FF3008BD08B54FF0FF31FFF7F3FFFEE779
:101A800010B503460C4A0D490D48006840B10C489A
:101A900000680344521A934206D8094A136010BDE5
:101AA0000748084C0460F2E702F004F90C230360D5
:101AB0004FF0FF30F3E700BF0000022000040000F9
:101AC000D4090020700C00207047000008B50A48B7
:101AD0000A4B03604FF4E133436000238360C3602B
:101AE00003610C2242618361C36100F047FF00B9CA
:101AF00008BDFFF7ADFEFBE7DC0A00200044004014
:101B000010B588B0002303930493059306930793BD
:101B10000268184B9A4201D008B010BD002401940D
:101B200003F5FA331A6C42F400321A641A6C02F4A8
:101B300000320192019A02941A6B42F001021A6378
:101B40001B6B03F001030293029B0C2303930223FC
:101B50000493032306930723079303A9064800F081
:101B6000AFF922462146262000F0F2F8262000F0A8
:101B700027F9D1E7004400400000024008B51E4BA1
:101B80001B78FF2B11D05A1CD2B21B490A701B497B
:101B90001B480078C854531ECB5C0A2B15D0012279
:101BA0001749184801F0E3F908BD0021124B1970DC
:101BB0004FF48072114802F0A7F84FF6FF730A2223
:101BC0001149104800F009FFE9E7931ECB5C0D2B8B
:101BD000E5D14FF6FF730B4800F0FFFE094801F016
:101BE000A3F92128FAD00021034B19704FF4807219
:101BF000024802F089F8D2E7D80A0020D80900206C
:101C0000D90A0020DC0A002068A60008DFF834D0DA
:101C10000D480E490E4A002302E0D458C450043344
:101C2000C4188C42F9D30B4A0B4C002301E013601B
:101C30000432A242FBD3FFF747FF02F041F8FFF75F
:101C40005DFE70470000022000000020B80900205F
:101C50007CAF0008B8090020700C0020FEE70000EF
:101C600010B504460E4B18784FF47A73B3FBF0F3BB
:101C70000C4A1068B0FBF3F000F0B0F868B90F2C14
:101C800001D901200AE0002221464FF0FF3000F088
:101C90005FF8054B1C60002000E0012010BD00BF74
:101CA00004000020000000200800002008B50B4BB5
:101CB0001A6842F400721A601A6842F480621A606C
:101CC0001A6842F480721A60032000F02FF80F2087
:101CD000FFF7C6FFFFF794FE002008BD003C02405E
:101CE000034A1168034B1B780B441360704700BF15
:101CF000200B002004000020014B1868704700BF33
:101D0000200B002038B50446FFF7F6FF0546B4F176
:101D1000FF3F02D0044B1B781C44FFF7EDFF401B34
:101D2000A042FAD338BD00BF04000020074AD368A0
:101D300023F4E0631B041B0C000200F4E060034387
:101D400043F0BF6343F40033D360704700ED00E01D
:101D500000B5194BDB68C3F30223C3F1070CBCF1D8
:101D6000040F28BF4FF0040C03F1040EBEF1060F60
:101D700018D9033B4FF0FF3E0EFA0CFC21EA0C0190
:101D800099400EFA03F322EA0303194300280BDB00
:101D90000901C9B200F1604000F5614080F800130C
:101DA0005DF804FB0023E5E700F00F000901C9B26C
:101DB000024B1954F4E700BF00ED00E014ED00E021
:101DC000002807DB00F01F02400901239340024A6C
:101DD00042F82030704700BF00E100E00138B0F168
:101DE000807F0BD24FF0E0235861054AF02182F842
:101DF00023100020986107221A6170470120704764
:101E000000ED00E070B50446866DFFF775FF94F8AD
:101E10003530DBB2022B06D080236365002384F8C3
:101E20003430012070BD05462268136823F0160384
:101E300013602268536923F080035361236CE3B17C
:101E40002268136823F0080313602268136823F0E4
:101E50000103136023681B6813F0010F11D0FFF713
:101E60004BFF431B052BF5D920236365032084F822
:101E70003500002384F83430D4E7A36C002BDFD185
:101E8000E3E7E26D3F239340B360012384F83530EC
:101E9000002084F83400C5E790F83530DBB2022B1F
:101EA00003D08023436501207047052380F8353037
:101EB0000268136823F001031360002070470000DC
:101EC00000230F2B00F2E48070B582B060E08568DB
:101ED0005E000324B44025EA0405CC68B4402C43DA
:101EE0008460456825EA02054C68C4F300129A40F4
:101EF0002A4342605AE0DC08083450F8246003F0BA
:101F0000070295000F22AA4026EA020E0A69AA409B
:101F100042EA0E0240F824205CE0072200E00022A2
:101F200002FA0EF22A4302345A4D45F824205A4A46
:101F300094686FEA0C0224EA0C054E6816F4801FC0
:101F400001D04CEA0405544CA560E46802EA04059B
:101F50004E6816F4001F01D04CEA04054E4CE560B3
:101F6000646802EA04054E6816F4003F01D04CEAAA
:101F70000405494C6560246822404D6815F4803F93
:101F800001D04CEA0402444C226001330F2B7DD86F
:101F900001229A400C6804EA020C32EA0404F4D1EB
:101FA0004C6804F00304013C012C90D94A6802F00B
:101FB0000302032A09D0C4685D000322AA4024EA70
:101FC00002048A68AA402243C2604A6802F00302FF
:101FD000022A90D004684FEA430E032202FA0EF25E
:101FE00024EA02044A6802F0030202FA0EF22243D3
:101FF00002604A6812F4403FC7D000220192274A8B
:10200000546C44F480445464526C02F48042019253
:10201000019A9C08A51C1F4A52F8255003F00302A0
:102020004FEA820E0F2202FA0EF225EA02051C4A3E
:1020300090423FF474AF02F5806290421AD002F5EC
:102040008062904218D002F58062904216D002F56C
:102050008062904214D002F58062904212D002F564
:102060008062904210D002F5806290423FF455AFFA
:10207000082255E7012253E7022251E703224FE7E6
:1020800004224DE705224BE7062249E702B070BD66
:10209000704700BF00380140003C0140003802405A
:1020A000000002400AB181617047090481617047F4
:1020B000002800F0E08170B582B00446036813F098
:1020C000010F3BD09F4B9B6803F00C03042B2CD0DB
:1020D0009C4B9B6803F00C03082B21D06368B3F57D
:1020E000803F4FD0B3F5A02F52D0964B1A6822F400
:1020F00080321A601A6822F480221A606368002B0A
:1021000050D0FFF7F9FD05468E4B1B6813F4003FD6
:1021100014D1FFF7F1FD401B6428F5D90320B1E18C
:10212000884B5B6813F4800FD8D0864B1B6813F480
:10213000003F03D06368002B00F09F81236813F0F9
:10214000020F54D07F4B9B6813F00C0F3ED07D4B99
:102150009B6803F00C03082B33D0E368002B68D096
:10216000794B01221A60FFF7C7FD0546754B1B68C6
:1021700013F0020F54D1FFF7BFFD401B0228F5D921
:1021800003207FE16F4A136843F480331360B5E79F
:102190006C4B1A6842F480221A601A6842F480324A
:1021A0001A60ABE7FFF7A8FD0546664B1B6813F402
:1021B000003FC3D0FFF7A0FD401B6428F5D90320E2
:1021C00060E1604B5B6813F4800FC6D15D4B1B6808
:1021D00013F0020F03D0E368012B40F05081594AFD
:1021E000136823F0F803216943EAC10313602368ED
:1021F00013F0080F42D063696BB3534B0122C3F84D
:10220000802EFFF779FD05464E4B5B6F13F0020FF2
:1022100034D1FFF771FD401B0228F5D9032031E1CD
:10222000484A136823F0F803216943EAC1031360A5
:10223000DDE7454B00221A60FFF75EFD0546414B86
:102240001B6813F0020FD2D0FFF756FD401B022887
:10225000F5D9032016E13C4B0022C3F8802EFFF78E
:102260004BFD0546374B5B6F13F0020F06D0FFF7AF
:1022700043FD401B0228F5D9032003E1236813F036
:10228000040F77D02F4B1B6C13F0805F33D10023EA
:1022900001932C4B1A6C42F080521A641B6C03F0B1
:1022A00080530193019B0125284B1B6813F4807F09
:1022B00023D0A368012B34D0052B38D0214B1A6FC3
:1022C00022F001021A671A6F22F004021A67A3684B
:1022D000002B3DD0FFF710FD06461A4B1B6F13F085
:1022E000020F46D1FFF708FD801B41F28833984268
:1022F000F3D90320C6E00025D6E7144A136843F457
:1023000080731360FFF7F8FC0646104B1B6813F44C
:10231000807FCED1FFF7F0FC801B0228F5D9032087
:10232000B0E0084A136F43F001031367CFE7054B92
:102330001A6F42F004021A671A6F42F001021A671C
:10234000C5E700BF0038024000004742007000406F
:10235000FFF7D2FC0646524B1B6F13F0020F08D05A
:10236000FFF7CAFC801B41F288339842F3D903205F
:1023700088E0EDB9A369002B00F08380484A926899
:1023800002F00C02082A51D0022B17D0454B002234
:102390001A66FFF7B1FC0446414B1B6813F0007F3F
:1023A00042D0FFF7A9FC001B0228F5D9032069E001
:1023B0003B4A136C23F080531364DBE7394B002254
:1023C0001A66FFF799FC0546354B1B6813F0007F32
:1023D00006D0FFF791FC401B0228F5D9032051E0FD
:1023E000E369226A1343626A43EA8213A26A5208CB
:1023F000013A43EA0243E26A43EA0263284A53602D
:10240000284B01221A66FFF777FC0446244B1B6811
:1024100013F0007F06D1FFF76FFC001B0228F5D9EF
:1024200003202FE000202DE000202BE0012B2BD0FB
:102430001B4B5B6803F48001E269914226D103F0F3
:102440003F02216A8A4223D1616A47F6C0721A406C
:10245000B2EB811F1ED103F44031A26A5208013A47
:10246000B1EB024F18D103F07063E26AB3EB026F75
:1024700014D1002006E001207047012002E0012075
:1024800000E0002002B070BD0120FBE70120F9E769
:102490000120F7E70120F5E70120F3E70120F1E74C
:1024A000003802400000474208B5314B9B6803F0FA
:1024B0000C03042B57D0082B57D12D4B5A6802F030
:1024C0003F025B6813F4800F2AD0294B5968C1F38F
:1024D000881C4FEA4C11B1EB0C006EEB0E0E4FEA6C
:1024E0008E1343EA90638101091A63EB0E03DB004C
:1024F00043EA5173C90011EB0C0C43F1000359027C
:1025000000234FEA4C2041EADC51FEF727FC184B30
:102510005B68C3F3014301335B00B0FBF3F025E0DC
:10252000134B5968C1F3881C4FEA4C11B1EB0C00F6
:102530006EEB0E0E4FEA8E1343EA90638101091A87
:1025400063EB0E03DB0043EA5173C90011EB0C0C83
:1025500043F10003990200234FEA8C2041EA9C5189
:10256000FEF7FCFBD3E7034800E0034808BD00BFCB
:102570000038024000127A000024F400002800F025
:102580009B8070B50D4604464F4B1B6803F0070354
:102590008B4208D2CBB24C4A1370136803F0070386
:1025A0008B4240F08B80236813F0020F17D013F09A
:1025B000040F04D0454A936843F4E05393602368C2
:1025C00013F0080F04D0414A936843F460439360CA
:1025D0003E4A936823F0F003A1680B43936023689D
:1025E00013F0010F32D06368012B21D09A1E012A0B
:1025F00025D9364A126812F0020F61D033498A6831
:1026000022F0030213438B60FFF776FB06462F4B45
:102610009B6803F00C036268B3EB820F16D0FFF7E0
:102620006BFB801B41F288339842F0D9032042E0D3
:10263000264A126812F4003FE0D101203BE0234A11
:10264000126812F0007FD9D1012034E01E4B1B68C4
:1026500003F00703AB4207D9EAB21B4B1A701B68A1
:1026600003F00703AB422DD1236813F0040F06D00B
:10267000164A936823F4E053E1680B4393602368A0
:1026800013F0080F07D0114A936823F460432169BF
:1026900043EAC1039360FFF707FF0C4B9B68C3F34A
:1026A00003130B4AD35CD8400A4B18600A4B1868D6
:1026B000FFF7D6FA002070BD012070470120FAE72D
:1026C0000120F8E70120F6E7003C02400038024014
:1026D00050A600080000002008000020014B1868E8
:1026E000704700BF0000002008B5FFF7F7FF044B5C
:1026F0009B68C3F38223034AD35CD84008BD00BF64
:102700000038024060A6000808B5FFF7E7FF044B59
:102710009B68C3F34233034AD35CD84008BD00BF73
:102720000038024060A60008026802F10C0353E87A
:10273000003F23F490730C3242E800310029F3D1BA
:10274000026802F1140353E8003F23F0010314323E
:1027500042E800310029F3D1036B012B05D020237F
:1027600080F83E30002303637047026802F10C03D7
:1027700053E8003F23F010030C3242E800310029F7
:10278000F3D1ECE790F83D30DBB2212B01D00220F1
:1027900070478368B3F5805F17D0036A5A1C0262E2
:1027A0001A7803685A60C38C9BB2013B9BB2C38406
:1027B0004BB90268D36823F08003D3600268D36802
:1027C00043F04003D360002070470369002BE4D13D
:1027D000036A1B880268C3F308035360036A023369
:1027E0000362E0E738B504460268136923F44053F6
:1027F000C1680B4313618368026913434269134341
:10280000C2691A430168CB6823F4164323F00C0312
:102810001343CB600268536923F4407381690B430F
:1028200053610368314A934206D002F580629342B5
:1028300002D0FFF759FF01E0FFF766FFE369B3F548
:10284000004F29D00021031849411B1841F1000114
:10285000C90041EA5371DB00181863684FEA83022C
:102860004FEA937341F10001FEF778FA204DA5FB82
:1028700000325109642303FB11031B013233A5FB12
:1028800003235B0903F0F00202EB011203F00F03D4
:10289000216813448B6038BD0023021843EB030109
:1028A000121841F10001C90041EA5271D20010181A
:1028B00041F10001626892185B41FEF74FFA0C4D3E
:1028C000A5FB00325109642303FB1103DB00323303
:1028D000A5FB03235B095A0002F4F87202EB011214
:1028E00003F00703216813448B60D4E70010014014
:1028F0001F85EB512DE9F84305460F4616469946CC
:10290000DDF820802C68246837EA04030CBF4FF000
:10291000010C4FF0000CB4452DD1B8F1FF3FF1D0C0
:10292000B8F1000F05D0FFF7E7F9A0EB090040452B
:10293000E8D92A6802F10C0353E8003F23F4D0736E
:102940000C3242E800310029F3D12A6802F1140365
:1029500053E8003F23F00103143242E8003100291C
:10296000F3D1202385F83D3085F83E30002385F8EB
:102970003C30032000E00020BDE8F88358B310B5D8
:10298000044690F83D300BB3242384F83D30226890
:10299000D36823F40053D3602046FFF723FF226857
:1029A000136923F4904313612268536923F02A03C7
:1029B00053612268D36843F40053D360002020643D
:1029C000202384F83D3084F83E3010BD80F83C3040
:1029D000FFF796F8D8E7012070472DE9F04182B063
:1029E0001E4690F83D30DBB2202B54D104460D46F4
:1029F0009046002953D0002A53D090F83C30012B48
:102A000051D0012380F83C3000230364212380F857
:102A10003D30FFF771F90746A4F82480A4F826801A
:102A2000A368B3F5805F05D04FF00008002384F859
:102A30003C3012E0236913B14FF00008F6E7A846D6
:102A40000025F3E738F8023B2268C3F3080353601C
:102A5000E28C92B2013A92B2E284E38C9BB273B1FF
:102A600000963B46002280212046FFF743FFE0B955
:102A7000002DE7D015F8012B23685A60E8E700968F
:102A80003B46002240212046FFF734FF78B920233F
:102A900084F83D3000E0022002B0BDE8F081012062
:102AA000FAE70120F8E70220F6E70320F4E7032025
:102AB000F2E72DE9F04182B01E4690F83E30DBB2DD
:102AC000202B5CD104460D46904600295BD0002A9D
:102AD0005BD090F83C30012B59D0012380F83C307A
:102AE00000230364222280F83E200363FFF704F9E9
:102AF0000746A4F82C80A4F82E80A368B3F5805F65
:102B000005D04FF00008002384F83C3017E023691B
:102B100013B14FF00008F6E7A8460025F3E7236855
:102B20005B68C3F3080328F8023B03E023685B6893
:102B30002B700135E28D92B2013A92B2E285E38DBB
:102B40009BB2BBB100963B46002220212046FFF7F6
:102B5000D1FEF0B9002DE2D0A368B3F5805FE5D0D7
:102B600013B92369002BE1D023685B6803F07F036E
:102B70002B70DEE7202384F83E30002000E00220A6
:102B800002B0BDE8F0810120FAE70120F8E7022059
:102B9000F6E70320F4E7704708B50168CA6822F039
:102BA0004002CA60202280F83D20FFF7F4FF002099
:102BB00008BD704708B5806B0023C385C384FFF749
:102BC000F8FF08BD704790F83E30DBB2222B67D18A
:102BD0008368B3F5805F4DD0826AB3F5805F04D01F
:102BE000002B54D10369002B51D103685B6813702B
:102BF000836A01338362C38D9BB2013B9BB2C38561
:102C0000002B4FD100B583B00268D36823F02003B6
:102C1000D3600268D36823F48073D3600268536979
:102C200023F001035361202380F83E30036B012B16
:102C300033D100230363026802F10C0353E8003F21
:102C400023F010030C3242E800310029F3D103686D
:102C50001A6812F0100F06D0002201921A68019231
:102C60005B680193019B818DFFF7ACFF002003B0EF
:102C70005DF804FB0269002AAED1826A03685B68D2
:102C8000C3F308031380836A02338362B3E70368E4
:102C90005B6803F07F031370AAE7FEF76FFFE5E7B9
:102CA000022070470020704730B583B004460268A8
:102CB0001368D068516913F00F0505D113F0200F88
:102CC00002D010F0200F19D12DB111F0010119D14E
:102CD00010F4907F16D1216B01297DD013F0800F65
:102CE00003D010F0800F40F0158113F0400F03D097
:102CF00010F0400F40F0128103B030BD2046FFF7C6
:102D000062FFF9E713F0010F06D010F4807F03D0C3
:102D1000226C42F00102226413F0040F04D019B1B6
:102D2000226C42F00202226413F0020F04D019B1A7
:102D3000226C42F00402226413F0080F07D010F056
:102D4000200F00D119B1226C42F008022264226CDB
:102D5000002AD1D013F0200F02D010F0200F29D17B
:102D600023685B6903F04003226C12F0080F00D166
:102D700063B32046FFF7D8FC23685B6913F0400F6C
:102D800020D0226802F1140353E8003F23F04003EF
:102D9000143242E800310029F3D1A36B73B1614AC8
:102DA0001A65A06BFFF778F80028A5D0A06B036D1B
:102DB0009847A1E72046FFF706FFD1E72046FFF737
:102DC000F8FE99E72046FFF7F4FE95E72046FFF767
:102DD000F0FE002323648FE713F0100F3FF47EAF63
:102DE00010F0100F3FF47AAF0023019313680193A2
:102DF00053680193019B536913F0400F50D0A26BAD
:102E000013685B689BB2002B3FF476AFA18D9942AB
:102E10007FF672AFE385D369B3F5807F37D0226840
:102E200002F10C0353E8003F23F480730C3242E8B4
:102E300000310029F3D1226802F1140353E8003F66
:102E400023F00103143242E800310029F3D1226853
:102E500002F1140353E8003F23F04003143242E828
:102E600000310029F3D1202384F83E30002323636E
:102E7000226802F10C0353E8003F23F010030C32E8
:102E800042E800310029F3D1A06BFEF7BBFFA18D12
:102E9000E38D9BB2C91A89B22046FFF793FE2BE758
:102EA000A18DE38D9BB2C91A89B2E38D9BB2002B31
:102EB0003FF422AF00293FF41FAF226802F10C0358
:102EC00053E8003F23F490730C3242E800300028AE
:102ED000F3D1226802F1140353E8003F23F0010309
:102EE000143242E800300028F3D1202384F83E3029
:102EF00000232363226802F10C0353E8003F23F010
:102F000010030C3242E800300028F3D12046FFF7CE
:102F100059FEF1E62046FFF735FCEDE62046FFF7C7
:102F20003BFEE9E6B52B000890F83D3090F83E00F6
:102F30001843704781628285C28500230364222280
:102F400080F83E2080F83C30036923B10268D368E2
:102F500043F48073D3600268536943F00103536103
:102F60000268D36843F02003D3600020704708B59F
:102F700090F83E30DBB2202B0DD171B17AB190F8D0
:102F80003C30012B0DD0012380F83C30002303633B
:102F9000FFF7D0FF00E0022008BD0120FCE7012080
:102FA000FAE70220F8E7000010B5104800F060FFD3
:102FB0000F4B1C6821460F4B1868FDF77FFE08B1C8
:102FC0000C4B1C600C4B1C610C4B1C610C4B1B789C
:102FD00033B90C4B1C610C4B1A680C4B1A6110BDB9
:102FE0000B4B1A68074B1A61F5E700BF78A600087B
:102FF000380B0020400B0020B80B0020940B002061
:10300000540B0020DC0B0020340B0020000C0020AF
:10301000240B00202DE9704305460C46164600217E
:103020002046FDF723FE00284DD121462046FDF71E
:1030300089FC804629462846FDF784FC0146404627
:10304000FDF778FB00F0E4FA2046FDF73DFA8046F4
:1030500089462846FDF738FA42464B4606F004FFFB
:1030600004460D463046FDF72FFA22462B46FDF763
:10307000CDF8FDF709FB00F0A3FA044616492046F7
:10308000FDF714FD4FF07E51FDF754FBFDF746FEB2
:10309000FDF700FC05461049FDF754FC2146FDF7FD
:1030A00047FB00F0D1F94FF07E512846FDF740FB79
:1030B0000949FDF747FC01462046FDF739FB00F0C2
:1030C000C3F9BDE8708305493046FDF733FB00F0D6
:1030D00077FA0446D2E700BF920A863FDB0FC93F6A
:1030E000F8B57C4800F0C4FE7B4B1E68002E40F013
:1030F000AA80344615E02046FDF7D0FB7749FDF75E
:1031000021FC7749FDF7D2FC7649FDF713FB024617
:103110000021754B1868FFF77DFF0120FEF7F2FDD7
:103120000134B4F5FA7FE6DD00F0E6FA05464FF427
:10313000FA7415E02046FDF7B1FB6849FDF702FC83
:103140006749FDF7B3FC6749FDF7F4FA0246002131
:10315000654B1868FFF75EFF0120FEF7D3FD013CC9
:10316000002CE7DA00F0C8FA0446002002460146C7
:10317000FFF750FF0120FEF7C5FD2846FDF7A4F933
:1031800002460B46594800F011FE2046FDF79CF917
:1031900002460B46564800F009FE21462846FDF738
:1031A000C7FA20F0004721462846FDF75FFD0028BA
:1031B0003AD150493846FDF763FD002834D1214605
:1031C0002846FDF75DFD002832D04B4800F050FE48
:1031D000414B4FF0FF321A60484800F0E7FD484B82
:1031E0001868FDF75BFB3946FDF7ACFB3B49FDF783
:1031F0009FFA20F000404FF07C51FDF75FFDF0B1E9
:10320000404800F0D3FD39463448FDF74FFC4FF0FD
:103210007C51FDF78FFAFDF75BFD0146384B1860D6
:10322000394800F0C3FD11E0384800F021FE49E0C4
:10323000374800F01DFE284B01221A60CCE73548C4
:1032400000F016FE02E0344800F012FE0021334B7D
:103250001868FDF70BFD002836D00025214A2946C5
:10326000214B1868FFF7D6FE4620FEF74BFD1A4BA0
:103270001868FDF713FB044600F03EFA0146204BA8
:103280001E682046FDF75EFB314600F0B7F900F0FE
:1032900097F9224C20601420FEF734FD204800F0FE
:1032A00085FD2068FDF710F902460B461D4800F029
:1032B0007DFD2A4629462846FFF7ACFE1420FEF77E
:1032C00021FD01263046F8BD174800F0D1FD01264A
:1032D000F8E700BF84A600082C0B0020DB0FC940D4
:1032E0000000FA43E4CB9640400B002098A600086B
:1032F000ACA600080AD7233CECA6000824A70008C7
:10330000280B002034A700084CA70008C0A600081E
:1033100008A7000854A700085CA70008580B002065
:1033200074A700088CA7000894A7000838B50546C4
:103330000C460021FDF79AFC18B9114B1D60114B8A
:103340001C60FFF7CDFE00F0D7F90F4B1860052089
:10335000FEF7D8FC00F038F80C4B18600520FEF79B
:10336000D1FC00F01BF80A4B18600A4B1B78022BAB
:1033700003D00A20FEF7C6FC38BD074B1860F8E7FB
:10338000580B00202C0B0020840B0020500B002039
:103390004C0B0020440B0020300B002010B5084BD4
:1033A0001868FDF77BFA044600F0A6F901462046AE
:1033B000FDF7C8FA034B1968FDF7BAF910BD00BF55
:1033C0002C0B0020480B002010B5084B1868FDF7A7
:1033D00065FA044600F026FA0146054800F03EF979
:1033E00001462046FDF7AEFA10BD00BF2C0B0020B1
:1033F000740B002038B500F0B9FA6C2000F0B6FB71
:1034000000F0F4FA0C2000F0B1FB00F0EFFA00F04D
:10341000ADFA6D2000F0AAFB00F0E8FA012000F000
:1034200067FB0446002000F063FB054600F0BEFA8F
:103430002402A4B2601980B238BD08B5FFF7DAFFE4
:10344000C0F30B0008BD000010B504465449FDF759
:1034500017FC38BB53492046FDF712FC002842D127
:1034600051492046FDF70CFC00286FD04F492046FB
:10347000FDF768FA04460021FDF716FC00285BD032
:103480004FF07C512046FDF755F9FDF721FCA0F5E2
:10349000C770474B53F82000FDF700FA4549FDF788
:1034A00051FA17E041492046FDF74CFA0446002145
:1034B000FDF7FAFB78B14FF07C512046FDF73AF961
:1034C000FDF706FC3A4B53F82000FDF7E7F93A49BF
:1034D000FDF738FA10BD4FF07C512046FDF728F972
:1034E000FDF7F6FBEEE731492046FDF72BFA0446DF
:1034F0000021FDF7D9FBA8B14FF07C512046FDF724
:1035000019F9FDF7E5FBC0F5C770294B53F820000A
:10351000FCF7C8FF20A3D3E90023FDF70BFFFDF75D
:10352000B3F8D7E74FF07C512046FDF701F9FDF7DE
:10353000CFFBC0F5C770E8E74FF07C512046FDF7A0
:10354000F7F8FDF7C5FBA0F5C770A2E717492046BD
:10355000FDF7F8F904460021FDF7A6FB88B14FF00E
:103560007C512046FDF7E6F8FDF7B2FBC0F5477049
:103570000F4B53F82000FDF791F90E49FDF7E2F9E2
:10358000A8E74FF07C512046FDF7D2F8FDF7A0FBED
:10359000C0F54770ECE700BF2D431CEBE2361A3F45
:1035A000DB0FC93FDB0F4940E4CB9640E65FFD42AD
:1035B000B0A7000817B7D1B817B7D138000000007E
:1035C00010B5FCF781FF0AA3D3E9002306F04EFCF7
:1035D000FDF75AF804460021FDF766FB08B12046C6
:1035E00010BD05492046FDF7A5F80446F7E700BFE2
:1035F00000000060FB211940DB0FC94010B50446F4
:103600000846FDF74BF92146FDF79CF910BD000077
:1036100008B501460248A0EB6100FDF793F908BD2B
:10362000865A375F084B094818600021596000220C
:103630009A60074B186059609A60064B06481860FC
:1036400059609A60704700BF680B0020CDCC4C3D9C
:103650005C0B0020740B002017B7D138F8B5054675
:103660000C464FF0E0239F698068B8422CD9C01BFC
:10367000FDF710F91D49FDF719FA1D49FDF762F92B
:103680000646AF601B493046FDF718FB58BB2F6854
:1036900031463846FDF74EF801463846FDF706FA42
:1036A000064601466868FDF74DF9074631464FF07A
:1036B0007E50FDF73DF82146FDF744F901463846B6
:1036C000FDF738F86860F8BDC01B00F1FF1000F589
:1036D0007F40FDF7DFF80549FDF7E8F90449FDF7FC
:1036E00031F90646CDE76C602046ECE70000A841C2
:1036F000BD3786359A99993E2DE9F041FFF79DFE39
:103700000446294B1D68451B2846FCF7CBFE804626
:1037100021F00047254B1868FDF7C0F806462449FC
:10372000FDF710F9FCF7D0FE02460B46404639463D
:10373000FCF7A0FF38B1002D34DD1E491E4D28686E
:10374000FCF7F8FF2860184B1C601C491A4B1868DE
:10375000FDF7AAFA40B1184B00221A60184D17491C
:103760002868FCF7E5FF28601649134B1868FDF739
:1037700091FA40B1104B00221A60114D0F49286890
:10378000FCF7D8FF28602046FDF788F83146FDF7A2
:103790008DF90D49FDF7D6F8074B1968FCF7CAFFFC
:1037A000BDE8F0810849C9E7800B0020880B0020A4
:1037B000CDCC4C3FDB0FC9C08C0B00207C5944465C
:1037C000840B00207C5944C6DB0FC94008B500F0CB
:1037D000A7F80E4B4FF480521A600D4800F048FBDA
:1037E0006420FEF78FFAFFF728FE0A4B18600A4B99
:1037F00000221A60094B00221A603220FEF782FA7A
:10380000FFF77AFF064B186008BD00BF880B002049
:10381000D0AA0008800B00208C0B0020900B002009
:10382000840B0020F8B54FF0E0239D691C4B18680D
:10383000A84216DD401BFDF731F81A49FDF736F9AD
:103840001949FDF77FF8044600212046FDF70EFADE
:10385000B0B94FF07C512046FDF730FA88B1134CD7
:103860000FE0C5F1FF1303F57F431844FDF716F889
:103870000C49FDF71BF90C49FDF764F80446E3E732
:103880000A4CFFF739FF0646094F3968FCF750FF2D
:103890002146FDF70BF93E60014B1D60F8BD00BFEE
:1038A000900B00200000A841BD3786356F12833A87
:1038B000840B0020154A4FF07C50106000235360A9
:1038C0009360D36053619361D36100211162104A08
:1038D000DFF840C0C2F800C053609360D36053610A
:1038E0009361D36111620C4A106053609360D3609E
:1038F00053619361D3611162084A10605360936011
:10390000D36053619361D36111627047DC0B002077
:10391000000C00200000A041B80B0020940B0020F8
:1039200070B586B0002300930E4B1A6B42F0020272
:103930001A631B6B03F002030093009B3026019671
:1039400001240294039402230493074D01A92846FD
:10395000FEF7B6FA224631462846FEF7A3FB06B02C
:1039600070BD00BF003802400004024010B50E4C8C
:10397000012220212046FEF795FB0122102120463E
:10398000FEF790FB0120FEF7BDF900222021204622
:10399000FEF788FB0120FEF7B5F900221021204632
:1039A000FEF780FB10BD00BF0004024010B50E4CB6
:1039B000002220212046FEF775FB00221021204620
:1039C000FEF770FB0120FEF79DF901222021204621
:1039D000FEF768FB012210212046FEF763FB012061
:1039E000FEF790F910BD00BF0004024010B51E4C58
:1039F000236823F44063236023682360012220218D
:103A00002046FEF74FFB012210212046FEF74AFB1D
:103A10000120FEF777F90023134A126912F0200FF4
:103A200013D00133DBB2FA2BF6D90F4B1A6822F40C
:103A300040621A601A6842F480621A60FFF7B6FFAB
:103A40000A4800F015FA01200DE00748036823F446
:103A500040630360036843F4806303600022102125
:103A6000FEF720FB002010BD00040240E0AA000881
:103A700010B50E4C002210212046FEF713FB002249
:103A800020212046FEF70EFB0120FEF73BF9012224
:103A900010212046FEF706FB0120FEF733F9002235
:103AA00010212046FEF7FEFA10BD00BF00040240C0
:103AB00010B50E4C002210212046FEF7F3FA012229
:103AC00020212046FEF7EEFA0120FEF71BF9012225
:103AD00010212046FEF7E6FA0120FEF713F9002236
:103AE00010212046FEF7DEFA10BD00BF00040240A0
:103AF000F8B507461C4B1A6822F440621A601A682F
:103B00001A600024254604E00120FEF7FBF8013589
:103B1000EDB2072D16D8144E002210213046FEF7C4
:103B2000C1FA0120FEF7EEF8012210213046FEF71F
:103B3000B9FA6400E4B2336913F0200FE4D0013421
:103B4000E4B2E1E7084B1A6822F440621A601A688E
:103B500042F480621A601FB9FFF7AAFF2046F8BD41
:103B6000FFF786FFFAE700BF0004024070B5044685
:103B7000002210211648FEF795FA00251BE00022CE
:103B800020211348FEF78EFA6400E4B20120FEF70C
:103B9000B9F80F4E012210213046FEF783FA0120BA
:103BA000FEF7B0F8002210213046FEF77BFA012024
:103BB000FEF7A8F80135072D08D814F0800FDED0E5
:103BC000012220210248FEF76DFADDE770BD00BF3B
:103BD0000004024008B5054B1860054B1868002327
:103BE00002221946806800F04BF908BD240C002021
:103BF0000C000020022801D80120704708B500F011
:103C000059F809230360002008BD000010B50138F1
:103C100001280AD814464FF0FF3392B207480068D3
:103C2000FEF7DBFE40B9204610BD00F043F8092343
:103C300003604FF0FF30F7E70520F5E7240C002084
:103C4000022801D80020704708B500F033F8092396
:103C500003604FF0FF3008BD08B500F02BF80923D2
:103C600003604FF0FF3008BD08B548B94FF0FF338F
:103C7000012208480068FEF71CFF40B9012008BD7A
:103C800000F018F8092303604FF0FF30F7E7052034
:103C9000F5E700BF240C002008B5022804D84FF433
:103CA00000534B60002008BD00F004F809230360B6
:103CB000F8E70000014B1868704700BF0C000020B7
:103CC00070B50D4E0D4D761BB61006D0002455F87C
:103CD000043B01349847A642F9D1094E094D761BA1
:103CE00006F0A0FCB61006D0002455F8043B0134C1
:103CF0009847A642F9D170BD70AF000870AF0008B8
:103D000078AF000870AF0008830730B548D0541E64
:103D1000002A3FD0CAB2034601E0013C3AD303F87F
:103D2000012B9D07F9D1032C2DD9CDB245EA0525EC
:103D30000F2C45EA054536D9A4F1100222F00F0CEC
:103D400003F1200EE6444FEA121C03F1100242E98F
:103D5000045542E9025510327245F8D10CF10102C6
:103D600014F00C0F03EB021204F00F0C13D0ACF1A3
:103D7000040323F003030433134442F8045B934227
:103D8000FBD10CF003042CB1CAB21C4403F8012B84
:103D90009C42FBD130BD64461346002CF4D1F9E7B8
:103DA00003461446BFE71A46A446E0E70FB400B541
:103DB000074983B004AB086853F8042B816801936A
:103DC00000F036F903B05DF804EB04B0704700BFB3
:103DD0000C00002070B5054688B008460C46FDF77B
:103DE0004FF9224EAA6B059001214318CDE90661D7
:103DF00004A8022104940393AC680190029122B3B9
:103E0000636E13F0010FB4F90C309AB201D198052A
:103E100025D5910406D4626E43F4005322F4005277
:103E2000A3816266284601AA214603F0DDF9636E8C
:103E3000002814BF4FF0FF350A25DA0702D4A38902
:103E40009B0506D5284608B070BD284602F0CEFF77
:103E5000D6E7A06D03F06AFB284608B070BDA06DE0
:103E600003F062FBB4F90C309AB2D2E7A8A60008BE
:103E7000024B01461868FFF7ADBF00BF0C000020E1
:103E80002DE9F043694CD4F8008083B004460E4617
:103E900017461D46B8F1000F03D0D8F83830002B74
:103EA00077D0022F05D0012F00F2AC80002DC0F298
:103EB000A980636EDA0752D52146404602F062FFC0
:103EC000216B41B104F14003994202D0404603F016
:103ED00085F800232363B4F90CC000231CF0800F85
:103EE000A361636064D12CF44A6C2CF0030C022FA4
:103EF000A4F80CC06AD001AB6A462146404603F0E4
:103F000087FBA3891843A081002D2FD0002E2ED02F
:103F1000D8F83830002B38D0009B2660AB42B4F97B
:103F20000C301CBF43F40063A381012F04BF43F096
:103F30000103A3819AB213F00803C4E904652CD0ED
:103F4000D1075DD56D42A561656E002315F00105B1
:103F5000A36027D00025284603B0BDE8F083A389DD
:103F60009B05A9D4A06D03F0DFFAA5E7009D2846C4
:103F700003F07EFB0646002847D0A38943F0800368
:103F8000A381D8F83830002BC6D1404602F02EFF6E
:103F9000C2E7404602F02AFF83E7A360656E15F092
:103FA0000105D7D1930524D5284603B0BDE8F08399
:103FB0002169404603F012F8B4F90CC02CF44A6CA5
:103FC0002CF0030C022FA4F80CC094D10025002281
:103FD00004F14303A2600122C4E904322360636E4A
:103FE0004CF0020CD807A4F80CC0DDD41CF4007F00
:103FF000DAD1A06D03F09AFA284603B0BDE8F08349
:10400000A560CBE74FF0FF35CEE7DDF80090A9457E
:1040100004D0484603F02CFB064620B9B4F90CC086
:104020004FF0FF35D3E74D46A7E700BF0C00002057
:104030002DE9F04FD5B01C460791914605460990F1
:1040400003F06AFA0268179210460E94FDF718F80A
:1040500016901DB1AB6B002B00F02A82079A536EAD
:10406000DD0740F13881B2F90C2091B28F0409D4F8
:10407000079B42F400529A8191B21A465B6E23F478
:10408000005353660E0740F1CB80079B1B69002B42
:1040900000F0C68001F01A030A2B00F0CF80002444
:1040A0002BAB4D46CDE92944CDE91944CDE91B445C
:1040B000129428939846189400230B940024CDE979
:1040C00014342B78002B00F09D81AA4604E01AF8E6
:1040D000013F002B00F0C780252BF8D1BAEB050675
:1040E00040F0C5809AF80030002B00F08B8100234F
:1040F0004FF0FF329AF801608DF883300A930AF18D
:10410000010A08921F462B244FF020090AF1010AE8
:10411000A6F120035A2B00F2ED80DFE813F0EB024A
:10412000EB00EB00E602EB00EB00EB006A00EB00BB
:10413000EB005C028002EB0067028A02EB00850262
:104140005B005B005B005B005B005B005B005B0097
:104150005B00EB00EB00EB00EB00EB00EB00EB0097
:104160007A01EB00F801D2017A017A017A01EB00C1
:10417000EB00EB00EB00E102EB00EB002D02EB00AB
:10418000EB00EB000202EB00A402EB00EB00830764
:10419000EB00EB00EB00EB00EB00EB00EB00EB00C7
:1041A0007A01EB00F801D4017A017A017A01C702A1
:1041B000D401CD01EB00D402EB006C022F02B5025A
:1041C000CD01EB0002027E008007EB00EB006107EF
:1041D000EB007E00A6F1300300221AF8016B02EB1F
:1041E000820203EB4202A6F13003092BF5D90A92B1
:1041F0008EE7DDF824B0584603F08EF943681B9330
:104200001846FCF73DFF1C900646584603F084F91B
:1042100083681993002E40F0CD869AF8006075E708
:10422000079D0998294601F0ADFC002841F01C8348
:10423000A98901F01A030A2B7FF431AF079AB2F96A
:104240000E30002BFFF62BAF536ED80702D4890532
:1042500041F13B810799099823464A4655B0BDE88C
:10426000F04F01F04FBCBAEB050600F0CB802A9B63
:1042700033442A93299B0133072BC8E9005629931D
:1042800005DC08F108080B9B33440B932AE70799D8
:10429000099828AA04F0C0FB80B90DF1AC08F2E738
:1042A0000799099828AA04F0B7FB002800F09B8022
:1042B0000D9B1BB10998194602F090FE079A536EA8
:1042C000D90740F1EA8093895B0601F1D9820B9806
:1042D00055B0BDE8F08F079BB3F90C20900591B263
:1042E0003FF5C4AE1D46986D03F01EF9B5F90C20DC
:1042F00091B2BBE6002E00F0858000228DF8EC60C4
:104300008DF883200123CDE90C32069308920F9299
:10431000139210923BAD17F0020302D006990231BE
:10432000069117F0840B07D10A990698A1EB0009B2
:10433000B9F1000F00F370832A9C8AB1299A0DF11C
:10434000830101320134C8F80010072A4FF001013F
:104350002A942992C8F8041000F3B68308F10808DB
:1043600083B1299B21AA01330234C8F80020072B0E
:104370004FF002022A942993C8F8042000F3B28374
:1043800008F10808BBF1800F00F06982089B0C9AC5
:10439000A3EB020BBBF1000F00F3AA82FB0500F1B7
:1043A00000820C9BC8F804301C44299BC8F80050BC
:1043B0000133072B2A94299300F3228308F108087C
:1043C000780705D50A9B069A9D1A002D00F396835F
:1043D000DDE90A2306998A42ACBF9B185B180B9350
:1043E000002C7FF45DAF002329930D9B1BB10D9929
:1043F000099802F0F3FD0DF1AC0855462B78002B1F
:104400007FF463AE2A9B002B41F0D38100232993D4
:1044100054E70E9B073323F00702F2E80234CDE99C
:104420001434DDE9143424F000440E929946184601
:104430002146B54B4FF0FF32FDF78EF9002840F0D2
:10444000EF84B14B484621464FF0FF32FCF7FEF8AF
:10445000002840F0E584DDE9140100220023FCF788
:10446000EBF8002840F067879DF88320A74DA84B04
:1044700027F080070321472EC8BF1D4600230D9358
:1044800006910C9108930F9313931093002A3FF415
:1044900042AF069B013306933DE7079B9B899A0534
:1044A0003FF512AF079CA06D03F040F8A3890BE71E
:1044B000099802F09BFCD1E59AF8006047F02007CC
:1044C00024E647F01007BA060E9B40F13B84073301
:1044D00023F007031A465B6852F8084B0E92994680
:1044E000002BC0F24C84089B013300F0D88254EAC0
:1044F000090327F0800B40F0D382089B002B40F08B
:10450000D4825F46002308930C9354AD1DE10E9BAB
:10451000002253F8041B8DF883208DF8EC100E93C5
:10452000F0E60E9C089B54F8045B4FF000098DF8F0
:104530008390002D00F093855A1C00F051861A4696
:1045400049462846FCF70CFE0D90002801F00E812C
:104550000D9BCDF820905B1B0C930E9423EAE37324
:104560009DF883200693CDF83490CDF83C90CDF89B
:104570004C90CDF8409089E747F0100717F02009DC
:1045800000F0D2830E9B073323F00703D3F8049087
:1045900053F8084B0E9327F4806B002300228DF80C
:1045A0008320089A511C00F0B88054EA09012BF0CE
:1045B000800740F0B180002A40F0F685002BA1D1A1
:1045C0001BF001030C9300F0148430238DF84F315D
:1045D0000DF24F15B9E00E9B53F8042B0A92002AF6
:1045E00080F2DA830A9A0E9352420A929AF8006095
:1045F00047F004078AE5BD0600F1D184FC0600F10E
:10460000D885780600F1A586B90540F1D2850E9BC4
:104610000B9953F8042B0E9311705546EEE69AF859
:1046200000608DF8834071E59AF8006047F08007DC
:104630006CE5524612F8016B2A2E01F03F82A6F17A
:104640003003092B924698BF002201F2BC801AF871
:10465000016B02EB820203EB4202A6F13003092B4D
:10466000F5D9089254E547F0100B1BF0200900F033
:1046700076830E9B073323F00703D3F8049053F897
:10468000084B0E93012389E70E9B53F8044B0E93BE
:10469000302378268DF884301E4B189347F0020B98
:1046A0008DF885604FF00009022377E79AF80060E3
:1046B000682E03BF9AF8016047F400770AF1010AF7
:1046C00047F0400722E59AF800606C2E03BF9AF885
:1046D000016047F020070AF1010A47F0100715E5CD
:1046E0009AF8006047F0080710E59AF8006047F074
:1046F00001070BE59DF88330002B7FF48EAD9AF80F
:1047000000608DF8839001E5FFFFEF7FF0AA0008BD
:10471000F4AA000800AB0008BB46012B00F0C081E2
:10472000022B54AD20D1189A04F00F032409D35C56
:1047300005F8013D44EA09744FEA191954EA0903DE
:10474000F2D154AB5B1B5F460C9308990C989DF813
:10475000832081424FF00003B8BF01460D930691BC
:104760000F931393109391E604F00703E40844EACF
:1047700049744FEAD909303354EA09012A4605F849
:10478000013DF1D11BF0010FDBD0302BD9D030230C
:10479000023A05F8013C54AB9B1A5F460C93154650
:1047A000D3E7652E40F3E680DDE914010022002303
:1047B000FBF738FF002800F0DC81299BBF4AC8F8CE
:1047C0000020013301340122072B2A942993C8F8D1
:1047D000042000F3CC8408F10808229B129A93422B
:1047E00080F2D682169B179A1C44C8E90023299BA5
:1047F0002A940133072B299300F3248408F1080835
:10480000129B5D1E002D7FF7DBAD102D299BDFF87D
:10481000B09240F3BD8449462246B946DDF824B043
:10482000079C10260F4605E008F10808103D102DE2
:1048300040F3AA8401331032072BC8E90076CDE992
:104840002932F1DD28AA2146584604F0E5F800286F
:104850007FF42EADDDE929320DF1AC08E6E70A9BC5
:10486000069AA3EB020BBBF1000F7FF78FADBBF1F4
:10487000100F299ADFF848922CDD1D9621464E46EE
:10488000079CDDF82490102306E0ABF1100BBBF180
:10489000100F08F108081ADD01321031072AC8E9A3
:1048A0000063CDE92921F0DD28AA214648460DF113
:1048B000AC0804F0B1F800287FF4FAACABF1100BAF
:1048C000BBF1100FDDE929214FF01003E4DCB14604
:1048D0001D9E0C4601325C44072ACDE92924C8F804
:1048E0000090C8F804B000F3A08308F108084DE573
:1048F000BBF1100F299ADFF8C8912DDD4146204603
:10490000A8464C46079DDDF82490102306E0ABF145
:10491000100BBBF1100F01F1080119DD013210304D
:10492000072AC1E90043CDE92920F0DD28AA29465C
:10493000484604F071F800287FF4BAACABF1100BD4
:10494000BBF1100FDDE929202BA94FF01003E5DCA6
:104950004546A1468846044601325C44072ACDE913
:104960002924C8F80090C8F804B000F3D08108F1F9
:10497000080813E5129B012B40F38081299EC8F89B
:104980000050013601340123072E2A942996C8F8D5
:10499000043000F37C8308F10808169B179A01364F
:1049A0001C44072EC8E90023CDE9296400F37C8369
:1049B00008F10808DDE9140100220023FBF732FEAC
:1049C000002840F07881129B0136013B01351C44E0
:1049D000072EC8F800502996C8F804302A9400F32E
:1049E0005D8108F108081A9BC8F8043001361C44A0
:1049F000072E24ABCDE92964C8F800307FF7DEAC80
:104A00000799099828AA04F007F800287FF450AC09
:104A10002A9C0DF1AC08D3E4B9F1100FDDE929218E
:104A20002BDDCDE91D3B1F96DDF824B04E4610244A
:104A3000A946079D04E0103E102E08F1080817DD76
:104A40000132204B1031072AC8E90034CDE9292171
:104A5000F1DD28AA294658460DF1AC0803F0DCFF29
:104A600000287FF425AC103E102EDDE92921E7DC7B
:104A7000DDE91D3B4D46B1461F9EC8F8049001324A
:104A800009EB0104072A0F49C8F80010CDE92924D1
:104A900000F351839DF8832008F108084DE4BB46DC
:104AA0000A2C79F1000380F00C83303401238DF857
:104AB0004F415F460C930DF24F1546E630AB0008B0
:104AC00044AB000834AB0008079909981D9328AA45
:104AD00003F0A2FF00287FF4EBAB2A9C1D9B0DF195
:104AE000AC083DE40799099828AA03F095FF00282F
:104AF0007FF4DEAB2A9C0DF1AC0843E4102D299B1A
:104B000021DD099FDDF81C90102604E0103D102DDA
:104B100008F1080817DD0133BB4A1034072BC8E938
:104B20000026CDE92934F1DD28AA494638460DF1A1
:104B3000AC0803F071FF00287FF4BAAB103D102DD4
:104B4000DDE92934E7DC0133AF4AC8F804502C44CE
:104B5000072BCDE92934C8F800207FF739AC079935
:104B6000099828AA03F058FF00287FF4A1AB2A9CDB
:104B70002EE42299002940F31481DDF84090129B25
:104B80009945A8BF9946B9F1000F0BDD299B013368
:104B90004C44072BC8E900592A94299300F39A85BD
:104BA00008F10808109EB9F1000FA8BFA6EB09068E
:104BB000002E00F34683DDF840B07905AB4400F1E8
:104BC000CE84229B129A934202DBFA0740F1B8830B
:104BD000169A17991444C8E90012299A2A940132A6
:104BE000072A299200F3838508F10808129AAE1863
:104BF000A6EB0B06D51AAE42A8BF2E46002E0DDD41
:104C0000299BC8F800B001333444072BC8F804606E
:104C10002A94299300F3F18508F10808002EA8BF13
:104C2000AD1B002D7FF7CCAB102D299BDFF8DC915D
:104C300040F3AE8249462246B946DDF824B0079CCF
:104C400010260F4605E008F10808103D102D40F32E
:104C50009B8201331032072BC8E90076CDE9293257
:104C6000F1DD28AA2146584603F0D6FE00287FF43D
:104C70001FABDDE929320DF1AC08E6E7FE073FF591
:104C80007DAE299EC8F80050013601340123072E5D
:104C90002A942996C8F804307FF7A3AE079909989B
:104CA00028AA03F0B9FE00287FF402ABDDE92964ED
:104CB0000DF1AC0897E6129B5D1E002D7FF793AEB9
:104CC000102DDFF8489140F37F8222460897099C17
:104CD000079F4FF0100B05E008F10808103D102D5C
:104CE00040F3708201361032072EC8E9009BCDE9EF
:104CF0002962F1DD28AA3946204603F08DFE0028FE
:104D00007FF4D6AADDE929620DF1AC08E6E7079940
:104D1000099828AA03F080FE00287FF4C9AA2A9CDB
:104D20000DF1AC08FFF73ABB17F0100372D117F082
:104D3000400200F0BD820E9A52F8044B0E92994642
:104D4000A4B228E453F8044B0E93FB0656D47D0618
:104D500051D544F3C0394B4624B2FFF7C1BB1BF019
:104D6000100340F036811BF0400200F092820E9A50
:104D700052F8044B0E929946A4B201230EE42D235F
:104D800064428DF8833069EB4909BB46012308E48E
:104D9000F8077FF515AB25E59AF800600E93FFF74D
:104DA000B5B9299B1A4AC8F8002001330134012201
:104DB000072B2A942993C8F8042000F3708408F183
:104DC0000808002940F01E82129A07F001031343DD
:104DD0003FF4F6AA169B1799E218C8E90013299B1D
:104DE0002A920133072B299300F3618308F1080805
:104DF00019E254ADA9E4B80500F1B4824FEAE479B0
:104E00004B46FFF76DBB00BF34AB000844AB000856
:104E100030AB00080E9B53F8044B0E93FFF7BBBB5F
:104E2000DDE9140102460B46FCF796FC002840F031
:104E3000A085612E00F05085412E00F09982089BDC
:104E4000013326F02003069300F08F85472B00F0F6
:104E50007985DDE9141247F480730F931346002B14
:104E6000C0F2ED850C9300231D938B460D93069B9A
:104E7000462B00F04A84452B00F04F85089901919C
:104E800026A9049123A9039122A9029102210C9B36
:104E9000099800915A4600F083FF069B472B054670
:104EA00040F01C8617F0010FB9460F9F40F0D984DF
:104EB000269B5B1B1293069B472B00F01883069BD7
:104EC000462B00F05F84229B1093109B069A013BB7
:104ED000412A229300F0AA85F2B20021002BB8BF2C
:104EE000109B8DF89020BABFC3F101032D222B2215
:104EF000092B8DF8912040F363850DF19F04BD4F80
:104F00002246104687FB0321DA17C2EBA10202EB0F
:104F10008201A3EB4101303100F8011C19466329DD
:104F2000134600F1FF32ECDC3033D9B2831E9C42D1
:104F300002F8011C40F2CE8513460DF1920201E009
:104F400013F8011B02F8011B9C42F9D10DF1A103DA
:104F50000DF192021B1A134424AA9B1A1A93129B56
:104F60001A9A012B1A440C9240F372850C9B169AE4
:104F700013440C930C9A002329F4806722EAE2720E
:104F800047F480770F930692139310931D9B002B89
:104F900040F0DE829DF883200893FFF777BA0E9BDE
:104FA0000B9853F8041B0E93C217C1E90002554633
:104FB000FFF724BA199B002B3FF42FA9199B1B78EC
:104FC000002B3FF42AA99AF8006047F48067FFF7A6
:104FD0009DB80E9B53F8044B0E930123FFF7DEBAE6
:104FE000854B189317F0200949D00E9B073323F007
:104FF0000703D3F8049053F8084B0E93F80709D52C
:1050000054EA090306D030238DF8856047F0020783
:105010008DF8843027F4806B0223FFF7BFBABB46BC
:10502000FFF723BB754B1893DCE70799099828AA6B
:1050300003F0F2FC00287FF43BA92A9C0DF1AC0898
:10504000FFF7A4B90799099828AA03F0E5FC0028FE
:105050007FF42EA92A9C0DF1AC08FFF7D1BB062BDB
:10506000294628BF062308950D952A460693644DC8
:105070000E940C930F9113911091FFF707BA17F04C
:10508000100369D00E9B53F8044B0E93B6E70799B3
:10509000099828AA03F0C0FC00287FF409A9DDE9DB
:1050A00029640DF1AC0878E40799099828AA03F05F
:1050B000B3FC00287FF4FCA8DDE929640DF1AC08FD
:1050C00078E40BF480630022CDE90CA80696DDF8A5
:1050D000648054AF16469A460CE0002320464946A9
:1050E0000A22FBF73BFE0A2C79F100031BD304468E
:1050F00089462F4620460A2200234946FBF72EFE0A
:1051000030327D1E013607F8012CBAF1000FE4D0D1
:1051100098F800309E42E0D1FF2EDED00A2C79F1C3
:10512000000380F0F480CDF864801296DDE90CA8CD
:10513000069EFFF706BB079909981D9328AA03F05E
:105140006BFC00287FF4B4A89DF883202A9C1D9B4B
:105150000DF1AC08FFF7F1B817F0400200F0B6808F
:105160000E9A52F8044B0E929946A4B246E707995C
:10517000099828AA03F050FC00287FF499A82A9CDB
:105180000DF1AC08FFF729BB14463A464F4691464D
:1051900001332C44072BC8F80090C8F80450CDE91F
:1051A00029347FF70BA92BE4012BBB467FF4B8AA67
:1051B0007BE40E9B0B9953F8042B554611600E931C
:1051C000FFF71CB9089F144601362C44072ECDE981
:1051D0002964C8F80090C8F804507FF702AC5DE578
:1051E0002846CDF820900E94FBF74AFF03460C901A
:1051F000FFF7B4B96766666600AB000814AB000839
:1052000028AB0008169B1798E218C8E90003299BF1
:105210002A920133072B299300F3498108F10808EA
:105220000029C0F2FA821299C8F8005001338C1894
:10523000072BCDE92934C8F804107FF7BFA8FFF782
:10524000DFBB102E299BDFF8C09252DD4846424654
:105250002146A846B946099C079D4FF0100B07460A
:1052600003E00832103E102E3DDD01331031072BD4
:10527000C2E9007BCDE92931F3DD28AA2946204681
:1052800003F0CAFB00287FF413A8DDE929312BAA1B
:10529000E8E70E9B1BF4007914BF53F8044B53F856
:1052A000044B0E931CBF9146E4B20123FFF776B97D
:1052B0000E9B17F4007914BF53F8044B53F8044BBA
:1052C0000E931CBF9146E4B2FFF765B90E9B17F42D
:1052D000007914BF53F8044B53F8044B0E931CBFD2
:1052E0009146E4B28AE6454690463A460C464F4619
:1052F000914601333444072BCDE92934C8F8009096
:10530000C8F8046000F3E68008F1080853E41C9B29
:105310001B99ED1A1A46284603F010FB98F8013045
:105320000BB108F10108204649460A220023002655
:10533000FBF714FDDBE62D228DF88320FFF796B8EE
:10534000129AAE18A6EB0B06D51AAE42A8BF2E468F
:1053500064E40E9B0B9953F8042B0E931180554671
:10536000FFF74CB844F3C0194B4664B2FFF7B8B826
:1053700030238DF8843058238DF88530089B632BBB
:1053800047F0020400F39B8200230D933BADDDE95F
:10539000141247F481730F931346002B2746C0F273
:1053A00020820C9326F02003069300238B461D9346
:1053B000612E00F0ED82412E7FF459AD22AA0C99A6
:1053C000584603F02BFA00224FF07F53FBF7B2FF51
:1053D00002460B46CDE9102300220023FBF722F9F9
:1053E00008B101232293494B0C93089BCDE912A6E7
:1053F000CDE91E78DDF830A0DDE9106703F1FF3953
:10540000AB46109506E00022002309F1FF39FBF7B7
:1054100009F9E8B93E4B002230463946FBF78AFFCE
:105420000F460646FCF7AEF90446FBF73BF80B4681
:10543000024639463046FAF7E7FE1AF80430B9F169
:10544000FF3FD8464D460BF8013B06460F46DAD1E2
:10545000304639462F4BDDF848A0139ECDF84880E2
:105460000022A946DDF87C80109D1E9FCDE9100129
:10547000FBF700F9002840F03482DDE91001254BEC
:105480000022FBF7CFF810B1E10700F12A824B466A
:10549000002B06DB01335B4430220BF8012B5B450C
:1054A000FBD1ABEB0503B94612930F9F03E50799B8
:1054B000099828AA03F0B0FA00287EF4F9AEDDE9D5
:1054C000293222990DF1AC08AAE6906D02F02EF86F
:1054D000FEF7C0BE0799099828AA03F09DFA002894
:1054E0007EF4E6AE2A9C0DF1AC08FFF764BB229B6C
:1054F0001093DA1C02DB089A93420DDD023E26F07F
:1055000020030693E1E400BF44AB000814AB00089D
:10551000000030400000E03F109B129A9342C0F21E
:10552000568119F0010F00F08782169A13440C93EC
:1055300019F4806F03D0109B002B00F350820C9B5A
:1055400023EAE3730693672600230F9313931DE565
:105550002D2200238DF883200893FEF79ABF129B1B
:10556000CDF830A04246DDF84C801097EB18089338
:105570005E46199FDDF87090DDF824A0DDF81CB0C0
:105580000F9B13952146B8F1000F2ED0002B6BD145
:10559000013F08F1FF381B9BC2E90039299B013309
:1055A0004944072B2A91299362DC0832089B3878FA
:1055B0009B1B8342A8BF0346002B1C460ADD29988B
:1055C000013019440728C2E900632A9129905ADC66
:1055D00038780832002CACBF051B0546002D15DCC1
:1055E00006440F9BB8F1000FD0D1002B3CD1DDE970
:1055F0001235EB189E421997B346DDF830A0109F84
:1056000090460C4628BF9B46FFF7DBBA102D299821
:105610001DDD102404E0103D102D02F1080216DDFE
:105620000130AC4B10310728C2E90034CDE9290123
:10563000F1DD28AA5946504603F0EEF900287EF421
:1056400037AE103D102DDDE929012BAAE8DC013031
:10565000A04B556029440728CDE9290113602CDCB3
:10566000387808320644BCE70F9B013B0F9392E762
:1056700028AA5946504603F0CFF900287EF418AE08
:105680002A992BAA92E728AA5946504603F0C4F952
:1056900000287EF40DAE38782A992BAA9AE707994C
:1056A000099828AA03F0B8F900287EF401AE2299DF
:1056B0002A9C0DF1AC08FFF784BB28AA5946504636
:1056C00003F0AAF900287EF4F3AD38782A992BAAC2
:1056D000064486E70799099828AA03F09DF900284F
:1056E0007EF4E6AD2A9C0DF1AC08FFF75BBA079992
:1056F000099828AA03F090F900287EF4D9AD229BDE
:105700002A9C0DF1AC08FFF771BA0899019126A9FE
:10571000049123A9039122A9029103210C9B0998CA
:1057200000915A4600F03CFB0378302B054600F010
:105730009581229B089AB94613440F9FEC180C9947
:10574000584600220023FAF76DFF10B12346FFF7F9
:10575000B0BB269BA342BFF4ACAB30215A1C2692AF
:105760001970269B9C42F9D8FFF7A3BB089B9DF8B4
:1057700083200E9406930C9308900F901390109032
:10578000FEF784BE229A1092002A40F38181089984
:1057900009F001030B4340F05581109B0C936626E2
:1057A00019F4806F40F01C810C9B23EAE37306938D
:1057B000CAE60799099828AA03F02EF900283EF4B2
:1057C00025AEFEF77BBD00230893FEF7A1BC129B1C
:1057D000169A9A18109B0C92002B40F34D81672665
:1057E000DEE726F020030693DDE914349B4604F13E
:1057F00000430C932D231D93DAE50799099828AAF5
:1058000003F00AF900287EF453AD229D129B2A9CD6
:105810005D1B0DF1AC08FFF701BA4E421031DFF805
:10582000B49034DA4146DDF824B0A8461024079D30
:1058300003E00831103E102E27DD01331032072B14
:10584000C1E90094CDE92932F3DD28AA294658465A
:1058500003F0E2F800287EF42BADDDE929322BA914
:10586000E8E7089BEC186AE7079B5B6EDD0707D447
:10587000079B9B899C0503D4079B986D01F056FEFE
:105880004FF0FF330B93FEF722BD454688460133A8
:105890003244072BCDE92932C8F80090C8F80460DB
:1058A0007FF7A4AA0799099828AA03F0B5F8002859
:1058B0007EF4FEACDDE929320DF1AC08B3E40998C1
:1058C000591C01F0DDFE0546002800F00D810D9009
:1058D0005DE500BF44AB000830238DF884307823A9
:1058E0004AE5129B26930C9B1BF8012CD97B8A421C
:1058F0005B4609D1302003F8010C269B5A1E2692E4
:1059000013F8012C9142F6D0392A0BBF0C9A0132C0
:10591000927AD2B203F8012CC3E508990C9B09983E
:105920004C1C26A9049123A9039122A902910221CA
:105930005A460194009100F033FA0546B9462C44CA
:105940000F9FFCE6089B002B08BF0123089347F438
:1059500080730F93159B002BC0F2AE80DDF850B022
:105960001D900C930D90FFF789BA06230893FFF75B
:1059700070BA159B604D002BB4BF2D229DF883207B
:105980005E4BB8BF8DF8832027F08007FEF772BD0D
:1059900022AA0C99584602F041FF00224FF07F5393
:1059A000FBF7C8FC02460B46CDE91023002200237A
:1059B000FAF738FE08B101232293514B0C9314E5FA
:1059C000002962D130228DF892200DF193023033FC
:1059D00002F8013B24ABD31A1A93FFF7C0BA67262B
:1059E00019990B78FF2B7BD00024109A204603E0F6
:1059F00001300131FF2B08D0934206DAD21A4B78DE
:105A0000002BF5D10B780134F4E719911092139023
:105A10000F940F9A139B1C9913440C9A01FB0323B8
:105A20000C9323EAE3730693FFF7B0BA06F10F0273
:105A3000D2B20121FFF752BA109B0C9378E50023F4
:105A40000D93D1E6169BD31819440C916626A7E650
:105A500019F0010F3FF48EAAFFF788BA0C99584647
:105A600000220023FAF7DEFD00287FF462AE089BD7
:105A7000C3F1010322935DE6C3F101031A4422EA54
:105A8000E2730C92069367265EE50DF192029EE7A3
:105A9000089A09F0010959EA020304D10123069387
:105AA00066260C9350E5169B01331A4422EAE273F2
:105AB0000C920693662647E50D9095E60E9B9AF8A4
:105AC0000160924653F8042B0E9342EAE272089268
:105AD000FEF71CBB02231A93FFF741BA089C2DE77F
:105AE00000230F93139394E7079A938943F040039D
:105AF0009381FEF7E3BB00BFF8AA0008FCAA0008E8
:105B000000AB0008F0B51F468B89ADF26C4D23F059
