:020000040800F2
:1000000000000220B11400088D1300088F130008AF
:1000100091130008931300089513000800000000D6
:10002000000000000000000000000000971300081E
:1000300099130008000000009B1300089D1300089E
:100040000115000801150008011500080115000838
:100050000115000801150008011500080115000828
:100060000115000801150008011500080115000818
:100070000115000801150008011500080115000808
:1000800001150008011500080115000801150008F8
:1000900001150008011500080115000801150008E8
:1000A00001150008011500080115000801150008D8
:1000B00001150008011500080115000801150008C8
:1000C00001150008011500080115000801150008B8
:1000D0000115000801150008A51300080115000806
:1000E0000115000801150008011500080115000898
:1000F0000115000801150008011500080115000888
:100100000115000801150008011500080115000877
:100110000115000801150008011500080115000867
:100120000115000801150008011500080115000857
:100130000115000800000000000000000115000883
:100140000115000801150008011500080115000837
:100150000115000801150008011500080115000827
:100160000115000801150008011500080115000817
:100170000115000801150008000000000000000043
:0801800001150008011500083B
:1001C00010B5054C237833B9044B13B10448AFF391
:1001D00000800123237010BD4C08002000000000A7
:1001E0008848000808B5034B1BB103490348AFF327
:1001F000008008BD0000000050080020884800086A
:1002000081F0004102E000BF83F0004330B54FEAC7
:1002100041044FEA430594EA050F08BF90EA020F34
:100220001FBF54EA000C55EA020C7FEA645C7FEAC7
:10023000655C00F0E2804FEA5454D4EB5555B8BFEA
:100240006D420CDD2C4480EA020281EA030382EA5B
:10025000000083EA010180EA020281EA0303362DED
:1002600088BF30BD11F0004F4FEA01314FF4801CC0
:100270004CEA113102D0404261EB410113F0004FD2
:100280004FEA03334CEA133302D0524263EB430389
:1002900094EA050F00F0A780A4F10104D5F1200E27
:1002A0000DDB02FA0EFC22FA05F2801841F1000182
:1002B00003FA0EF2801843FA05F359410EE0A5F156
:1002C00020050EF1200E012A03FA0EFC28BF4CF087
:1002D000020C43FA05F3C01851EBE37101F000453D
:1002E00007D54FF0000EDCF1000C7EEB00006EEB4A
:1002F0000101B1F5801F1BD3B1F5001F0CD34908D4
:100300005FEA30004FEA3C0C04F101044FEA44522A
:1003100012F5800F80F09A80BCF1004F08BF5FEAB1
:10032000500C50F1000041EB045141EA050130BD91
:100330005FEA4C0C404141EB0101013C28BFB1F5A3
:10034000801FE9D291F0000F04BF01460020B1FAEE
:1003500081F308BF2033A3F10B03B3F120020CDAC1
:100360000C3208DD02F1140CC2F10C0201FA0CF09F
:1003700021FA02F10CE002F11402D8BFC2F1200C04
:1003800001FA02F120FA0CFCDCBF41EA0C019040BA
:10039000E41AA2BF01EB0451294330BD6FEA040403
:1003A0001F3C1CDA0C340EDC04F11404C4F12002EE
:1003B00020FA04F001FA02F340EA030021FA04F300
:1003C00045EA030130BDC4F10C04C4F1200220FA57
:1003D00002F001FA04F340EA0300294630BD21FA95
:1003E00004F0294630BD94F0000F83F4801306BF5B
:1003F00081F480110134013D4EE77FEA645C18BF4F
:100400007FEA655C29D094EA050F08BF90EA020FE5
:1004100005D054EA000C04BF1946104630BD91EADD
:10042000030F1EBF0021002030BD5FEA545C05D1E0
:100430004000494128BF41F0004130BD14F580041F
:100440003CBF01F5801130BD01F0004545F0FE4193
:1004500041F470014FF0000030BD7FEA645C1ABFC8
:10046000194610467FEA655C1CBF0B46024650EAFF
:10047000013406BF52EA033591EA030F41F400212B
:1004800030BD00BF90F0000F04BF0021704730B5B1
:100490004FF4806404F132044FF000054FF0000186
:1004A00050E700BF90F0000F04BF0021704730B547
:1004B0004FF4806404F1320410F0004548BF40421C
:1004C0004FF000013EE700BF42004FEAE2014FEA71
:1004D00031014FEA02701FBF12F07F4393F07F4F4C
:1004E00081F06051704732F07F4208BF704793F04F
:1004F0007F4F04BF41F40021704730B54FF4607462
:1005000001F0004521F000411CE700BF50EA010264
:1005100008BF704730B54FF000050AE050EA01020D
:1005200008BF704730B511F0004502D5404261EB7D
:1005300041014FF4806404F132045FEA915C3FF4BE
:10054000D8AE4FF003025FEADC0C18BF03325FEA5B
:10055000DC0C18BF033202EBDC02C2F1200300FA0C
:1005600003FC20FA02F001FA03FE40EA0E0021FA31
:1005700002F11444BDE600BF4FF0FF3C06E000BFAF
:100580004FF0010C02E000BF4FF0010C4DF804CD1C
:100590004FEA410C7FEA6C5C4FEA430C18BF7FEADC
:1005A0006C5C1BD001B050EA410C0CBF52EA430C0A
:1005B00091EA030F02BF90EA020F0020704710F18A
:1005C000000F91EA030F58BF994208BF90422CBF19
:1005D000D8176FEAE37040F0010070474FEA410C12
:1005E0007FEA6C5C02D150EA013C07D14FEA430C30
:1005F0007FEA6C5CD6D152EA033CD3D05DF8040BA1
:10060000704700BF8446104662468C4619466346D2
:1006100000E000BF01B5FFF7B7FF002848BF10F1A9
:10062000000F01BD4DF808EDFFF7F4FF0CBF0120EE
:1006300000205DF808FB00BF4DF808EDFFF7EAFF6A
:1006400034BF012000205DF808FB00BF4DF808ED25
:10065000FFF7E0FF94BF012000205DF808FB00BF1A
:100660004DF808EDFFF7CEFF94BF012000205DF8A4
:1006700008FB00BF4DF808EDFFF7C4FF34BF0120B1
:1006800000205DF808FB00BF80F0004002E000BFE2
:1006900081F0004142001FBF5FEA410392EA030F6D
:1006A0007FEA226C7FEA236C6AD04FEA1262D2EBB7
:1006B0001363C1BFD218414048404140B8BF5B42BC
:1006C000192B88BF704710F0004F40F4000020F055
:1006D0007F4018BF404211F0004F41F4000121F06B
:1006E0007F4118BF494292EA030F3FD0A2F10102B5
:1006F00041FA03FC10EB0C00C3F1200301FA03F1F3
:1007000000F0004302D5494260EB4000B0F5000F15
:1007100013D3B0F1807F06D340084FEA310102F1D4
:100720000102FE2A51D2B1F1004F40EBC25008BF86
:1007300020F0010040EA03007047490040EB000050
:10074000013A28BFB0F5000FEDD2B0FA80FCACF151
:10075000080CB2EB0C0200FA0CF0AABF00EBC2507E
:1007600052421843BCBFD0401843704792F0000F6C
:1007700081F4000106BF80F400000132013BB5E7BF
:100780004FEA41037FEA226C18BF7FEA236C21D035
:1007900092EA030F04D092F0000F08BF084670479A
:1007A00090EA010F1CBF0020704712F07F4F04D168
:1007B000400028BF40F00040704712F100723CBF7B
:1007C00000F50000704700F0004343F0FE4040F4A5
:1007D000000070477FEA226216BF08467FEA236363
:1007E0000146420206BF5FEA412390EA010F40F44E
:1007F000800070474FF0000304E000BF10F000439A
:1008000048BF40425FEA000C08BF704743F0964380
:1008100001464FF000001CE050EA010208BF70479B
:100820004FF000030AE000BF50EA010208BF704722
:1008300011F0004302D5404261EB41015FEA010C37
:1008400002BF84460146002043F0B64308BFA3F12F
:100850008053A3F50003BCFA8CF2083AA3EBC25311
:1008600010DB01FA02FC634400FA02FCC2F1200230
:10087000BCF1004F20FA02F243EB020008BF20F067
:100880000100704702F1200201FA02FCC2F12002CD
:1008900050EA4C0021FA02F243EB020008BF20EAC2
:1008A000DC7070474FF0FF0C1CEAD0521EBF1CEAF0
:1008B000D15392EA0C0F93EA0C0F6FD01A4480EADE
:1008C000010C400218BF5FEA41211ED04FF00063C7
:1008D00043EA501043EA5111A0FB01310CF00040F3
:1008E000B1F5000F3EBF490041EAD3715B0040EA19
:1008F000010062F17F02FD2A1DD8B3F1004F40EBE9
:10090000C25008BF20F00100704790F0000F0CF0BB
:10091000004C08BF49024CEA502040EA51207F3A7F
:10092000C2BFD2F1FF0340EAC250704740F400005A
:100930004FF00003013A5DDC12F1190FDCBF00F04B
:1009400000407047C2F10002410021FA02F1C2F1F9
:10095000200200FA02FC5FEA310040F1000053EA95
:100960004C0308BF20EADC70704792F0000F00F0E3
:10097000004C02BF400010F4000F013AF9D040EAE9
:100980000C0093F0000F01F0004C02BF490011F47D
:10099000000F013BF9D041EA0C018FE70CEAD1537B
:1009A00092EA0C0F18BF93EA0C0F0AD030F0004CFB
:1009B00018BF31F0004CD8D180EA010000F00040AF
:1009C000704790F0000F17BF90F0004F084691F06D
:1009D000000F91F0004F14D092EA0C0F01D14202A7
:1009E0000FD193EA0C0F03D14B0218BF084608D170
:1009F00080EA010000F0004040F0FE4040F40000BA
:100A0000704740F0FE4040F4400070474FF0FF0C4C
:100A10001CEAD0521EBF1CEAD15392EA0C0F93EA93
:100A20000C0F69D0A2EB030280EA010C49024FEAE5
:100A3000402037D04FF0805343EA111143EA10139E
:100A40000CF000408B4238BF5B0042F17D024FF456
:100A5000000C8B4224BF5B1A40EA0C00B3EB510F31
:100A600024BFA3EB510340EA5C00B3EB910F24BF1A
:100A7000A3EB910340EA9C00B3EBD10F24BFA3EB9F
:100A8000D10340EADC001B0118BF5FEA1C1CE0D167
:100A9000FD2A3FF650AF8B4240EBC25008BF20F01A
:100AA000010070470CF0004C4CEA50207F32C2BF6E
:100AB000D2F1FF0340EAC250704740F400004FF00B
:100AC0000003013A37E792F0000F00F0004C02BF3C
:100AD000400010F4000F013AF9D040EA0C0093F006
:100AE000000F01F0004C02BF490011F4000F013B60
:100AF000F9D041EA0C0195E70CEAD15392EA0C0FC8
:100B000008D142027FF47DAF93EA0C0F7FF470AFFF
:100B1000084676E793EA0C0F04D14B023FF44CAF42
:100B200008466EE730F0004C18BF31F0004CCAD1D7
:100B300030F000427FF45CAF31F000437FF43CAF13
:100B40005FE700BF4FF0FF3C06E000BF4FF0010C35
:100B500002E000BF4FF0010C4DF804CD4FEA400217
:100B60004FEA41037FEA226C18BF7FEA236C11D061
:100B700001B052EA530C18BF90EA010F58BFB2EB14
:100B8000030088BFC81738BF6FEAE17018BF40F094
:100B9000010070477FEA226C02D15FEA402C05D148
:100BA0007FEA236CE4D15FEA412CE1D05DF8040BCD
:100BB000704700BF844608466146FFE70FB5FFF760
:100BC000C9FF002848BF10F1000F0FBD4DF808ED18
:100BD000FFF7F4FF0CBF012000205DF808FB00BF09
:100BE0004DF808EDFFF7EAFF34BF012000205DF863
:100BF00008FB00BF4DF808EDFFF7E0FF94BF0120B0
:100C000000205DF808FB00BF4DF808EDFFF7D2FFAC
:100C100094BF012000205DF808FB00BF4DF808EDEF
:100C2000FFF7C8FF34BF012000205DF808FB00BFBC
:100C300053B94AB9002908BF00281CBF4FF0FF3143
:100C40004FF0FF3000F074B9ADF1080C6DE904CE3F
:100C500000F006F8DDF804E0DDE9022304B0704797
:100C60002DE9F047089E0D4604468846002B4DD1DD
:100C70008A42944668D9B2FA82F252B101FA02F37A
:100C8000C2F1200120FA01F10CFA02FC41EA03084A
:100C900094404FEA1C45210CB8FBF5FE1FFA8CF777
:100CA00005FB1E8341EA03430EFB07F199420BD972
:100CB0001CEB03030EF1FF3080F01E81994240F2DD
:100CC0001B81AEF1020E63445B1AA4B2B3FBF5F0D4
:100CD00005FB103344EA034400FB07F7A7420AD997
:100CE0001CEB040400F1FF3380F00881A74240F2BE
:100CF000058164440238E41B40EA0E4000211EB125
:100D0000D4400023C6E90043BDE8F0878B4208D9F0
:100D1000002E00F0EE800021C6E900050846BDE87F
:100D2000F087B3FA83F100294AD1AB4202D3824261
:100D300000F2F980841A65EB030301209846002E27
:100D4000E2D0C6E90048DFE702B9FFDEB2FA82F27C
:100D5000002A40F09180A1EB0C054FEA1C471FFAD6
:100D60008CFE0121B5FBF7F307FB1350250C45EA78
:100D700000450EFB03F0A84208D91CEB050503F162
:100D8000FF3802D2A84200F2CB8043462D1AA4B20B
:100D9000B5FBF7F007FB105544EA05440EFB00FED7
:100DA000A64508D91CEB040400F1FF3502D2A64584
:100DB00000F2BB802846A4EB0E0440EA03409EE705
:100DC000C1F120078B4022FA07FC4CEA030C20FA01
:100DD00007F405FA01F31C43FD404FEA1C4900FAF1
:100DE00001F3B5FBF9F8200C1FFA8CFE09FB18552E
:100DF00040EA054508FB0EF0A84202FA01F20BD9C1
:100E00001CEB050508F1FF3A80F08880A84240F20B
:100E10008580A8F1020865442D1AA4B2B5FBF9F04B
:100E200009FB105544EA054500FB0EFEAE4508D906
:100E30001CEB050500F1FF346CD2AE456AD90238CF
:100E4000654440EA0840A0FB0294A5EB0E05A542CC
:100E5000C846A64656D353D05EB1B3EB080265EB45
:100E60000E0505FA07F722FA01F3CD401F43C6E944
:100E700000750021BDE8F087C2F1200320FA03F1DC
:100E80000CFA02FC25FA03F395400D434FEA1C4788
:100E90001FFA8CFEB3FBF7F107FB11302B0C43EA72
:100EA000004301FB0EF0984204FA02F408D91CEB4F
:100EB000030301F1FF382FD298422DD90239634440
:100EC0001B1AADB2B3FBF7F007FB103345EA03453D
:100ED00000FB0EF3AB4208D91CEB050500F1FF380F
:100EE00016D2AB4214D902386544ED1A40EA0141EA
:100EF00038E73146304607E78646E5E61846FAE623
:100F00004B45A9D2B9EB020864EB0C0E0138A3E7FC
:100F10004046EAE7204694E74146D1E7D0467BE7E2
:100F2000023B654432E7084609E76444023842E779
:100F3000704700BF0000000000000000000000003B
:100F400090F800F06DE9024520F007016FF0000C09
:100F500010F0070491F820F040F049804FF00004B1
:100F60006FF00700D1E9002391F840F000F108008C
:100F700082FA4CF2A4FA8CF283FA4CF3A2FA8CF3C4
:100F80004BBBD1E9022382FA4CF200F10800A4FA2B
:100F90008CF283FA4CF3A2FA8CF3E3B9D1E904237F
:100FA00082FA4CF200F10800A4FA8CF283FA4CF3B6
:100FB000A2FA8CF37BB9D1E9062301F1200182FA70
:100FC0004CF200F10800A4FA8CF283FA4CF3A2FA76
:100FD0008CF3002BC6D0002A04BF04301A4612BA84
:100FE000B2FA82F2FDE8024500EBD2007047D1E987
:100FF000002304F00305C4F100004FEAC50514F016
:10100000040F91F840F00CFA05F562EA05021CBFE6
:1010100063EA050362464FF00004A9E70000000000
:1010200001F0FF01102A2BDB10F0070F08D010F899
:10103000013B013A8B422DD010F0070F42B3F6D19D
:10104000F0B441EA012141EA014122F007047FF0B6
:1010500000070023F0E80256083C85EA010586EA0D
:10106000010685FA47F5A3FA87F586FA47F6A5FA49
:1010700087F68EB9EED1F0BC01F0FF0102F0070255
:1010800032B110F8013B013A83EA010313B1F8D100
:101090000020704701387047002D06BF35460338E1
:1010A000073815F0010F07D1013015F4807F02BF1A
:1010B000013015F4C03F0130F0BC0138704700BF6B
:1010C000844641EA000313F003036DD1403A41D353
:1010D00051F8043B40F8043B51F8043B40F8043B12
:1010E00051F8043B40F8043B51F8043B40F8043B02
:1010F00051F8043B40F8043B51F8043B40F8043BF2
:1011000051F8043B40F8043B51F8043B40F8043BE1
:1011100051F8043B40F8043B51F8043B40F8043BD1
:1011200051F8043B40F8043B51F8043B40F8043BC1
:1011300051F8043B40F8043B51F8043B40F8043BB1
:1011400051F8043B40F8043B51F8043B40F8043BA1
:10115000403ABDD2303211D351F8043B40F8043B41
:1011600051F8043B40F8043B51F8043B40F8043B81
:1011700051F8043B40F8043B103AEDD20C3205D351
:1011800051F8043B40F8043B043AF9D2043208D049
:10119000D2071CBF11F8013B00F8013B01D30B88BB
:1011A00003806046704700BF082A13D38B078DD099
:1011B00010F003038AD0C3F10403D21ADB071CBF6B
:1011C00011F8013B00F8013B80D331F8023B20F8D5
:1011D000023B7BE7043AD9D3013A11F8013B00F80E
:1011E000013BF9D20B7803704B7843708B78837096
:1011F0006046704710B588B00022039204920592B1
:10120000069207920092184B196B41F08001196306
:10121000196B01F08001009100990192196B41F066
:1012200001011963196B01F0010101910199029209
:10123000196B41F0020119631B6B03F00203029367
:10124000029B0A4C3021204600F07EFB30230393A2
:101250000123049305930323069303A9204600F07A
:1012600081FA08B010BD00BF0038024000040240FF
:1012700072B6FEE700B595B03022002108A801F053
:101280005BFD002303930493059306930793019357
:10129000204A116C41F080511164126C02F08052AE
:1012A0000192019A02931C4B1A6842F480421A6020
:1012B0001B6803F480430293029B012308934FF4BD
:1012C0008033099302220E924FF480030F9304237C
:1012D0001093A82111911292139308A800F03AFBE1
:1012E00098B90F23039302230493002305934FF42B
:1012F000A05306934FF480530793052103A800F0F1
:101300008FFD20B915B05DF804FBFFF7B1FFFFF7C3
:10131000AFFF00BF003802400070004008B50B4826
:1013200001F070FC00F014F9FFF7A4FFFFF762FF73
:1013300000F066F801F0E0FA00F022FE044BA3FB97
:101340000030800C00F09CF9FEE700BF6C08002024
:1013500083DE1B4382B0002100910B4B5A6C42F498
:1013600080425A645A6C02F480420092009A0191C1
:101370001A6C42F080521A641B6C03F08053019384
:10138000019B02B0704700BF00380240FEE7FEE755
:10139000FEE7FEE7FEE770477047704708B500F0CC
:1013A000F1F808BD08B5024801F0D2F808BD00BF49
:1013B0006C08002010B503460C4A0D490D48006822
:1013C00040B10C4800680344521A934206D8094AB7
:1013D000136010BD0748084C0460F2E701F082FC7E
:1013E0000C2303604FF0FF30F3E700BF0000022042
:1013F0000004000068080020180900207047000061
:1014000008B50A480A4B03604FF4E13343600023F8
:101410008360C36003610C2242618361C36100F099
:10142000FFFE00B908BDFFF723FFFBE76C080020B3
:101430000044004010B588B0002303930493059343
:10144000069307930268184B9A4201D008B010BD6A
:101450000024019403F5FA331A6C42F400321A6442
:101460001A6C02F400320192019A02941A6B42F053
:1014700001021A631B6B03F001030293029B0C230E
:10148000039302230493032306930723079303A9DB
:10149000064800F067F922462146262000F0AAF807
:1014A000262000F0DFF8D1E70044004000000240B1
:1014B000DFF834D00D480E490E4A002302E0D4581C
:1014C000C4500433C4188C42F9D30B4A0B4C00238C
:1014D00001E013600432A242FBD3FFF78FFF01F05B
:1014E00007FCFFF71BFF70470000022000000020F0
:1014F0004C080020F04800084C0800201409002087
:10150000FEE7000010B504460E4B18784FF47A73CE
:10151000B3FBF0F30C4A1068B0FBF3F000F0B0F846
:1015200068B90F2C01D901200AE0002221464FF0B2
:10153000FF3000F05FF8054B1C60002000E0012048
:1015400010BD00BF040000200000002008000020A3
:1015500008B50B4B1A6842F400721A601A6842F41C
:1015600080621A601A6842F480721A60032000F0E8
:101570002FF80F20FFF7C6FFFFF7ECFE002008BD95
:10158000003C0240034A1168034B1B780B44136074
:10159000704700BFB008002004000020014B18680D
:1015A000704700BFB008002038B50446FFF7F6FFCB
:1015B0000546B4F1FF3F02D0044B1B781C44FFF7F3
:1015C000EDFF401BA042FAD338BD00BF040000204D
:1015D000074AD36823F4E0631B041B0C000200F4E9
:1015E000E060034343F0BF6343F40033D3607047CC
:1015F00000ED00E000B5194BDB68C3F30223C3F133
:10160000070CBCF1040F28BF4FF0040C03F1040ECB
:10161000BEF1060F18D9033B4FF0FF3E0EFA0CFC4B
:1016200021EA0C0199400EFA03F322EA030319435D
:1016300000280BDB0901C9B200F1604000F56140F0
:1016400080F800135DF804FB0023E5E700F00F00CD
:101650000901C9B2024B1954F4E700BF00ED00E0E4
:1016600014ED00E0002807DB00F01F024009012311
:101670009340024A42F82030704700BF00E100E08A
:101680000138B0F1807F0BD24FF0E0235861054A5A
:10169000F02182F823100020986107221A61704718
:1016A0000120704700ED00E070B50446866DFFF73D
:1016B00075FF94F83530DBB2022B06D080236365CA
:1016C000002384F83430012070BD05462268136879
:1016D00023F0160313602268536923F080035361DB
:1016E000236CE3B12268136823F0080313602268B7
:1016F000136823F00103136023681B6813F0010FC4
:1017000011D0FFF74BFF431B052BF5D92023636551
:10171000032084F83500002384F83430D4E7A36C28
:10172000002BDFD1E3E7E26D3F239340B360012359
:1017300084F83530002084F83400C5E790F835305F
:10174000DBB2022B03D080234365012070470523C1
:1017500080F835300268136823F00103136000201D
:101760007047000000230F2B00F2E48070B582B0B8
:1017700060E085685E000324B44025EA0405CC6877
:10178000B4402C438460456825EA02054C68C4F3E4
:1017900000129A402A4342605AE0DC08083450F8AC
:1017A000246003F0070295000F22AA4026EA020EE9
:1017B0000A69AA4042EA0E0240F824205CE00722AF
:1017C00000E0002202FA0EF22A4302345A4D45F894
:1017D00024205A4A94686FEA0C0224EA0C054E68E9
:1017E00016F4801F01D04CEA0405544CA560E4684F
:1017F00002EA04054E6816F4001F01D04CEA040505
:101800004E4CE560646802EA04054E6816F4003F39
:1018100001D04CEA0405494C6560246822404D68BB
:1018200015F4803F01D04CEA0402444C226001339D
:101830000F2B7DD801229A400C6804EA020C32EA90
:101840000404F4D14C6804F00304013C012C90D949
:101850004A6802F00302032A09D0C4685D0003222B
:10186000AA4024EA02048A68AA402243C2604A6865
:1018700002F00302022A90D004684FEA430E0322CA
:1018800002FA0EF224EA02044A6802F0030202FAA3
:101890000EF2224302604A6812F4403FC7D0002291
:1018A0000192274A546C44F480445464526C02F40C
:1018B00080420192019A9C08A51C1F4A52F82550AB
:1018C00003F003024FEA820E0F2202FA0EF225EA1B
:1018D00002051C4A90423FF474AF02F580629042C8
:1018E0001AD002F58062904218D002F580629042D0
:1018F00016D002F58062904214D002F580629042C8
:1019000012D002F58062904210D002F580629042BF
:101910003FF455AF082255E7012253E7022251E771
:1019200003224FE704224DE705224BE7062249E751
:1019300002B070BD704700BF00380140003C01405C
:1019400000380240000002400AB18161704709047A
:1019500081617047002800F0E08170B582B00446D4
:10196000036813F0010F3BD09F4B9B6803F00C03FF
:10197000042B2CD09C4B9B6803F00C03082B21D02C
:101980006368B3F5803F4FD0B3F5A02F52D0964B8C
:101990001A6822F480321A601A6822F480221A60CF
:1019A0006368002B50D0FFF7F9FD05468E4B1B688E
:1019B00013F4003F14D1FFF7F1FD401B6428F5D963
:1019C0000320B1E1884B5B6813F4800FD8D0864BBD
:1019D0001B6813F4003F03D06368002B00F09F8165
:1019E000236813F0020F54D07F4B9B6813F00C0F49
:1019F0003ED07D4B9B6803F00C03082B33D0E3688B
:101A0000002B68D0794B01221A60FFF7C7FD05460D
:101A1000754B1B6813F0020F54D1FFF7BFFD401B3D
:101A20000228F5D903207FE16F4A136843F480331D
:101A30001360B5E76C4B1A6842F480221A601A688A
:101A400042F480321A60ABE7FFF7A8FD0546664B0B
:101A50001B6813F4003FC3D0FFF7A0FD401B6428B0
:101A6000F5D9032060E1604B5B6813F4800FC6D1A9
:101A70005D4B1B6813F0020F03D0E368012B40F0AD
:101A80005081594A136823F0F803216943EAC103DE
:101A90001360236813F0080F42D063696BB3534B94
:101AA0000122C3F8802EFFF779FD05464E4B5B6F90
:101AB00013F0020F34D1FFF771FD401B0228F5D956
:101AC000032031E1484A136823F0F803216943EA0F
:101AD000C1031360DDE7454B00221A60FFF75EFD8E
:101AE0000546414B1B6813F0020FD2D0FFF756FD9D
:101AF000401B0228F5D9032016E13C4B0022C3F815
:101B0000802EFFF74BFD0546374B5B6F13F0020F3E
:101B100006D0FFF743FD401B0228F5D9032003E15F
:101B2000236813F0040F77D02F4B1B6C13F0805FEA
:101B300033D1002301932C4B1A6C42F080521A646B
:101B40001B6C03F080530193019B0125284B1B68FC
:101B500013F4807F23D0A368012B34D0052B38D019
:101B6000214B1A6F22F001021A671A6F22F0040249
:101B70001A67A368002B3DD0FFF710FD06461A4BED
:101B80001B6F13F0020F46D1FFF708FD801B41F2D7
:101B900088339842F3D90320C6E00025D6E7144ADB
:101BA000136843F480731360FFF7F8FC0646104B8C
:101BB0001B6813F4807FCED1FFF7F0FC801B022856
:101BC000F5D90320B0E0084A136F43F0010313670F
:101BD000CFE7054B1A6F42F004021A671A6F42F002
:101BE00001021A67C5E700BF003802400000474203
:101BF00000700040FFF7D2FC0646524B1B6F13F0FB
:101C0000020F08D0FFF7CAFC801B41F288339842CC
:101C1000F3D9032088E0EDB9A369002B00F083809D
:101C2000484A926802F00C02082A51D0022B17D0C1
:101C3000454B00221A66FFF7B1FC0446414B1B6876
:101C400013F0007F42D0FFF7A9FC001B0228F5D952
:101C5000032069E03B4A136C23F080531364DBE7F5
:101C6000394B00221A66FFF799FC0546354B1B6875
:101C700013F0007F06D0FFF791FC401B0228F5D936
:101C8000032051E0E369226A1343626A43EA821344
:101C9000A26A5208013A43EA0243E26A43EA026353
:101CA000284A5360284B01221A66FFF777FC044646
:101CB000244B1B6813F0007F06D1FFF76FFC001B5D
:101CC0000228F5D903202FE000202DE000202BE092
:101CD000012B2BD01B4B5B6803F48001E26991421E
:101CE00026D103F03F02216A8A4223D1616A47F676
:101CF000C0721A40B2EB811F1ED103F44031A26AB8
:101D00005208013AB1EB024F18D103F07063E26A56
:101D1000B3EB026F14D1002006E0012070470120D0
:101D200002E0012000E0002002B070BD0120FBE7CE
:101D30000120F9E70120F7E70120F5E70120F3E7AB
:101D40000120F1E7003802400000474208B5314B5E
:101D50009B6803F00C03042B57D0082B57D12D4B55
:101D60005A6802F03F025B6813F4800F2AD0294BB7
:101D70005968C1F3881C4FEA4C11B1EB0C006EEBB3
:101D80000E0E4FEA8E1343EA90638101091A63EB4A
:101D90000E03DB0043EA5173C90011EB0C0C43F155
:101DA0000003590200234FEA4C2041EADC51FEF7C0
:101DB0003FFF184B5B68C3F3014301335B00B0FB8B
:101DC000F3F025E0134B5968C1F3881C4FEA4C111E
:101DD000B1EB0C006EEB0E0E4FEA8E1343EA9063EC
:101DE0008101091A63EB0E03DB0043EA5173C9005A
:101DF00011EB0C0C43F10003990200234FEA8C20F5
:101E000041EA9C51FEF714FFD3E7034800E0034882
:101E100008BD00BF0038024000127A000024F40020
:101E2000002800F09B8070B50D4604464F4B1B68A0
:101E300003F007038B4208D2CBB24C4A13701368ED
:101E400003F007038B4240F08B80236813F0020FEE
:101E500017D013F0040F04D0454A936843F4E053BD
:101E60009360236813F0080F04D0414A936843F449
:101E7000604393603E4A936823F0F003A1680B43EC
:101E80009360236813F0010F32D06368012B21D0D7
:101E90009A1E012A25D9364A126812F0020F61D023
:101EA00033498A6822F0030213438B60FFF776FB05
:101EB00006462F4B9B6803F00C036268B3EB820F5E
:101EC00016D0FFF76BFB801B41F288339842F0D9A4
:101ED000032042E0264A126812F4003FE0D10120BC
:101EE0003BE0234A126812F0007FD9D1012034E090
:101EF0001E4B1B6803F00703AB4207D9EAB21B4B2A
:101F00001A701B6803F00703AB422DD1236813F04E
:101F1000040F06D0164A936823F4E053E1680B439C
:101F20009360236813F0080F07D0114A936823F4D5
:101F30006043216943EAC1039360FFF707FF0C4B3D
:101F40009B68C3F303130B4AD35CD8400A4B186059
:101F50000A4B1868FFF7D6FA002070BD01207047C1
:101F60000120FAE70120F8E70120F6E7003C0240F3
:101F700000380240A04800080000002008000020AF
:101F8000014B1868704700BF0000002008B5FFF73C
:101F9000F7FF044B9B68C3F38223034AD35CD8400A
:101FA00008BD00BF00380240B048000808B5FFF780
:101FB000E7FF044B9B68C3F34233034AD35CD8402A
:101FC00008BD00BF00380240B0480008026802F1B6
:101FD0000C0353E8003F23F490730C3242E80031C5
:101FE0000029F3D1026802F1140353E8003F23F003
:101FF0000103143242E800310029F3D1036B012BB5
:1020000005D0202380F83E30002303637047026828
:1020100002F10C0353E8003F23F010030C3242E8B6
:1020200000310029F3D1ECE790F83D30DBB2212BF1
:1020300001D0022070478368B3F5805F17D0036A30
:102040005A1C02621A7803685A60C38C9BB2013B27
:102050009BB2C3844BB90268D36823F08003D3607A
:102060000268D36843F04003D360002070470369DF
:10207000002BE4D1036A1B880268C3F30803536092
:10208000036A02330362E0E738B504460268136965
:1020900023F44053C1680B431361836802691343FF
:1020A00042691343C2691A430168CB6823F416439B
:1020B00023F00C031343CB600268536923F440738D
:1020C00081690B4353610368314A934206D002F59C
:1020D0008062934202D0FFF759FF01E0FFF766FFED
:1020E000E369B3F5004F29D00021031849411B18BB
:1020F00041F10001C90041EA5371DB00181863681F
:102100004FEA83024FEA937341F10001FEF790FD1D
:10211000204DA5FB00325109642303FB11031B0171
:102120003233A5FB03235B0903F0F00202EB01123B
:1021300003F00F03216813448B6038BD002302189D
:1021400043EB0301121841F10001C90041EA527149
:10215000D200101841F10001626892185B41FEF74D
:1021600067FD0C4DA5FB00325109642303FB1103ED
:10217000DB003233A5FB03235B095A0002F4F8723B
:1021800002EB011203F00703216813448B60D4E7CC
:10219000001001401F85EB512DE9F84305460F461D
:1021A00016469946DDF820802C68246837EA040337
:1021B0000CBF4FF0010C4FF0000CB4452DD1B8F11D
:1021C000FF3FF1D0B8F1000F05D0FFF7E7F9A0EB22
:1021D00009004045E8D92A6802F10C0353E8003FA2
:1021E00023F4D0730C3242E800310029F3D12A687D
:1021F00002F1140353E8003F23F00103143242E8D4
:1022000000310029F3D1202385F83D3085F83E3098
:10221000002385F83C30032000E00020BDE8F8836F
:1022200058B310B5044690F83D300BB3242384F81E
:102230003D302268D36823F40053D3602046FFF773
:1022400023FF2268136923F49043136122685369C2
:1022500023F02A0353612268D36843F40053D36008
:1022600000202064202384F83D3084F83E3010BDE7
:1022700080F83C30FFF7DEF8D8E7012070472DE901
:10228000F04182B01E4690F83D30DBB2202B54D195
:1022900004460D469046002953D0002A53D090F8AA
:1022A0003C30012B51D0012380F83C3000230364E3
:1022B000212380F83D30FFF771F90746A4F8248008
:1022C000A4F82680A368B3F5805F05D04FF000081E
:1022D000002384F83C3012E0236913B14FF000086A
:1022E000F6E7A8460025F3E738F8023B2268C3F377
:1022F00008035360E28C92B2013A92B2E284E38C1A
:102300009BB273B100963B46002280212046FFF726
:1023100043FFE0B9002DE7D015F8012B23685A6080
:10232000E8E700963B46002240212046FFF734FFB5
:1023300078B9202384F83D3000E0022002B0BDE8E7
:10234000F0810120FAE70120F8E70220F6E70320F8
:10235000F4E70320F2E72DE9F04182B01E4690F841
:102360003E30DBB2202B5CD104460D46904600295E
:102370005BD0002A5BD090F83C30012B59D0012370
:1023800080F83C3000230364222280F83E2003635F
:10239000FFF704F90746A4F82C80A4F82E80A36860
:1023A000B3F5805F05D04FF00008002384F83C307F
:1023B00017E0236913B14FF00008F6E7A84600259F
:1023C000F3E723685B68C3F3080328F8023B03E0E4
:1023D00023685B682B700135E28D92B2013A92B2AC
:1023E000E285E38D9BB2BBB100963B4600222021E3
:1023F0002046FFF7D1FEF0B9002DE2D0A368B3F577
:10240000805FE5D013B92369002BE1D023685B68B6
:1024100003F07F032B70DEE7202384F83E3000209A
:1024200000E0022002B0BDE8F0810120FAE70120BF
:10243000F8E70220F6E70320F4E7704708B50168E3
:10244000CA6822F04002CA60202280F83D20FFF7CF
:10245000F4FF002008BD7047704708B5806B00236B
:10246000C385C384FFF7F8FF08BD704790F83E307E
:10247000DBB2222B67D18368B3F5805F4DD0826ACF
:10248000B3F5805F04D0002B54D10369002B51D1E8
:1024900003685B681370836A01338362C38D9BB2E8
:1024A000013B9BB2C385002B4FD100B583B00268BE
:1024B000D36823F02003D3600268D36823F48073C9
:1024C000D3600268536923F001035361202380F82D
:1024D0003E30036B012B33D100230363026802F10A
:1024E0000C0353E8003F23F010030C3242E80031A4
:1024F0000029F3D103681A6812F0100F06D00022E9
:1025000001921A6801925B680193019B818DFFF72C
:10251000ACFF002003B05DF804FB0269002AAED1D5
:10252000826A03685B68C3F308031380836A02331B
:102530008362B3E703685B6803F07F031370AAE765
:10254000FFF789FFE5E70220704700207047000091
:1025500030B583B0044602681368D068516913F03F
:102560000F0505D113F0200F02D010F0200F19D164
:102570002DB111F0010119D110F4907F16D1216B0A
:1025800001297DD013F0800F03D010F0800F40F0B0
:10259000158113F0400F03D010F0400F40F012816E
:1025A00003B030BD2046FFF761FFF9E713F0010FDC
:1025B00006D010F4807F03D0226C42F00102226426
:1025C00013F0040F04D019B1226C42F0020222640D
:1025D00013F0020F04D019B1226C42F004022264FD
:1025E00013F0080F07D010F0200F00D119B1226CA2
:1025F00042F008022264226C002AD1D013F0200F8E
:1026000002D010F0200F29D123685B6903F040034A
:10261000226C12F0080F00D163B32046FFF7D6FCFE
:1026200023685B6913F0400F20D0226802F1140385
:1026300053E8003F23F04003143242E80031002900
:10264000F3D1A36B73B1614A1A65A06BFFF776F8FB
:102650000028A5D0A06B036D9847A1E72046FFF79F
:1026600005FFD1E72046FFF7F7FE99E72046FFF781
:10267000F3FE95E72046FFF7EFFE002323648FE784
:1026800013F0100F3FF47EAF10F0100F3FF47AAF4D
:10269000002301931368019353680193019B5369CD
:1026A00013F0400F50D0A26B13685B689BB2002BF5
:1026B0003FF476AFA18D99427FF672AFE385D3697F
:1026C000B3F5807F37D0226802F10C0353E8003F56
:1026D00023F480730C3242E800310029F3D12268E0
:1026E00002F1140353E8003F23F00103143242E8DF
:1026F00000310029F3D1226802F1140353E8003FAE
:1027000023F04003143242E800310029F3D12023A2
:1027100084F83E3000232363226802F10C0353E85F
:10272000003F23F010030C3242E800310029F3D1BE
:10273000A06BFEF7B9FFA18DE38D9BB2C91A89B2D8
:102740002046FFF792FE2BE7A18DE38D9BB2C91ABD
:1027500089B2E38D9BB2002B3FF422AF00293FF4F6
:102760001FAF226802F10C0353E8003F23F490737B
:102770000C3242E800300028F3D1226802F1140341
:1027800053E8003F23F00103143242E800300028F0
:10279000F3D1202384F83E3000232363226802F122
:1027A0000C0353E8003F23F010030C3242E80030E2
:1027B0000028F3D12046FFF758FEF1E62046FFF748
:1027C00033FCEDE62046FFF739FEE9E65B2400081E
:1027D00038B500F0E3F86C2000F0E0F900F01EF9E5
:1027E0000C2000F0DBF900F019F900F0D7F86D20AB
:1027F00000F0D4F900F012F9012000F091F904463C
:10280000002000F08DF9054600F0E8F82402A4B29B
:10281000601980B238BD08B5FFF7DAFFC0F30B00CE
:1028200008BD00002DE9F041FFF7F5FF0446294BF4
:102830001D68451B2846FDF735FE804621F0004700
:10284000254B1868FDF7DAFF06462449FEF72AF8FB
:10285000FDF73AFE02460B4640463946FDF70AFFB1
:1028600038B1002D34DD1E491E4D2868FDF712FFDA
:102870002860184B1C601C491A4B1868FEF7C4F9F5
:1028800040B1184B00221A60184D17492868FDF70F
:10289000FFFE28601649134B1868FEF7ABF940B1EC
:1028A000104B00221A60114D0F492868FDF7F2FE07
:1028B00028602046FDF7A2FF3146FEF7A7F80D4934
:1028C000FDF7F0FF074B1968FDF7E4FEBDE8F08166
:1028D0000849C9E7B4080020BC080020CDCC4C3F13
:1028E000DB0FC9C0C00800207C594446B80800204E
:1028F0007C5944C6DB0FC94008B500F029F80E4BDF
:102900004FF480521A600D4800F0B6FA6420FEF7CA
:102910004BFEFFF780FF0A4B18600A4B00221A603B
:10292000094B00221A603220FEF73EFEFFF77AFFC5
:10293000064B186008BD00BFBC080020B84800085E
:10294000B4080020C0080020C4080020B8080020F7
:1029500070B586B0002300930E4B1A6B42F0020252
:102960001A631B6B03F002030093009B3026019651
:1029700001240294039402230493074D01A92846DD
:10298000FEF7F0FE224631462846FEF7DDFF06B090
:1029900070BD00BF003802400004024010B50E4C6C
:1029A000012220212046FEF7CFFF012210212046E0
:1029B000FEF7CAFF0120FEF7F7FD00222021204686
:1029C000FEF7C2FF0120FEF7EFFD00221021204696
:1029D000FEF7BAFF10BD00BF0004024010B50E4C58
:1029E000002220212046FEF7AFFF002210212046C2
:1029F000FEF7AAFF0120FEF7D7FD01222021204685
:102A0000FEF7A2FF012210212046FEF79DFF0120C4
:102A1000FEF7CAFD10BD00BF0004024010B51E4CF9
:102A2000236823F44063236023682360012220216C
:102A30002046FEF789FF012210212046FEF784FF81
:102A40000120FEF7B1FD0023134A126912F0200F96
:102A500013D00133DBB2FA2BF6D90F4B1A6822F4EC
:102A600040621A601A6842F480621A60FFF7B6FF8B
:102A70000A4800F001FA01200DE00748036823F43A
:102A800040630360036843F4806303600022102105
:102A9000FEF75AFF002010BD00040240C84800089D
:102AA00010B50E4C002210212046FEF74DFF0022EB
:102AB00020212046FEF748FF0120FEF775FD012288
:102AC00010212046FEF740FF0120FEF76DFD002299
:102AD00010212046FEF738FF10BD00BF0004024061
:102AE00010B50E4C002210212046FEF72DFF0122CA
:102AF00020212046FEF728FF0120FEF755FD012288
:102B000010212046FEF720FF0120FEF74DFD002298
:102B100010212046FEF718FF10BD00BF0004024040
:102B2000F8B507461C4B1A6822F440621A601A680E
:102B30001A600024254604E00120FEF735FD01352A
:102B4000EDB2072D16D8144E002210213046FEF7A4
:102B5000FBFE0120FEF728FD012210213046FEF782
:102B6000F3FE6400E4B2336913F0200FE4D00134C3
:102B7000E4B2E1E7084B1A6822F440621A601A686E
:102B800042F480621A601FB9FFF7AAFF2046F8BD21
:102B9000FFF786FFFAE700BF0004024070B5044665
:102BA000002210211648FEF7CFFE00251BE0002270
:102BB00020211348FEF7C8FE6400E4B20120FEF7AE
:102BC000F3FC0F4E012210213046FEF7BDFE01201E
:102BD000FEF7EAFC002210213046FEF7B5FE012088
:102BE000FEF7E2FC0135072D08D814F0800FDED087
:102BF000012220210248FEF7A7FEDDE770BD00BFDD
:102C00000004024008B5054B1860054B1868002306
:102C100002221946806800F037F908BDC808002074
:102C20000C000020022801D80120704708B500F0F0
:102C300059F809230360002008BD000010B50138D1
:102C400001280AD814464FF0FF3392B207480068B3
:102C5000FFF715FB40B9204610BD00F043F80923EB
:102C600003604FF0FF30F7E70520F5E7C8080020C4
:102C7000022801D80020704708B500F033F8092376
:102C800003604FF0FF3008BD08B500F02BF80923B2
:102C900003604FF0FF3008BD08B548B94FF0FF336F
:102CA000012208480068FFF756FB40B9012008BD23
:102CB00000F018F8092303604FF0FF30F7E7052014
:102CC000F5E700BFC808002008B5022804D84FF473
:102CD00000534B60002008BD00F004F80923036096
:102CE000F8E70000014B1868704700BF0C00002097
:102CF00070B50D4E0D4D761BB61006D0002455F85C
:102D0000043B01349847A642F9D1094E094D761B80
:102D100001F0BAFDB61006D0002455F8043B01348A
:102D20009847A642F9D170BDE4480008E44800087D
:102D3000EC480008E4480008830730B548D0541E2A
:102D4000002A3FD0CAB2034601E0013C3AD303F85F
:102D5000012B9D07F9D1032C2DD9CDB245EA0525CC
:102D60000F2C45EA054536D9A4F1100222F00F0CCC
:102D700003F1200EE6444FEA121C03F1100242E96F
:102D8000045542E9025510327245F8D10CF10102A6
:102D900014F00C0F03EB021204F00F0C13D0ACF183
:102DA000040323F003030433134442F8045B934207
:102DB000FBD10CF003042CB1CAB21C4403F8012B64
:102DC0009C42FBD130BD64461346002CF4D1F9E798
:102DD00003461446BFE71A46A446E0E770B5054629
:102DE00088B008460C46FEF7ABF8224EAA6B059059
:102DF00001214318CDE9066104A80221049403933C
:102E0000AC680190029122B3636E13F0010FB4F924
:102E10000C309AB201D1980525D5910406D4626E82
:102E200043F4005322F40052A3816266284601AAAB
:102E3000214600F03DFC636E002814BF4FF0FF35C3
:102E40000A25DA0702D4A3899B0506D5284608B0CF
:102E500070BD284600F02EFAD6E7A06D00F0C6FD42
:102E6000284608B070BDA06D00F0BEFDB4F90C306E
:102E70009AB2D2E7D8480008024B01461868FFF71B
:102E8000ADBF00BF0C0000202DE9F043694CD4F821
:102E9000008083B004460E4617461D46B8F1000F69
:102EA00003D0D8F83830002B77D0022F05D0012F6F
:102EB00000F2AC80002DC0F2A980636EDA0752D513
:102EC0002146404600F0C2F9216B41B104F14003B4
:102ED000994202D0404600F0E5FA00232363B4F99A
:102EE0000CC000231CF0800FA361636064D12CF43C
:102EF0004A6C2CF0030C022FA4F80CC06AD001AB72
:102F00006A462146404600F0E3FDA3891843A081AC
:102F1000002D2FD0002E2ED0D8F83830002B38D0EE
:102F2000009B2660AB42B4F90C301CBF43F4006335
:102F3000A381012F04BF43F00103A3819AB213F0D0
:102F40000803C4E904652CD0D1075DD56D42A561A5
:102F5000656E002315F00105A36027D000252846E3
:102F600003B0BDE8F083A3899B05A9D4A06D00F050
:102F70003BFDA5E7009D284600F0DAFD0646002847
:102F800047D0A38943F08003A381D8F83830002BC1
:102F9000C6D1404600F08EF9C2E7404600F08AF9FB
:102FA00083E7A360656E15F00105D7D1930524D59D
:102FB000284603B0BDE8F0832169404600F072FA6C
:102FC000B4F90CC02CF44A6C2CF0030C022FA4F8BA
:102FD0000CC094D10025002204F14303A260012219
:102FE000C4E904322360636E4CF0020CD807A4F8E5
:102FF0000CC0DDD41CF4007FDAD1A06D00F0F6FC2B
:10300000284603B0BDE8F083A560CBE74FF0FF355D
:10301000CEE7DDF80090A94504D0484600F088FDD1
:10302000064620B9B4F90CC04FF0FF35D3E74D4642
:10303000A7E700BF0C00002038B5334B1B680546DE
:103040000C460BB19A6B12B3B4F90C3018079AB254
:1030500025D5216900292DD012F0010007D00020CC
:10306000A06060694042A06139B1002038BD950779
:1030700058BF6069A0600029F7D1120658BF084602
:10308000F4D543F04003A3814FF0FF3038BD18461C
:1030900000F010F9B4F90C3018079AB2D9D4D1065F
:1030A0002AD5520714D4216943F00803A3819AB2A8
:1030B0000029D1D102F42070B0F5007FCCD0214698
:1030C000284600F095FCB4F90C3021699AB2C3E7A8
:1030D000216B51B104F14002914204D0284600F026
:1030E000E1F9B4F90C300022226321690022C4E91D
:1030F000001223F02403D7E7092243F040032A609B
:103100004FF0FF30A38138BD0C000020024B13B1FB
:10311000024800F005B8704700000000D9330008ED
:10312000002301461A46184601F09CBAB1F90C205A
:10313000F8B50C461107074642D4636842F40062B2
:10314000002BA28159DDA56A002D54D000233E68D2
:103150003B6093B212F4805253D1E16901233846A7
:10316000A847421C63D0A389A56A5B0705D563689D
:10317000C01A236B0BB1E36BC01AE169024600234E
:103180003846A847411C3ED13B68002B3BD01D2B45
:1031900001D0162B52D1A3892269226023F4006347
:1031A00000216160A381216B3E6021B304F14003E3
:1031B000994202D0384600F075F900202063F8BD2E
:1031C0002669C6B193B2256826609A070CBF636969
:1031D0000023AD1BA3600CE0D4F824C0E1692B46AA
:1031E00032463846E047B0F1000CA5EB0C056644CA
:1031F00016DD002DF0DC0020F8BDE36B002BA2DC17
:10320000F9E7206DB1E7B4F90C302269226023F4AC
:103210000063A3810022DB046260C4D52065C2E79D
:10322000A38943F040034FF0FF30A381F8BD3B6812
:10323000002B98D01D2B06D0162B04D0A38943F069
:103240004003A381F8BD3E60D5E700BF38B50C460A
:10325000054608B1836BA3B1B4F90C00B8B1636E35
:10326000DB0701D4810515D528462146FFF75EFF0F
:10327000636EDA07054602D4A3899B050ED528465E
:1032800038BD00F017F8B4F90C000028E7D1054666
:10329000284638BDA06D00F0A7FBE5E7A06D00F063
:1032A000A5FB284638BD00BF014900F075BB00BF33
:1032B000154700082DE9F0478246394800F094FB95
:1032C000DAF83840002C66D1DAF80450354ACAF8EA
:1032D0003C200323CAE9B843DFF8CC90DFF8CC8068
:1032E000334F344E04230AF53B72CAF8E8222146D4
:1032F000C5E90243C5E90044C5E904446C660822F7
:10330000AC6105F15C00FFF717FDC5E90759C5E998
:103310000987EE6205F1580000F062FBDAF8085008
:10332000254BEB602146C5E90044C5E904446C66C1
:10333000AC60AC61082205F15C00FFF7FDFCC5E95B
:103340000759C5E90987EE6205F1580000F048FB0E
:10335000DAF80C50194BEB602146C5E90044C5E989
:1033600004446C66AC60AC61082205F15C00FFF7B8
:10337000E3FC05F15800C5E90759C5E90A76C5F827
:10338000248000F02DFB0123CAF838300448BDE842
:10339000F04700F02BBBBDE8F047014800F026BB2A
:1033A000D8080020A9320008AD450008D145000822
:1033B0001146000831460008090001001200020011
:1033C000014800F011BB00BFD4080020014800F004
:1033D0000DBB00BFD408002038B5084B084D5B1B5F
:1033E0009C1007D0043B1D44013C55F80439984714
:1033F000002CF9D1BDE8384001F04CBAF048000883
:10340000EC480008F8B5244F0C46064600F0C4FE10
:10341000BA685568C4F57E630F3325F003052B4465
:1034200023F47F6323F00F03A3F58054B4F5805F8A
:1034300007DB0021304601F0A7F8BB682B44984217
:1034400004D0304600F0AEFE0020F8BD61423046A8
:1034500001F09AF801300DD0104ABB682D1B45F0E1
:1034600001055D60136830461B1B136000F09AFE77
:103470000120F8BD0021304601F086F8BA68831AB1
:103480000F2BDEDD43F001035360054B03491B683E
:10349000C01A0860D5E700BF3C040020DC0800200B
:1034A00044080020002961D0F8B50C46064600F01B
:1034B00073FE54F8042C7B4FA4F1080522F001019F
:1034C00005EB010CB868DCF80430604523F0030319
:1034D00000F08B80D207CCF8043032D454F8082C9A
:1034E000AD1A1144AA6807F1080082426AD00CEBB9
:1034F0000304D4F804E0EC68D4601EF0010FA2606D
:1035000000F0978041F001036B60CCF80010B1F53A
:10351000007F35D27A68CB08480901210133814008
:103520001143796007EBC30257F83310083AC5E935
:10353000021247F83350CD603046BDE8F84000F045
:1035400031BE0CEB03025268D00710D4194407F1C6
:103550000800DCF80830834273D0DCF80C20DA6015
:10356000936041F001036B606950D0E7704741F010
:103570000103B1F5007F44F8043CCCF80010C9D336
:10358000B1F5206F4FEA512348D28B0903F139007E
:1035900003F13802C300F818FB580838984259D094
:1035A0005A6822F003028A4202D99B689842F7D1F6
:1035B000D868C5E902308560DD603046BDE8F84076
:1035C00000F0F0BD0CEB03025268D20763D40B4449
:1035D000DCE90212CA60916043F001026A60304681
:1035E000EB50BDE8F84000F0DDBD0B44D10707D437
:1035F00054F8082CAD1A1344D5E90212CA60916040
:1036000043F001026A60284ABD6012689A4293D86A
:10361000264B30461968FFF7F5FE8DE7142B0AD9C3
:10362000542B1FD80B0B03F16F0003F16E02C30084
:10363000B1E719448DE703F15C0003F15B02C300BD
:10364000A9E741F00103C7E90455C5E902006B6031
:10365000695071E779689210012404FA02F20A4372
:103660007A60A6E7B3F5AA7F06D8CB0B03F1780002
:1036700003F17702C3008EE740F25452934206D81A
:103680008B0C03F17D0003F17C02C30083E74FF450
:103690007E737E227FE741F001036B60CCF800105F
:1036A0004AE700BF3C040020480800200C09002025
:1036B0009368002B00F081802DE9F04FB1F90C30B8
:1036C0000C461907804683B0174698B223D5236964
:1036D0000BB310F002033D682BD04FF0000ADFF867
:1036E000B4B256465E453346524628BF5B46404616
:1036F000002E4FD0E169D4F824C0E047002852DD05
:10370000BB681B1A8244361ABB60002BEAD100202A
:1037100003B0BDE8F08F21464046FFF78DFC00283E
:1037200040F03481B4F90C303D6898B210F00203D7
:10373000D3D110F0010942D14E463EB38205D4F8F0
:1037400008B040F18180B3455A4600F2B18010F4D0
:10375000906F40F0BE8020680192494600F0A0FCC6
:10376000A3682168019AA3EB0B030A44B246A36045
:1037700022600026B868A0EB0A00D144B860002897
:10378000C5D0B4F90C0080B2002ED7D1D5E900968F
:103790000835D2E7D5E900A60835A3E7214640461B
:1037A000FFF754FD80B3B4F90C3043F040034FF001
:1037B000FF30A38103B0BDE8F08F002070471E46A4
:1037C000AA46994618461D4656B388B34A46D4E9D8
:1037D00004132068B24228BF3246884205D9A16846
:1037E00003EB010B5A4500F3A780934264DCE169C7
:1037F000D4F824C02A464046E047B0F1000BD2DDA1
:10380000B9EB0B09CAD00120BB68A3EB0B035D44E5
:10381000A6EB0B06BB60002B3FF479AF002ED4D192
:103820000AF1080353E902569A460833002EF9D0EC
:1038300032460A212846FDF7F3FB002800F09D8060
:103840000130A0EB0509C1E720682369984217D829
:103850006369B34214D86FF00042B24228BF3246C7
:10386000E16992FBF3F2D4F824C002FB03F3404673
:103870004A46E047B0F1000A95DDA6EB0A0679E773
:10388000B345DA4628BFB2465246494600F008FC26
:10389000A3682268A3EB0A035244A3602260002BB2
:1038A000EBD121464046FFF7D1FC0028E5D07AE76E
:1038B0002068B34632464FE72946019200F0F0FBFC
:1038C000019AA3689B1AA36023681344236093465C
:1038D00096E723682169A3EB010B636903EB430AB5
:1038E0000AEBDA7A0BF101034FEA6A0A33445345D3
:1038F000524684BF9A46524643052CD5114640464F
:1039000000F01EF900283BD05A4621690190FDF7CE
:10391000D7FBA289019B22F4906242F08002A2812F
:1039200003EB0B002361AAEB0B03C4F814A0A36004
:103930002060B34632460FE729465A4600F0B0FBF6
:1039400023685B44236021464046FFF77FFC002844
:103950003FF456AF27E7404600F02AFC0346002814
:10396000DED121694046FFF79DFDB4F90C300C22F1
:1039700023F08003C8F8002017E7721C914626E761
:103980000C22B4F90C30C8F800200EE74FF0FF30DD
:10399000BEE600BF00FCFF7F2DE9F84307468846DE
:1039A00000F538764FF00009D6E90154013D11D4F5
:1039B000A389012B05F1FF3508D9B4F90E30013385
:1039C000214603D03846C04749EA00096B1C04F180
:1039D0006804EDD13668002EE6D14846BDE8F8838C
:1039E000704700BF704700BF704700BF704700BFFF
:1039F0002DE9F0418B890C46990796B008D504F162
:103A000043030122C4E90432236016B0BDE8F0810B
:103A1000B4F90E100029064627DB6A4600F0E0FEE6
:103A2000002821DB019D05F47045A5F50055B5FA88
:103A300085F54FF480686D094FF4006741463046C4
:103A400000F07EF8B4F90C30F0B1204AF26343F094
:103A50008003C4F81480A3812060206135BB3B4300
:103A6000A38116B0BDE8F081A38913F0800519D0B9
:103A70004FF040084146304600F062F80025B4F9A6
:103A80000C302F460028E0D19A05BED423F0030362
:103A900004F1430243F002030121C4E90421A3819C
:103AA0002260B2E74FF480682F46C7E7B4F90E10E2
:103AB000304600F0ABFE10B9B4F90C30CFE7A38963
:103AC00023F0030343F001031BB2C8E7A932000847
:103AD00070B50C46B1F90E10002996B015461E4679
:103AE00014DB6A4600F07CFE00280FDB019A02F42A
:103AF0007042A2F50052B2FA82F24FF4806352098A
:103B00004FF4006032602B6016B070BDB4F90C1039
:103B1000002311F08000336004D0402218462A6050
:103B200016B070BD4FF480632B6016B070BD00BF3F
:103B3000024B0146186800F003B800BF0C000020DB
:103B40002DE9F04F01F10B06162E83B0044624D860
:103B5000102900F2BA8000F01FFB10261822022064
:103B6000B54F3A44A2F1080153688B4200F0BA8085
:103B70005A68D96822F003021A449D68E9608D6092
:103B8000516841F001012046516003F1080500F041
:103B900009FB284603B0BDE8F08F36F0070600F1B8
:103BA0009480B14200F2918000F0F6FAB6F5FC7F05
:103BB000C0F09A81730A00F08F80042B00F26F81AD
:103BC000B30903F1390003F1380CC3009A4F3B44A9
:103BD000A3F108055B689D4206D10CE0002980F244
:103BE0002781DB689D4206D05A6822F00302911BB0
:103BF0000F29F3DD60463D69DFF840C265457CD0A2
:103C00006A6822F00302931B0F2B00F37B81002BC9
:103C1000C7E904CC80F26C81B2F5007F80F01A8194
:103C2000D308796801334FEA521E012202FA0EF2DC
:103C30000A4357F833E0C5F808E007EBC301083939
:103C4000E9607A6047F83350CEF80C5083100121B8
:103C50009940914257D8114206D120F00300490003
:103C6000114200F10400FAD007EBC0094D46864628
:103C7000D5F80C80454508D11DE1002B80F2248148
:103C8000D8F80C80454500F01681D8F8042022F0C1
:103C90000302931B0F2BF0DD2046D8E9025408EBFA
:103CA000060146F00106C8F80460EC60A56043F028
:103CB0000104C7E90411C1E902CC4C6048F80230A4
:103CC00000F070FA08F1080502E00C2323600025DB
:103CD000284603B0BDE8F08F4FF4007340204FF04A
:103CE0003F0C73E7D3689A4208BF02307FF440AFBD
:103CF0003D69DFF848C1654582D17A6883100121AA
:103D000099409142A7D9BD686B6823F003094E45DD
:103D100003D8A9EB06030F2B7ADCDFF824B1494B5B
:103D2000DBF800201B680132334405EB090A00F080
:103D3000338103F580530F3323F47F6828F00F0895
:103D40004146204600F020FC411C024600F0F38072
:103D5000824500F2EE803C4B1968414419600846E8
:103D600000F04E81DBF80010019301311BBFA2EB84
:103D70000A0A5044CBF80020186012F0070B00F03C
:103D80001781CBF108010A44CBF5805190440831EA
:103D9000A1EB0801C1F30B0A51462046009200F046
:103DA000F3FB421CDDE9002300F04F81801A00EB99
:103DB0000A081968BA6048F001005144BD425060D9
:103DC000196000F02981B9F10F0F40F2278168686E
:103DD000A9F10C0C2CF0070C00F0010040EA0C00DB
:103DE00068604FF0050E05EB0C00BCF10F0FC0E949
:103DF00001EE00F2328150681546144B1A688A426F
:103E000038BF1960124B1A688A4238BF196094E0B3
:103E1000AA1943F0010346F001066E602046BA601D
:103E2000536000F0BFF90835284603B0BDE8F08FB5
:103E3000D9681A44A1E600BF3C04002044040020D5
:103E4000440800200C090020DC08002004090020A0
:103E500008090020B2F5206F4FEA522363D3142BD8
:103E600000F2B78003F15C01C9005B3307EB010E80
:103E70007958AEF1080E8E4500F091804B6823F022
:103E80000303934202D989688E45F7D1D1F80CE03B
:103E90007A68C5E9021ECEF80850CD60D6E6142B2C
:103EA00059D9542B00F29D80330B03F16F0003F1BD
:103EB0006E0CC3008AE60EF1010E1EF0030F05F131
:103EC00008057FF4D5AE51E0424445465368D8F822
:103ED0000C1043F00103536055F8083F2046D960A9
:103EE0008B6000F05FF9F3E6F00806F1080237E6B0
:103EF0002A442046536843F001035360083500F01C
:103F000051F9E5E6A919204646F0010643F00104FF
:103F10006E60C7E90411C1E902CC4C60AB5000F0FF
:103F200041F90835D4E6930903F13901C900383362
:103F30009CE7BD425FD0BD68686820F00308464535
:103F4000A8EB060302D80F2B3FF762AF204600F024
:103F500029F90025BCE603F15C0003F15B0CC3000A
:103F600034E659F808394B4540F0968010F0030FBD
:103F700000F1FF30F5D17B6823EA01037B60490043
:103F800099423FF6C0AE19B9BDE649000EF1040EE4
:103F90001942FAD0704667E603F11008D0E69A108D
:103FA0004FF001087B6808FA02F21A437A6070E762
:103FB00002EB08014942C1F30B0A51462046009228
:103FC00000F0E2FA431CDDE900237FF4EFAEDA46AD
:103FD000EFE6542B25D8130B03F16F01C9006E33A4
:103FE00044E7B3F5AA7F25D8F30B03F1780003F17A
:103FF000770CC300EAE5294B186840441860B1E625
:10400000CAF30B0CBCF1000F7FF4ACAEBD68C84422
:1040100048F001006860F0E61546EEE601235360C3
:1040200094E7B3F5AA7F23D8D30B03F17801C90035
:1040300077331BE740F25452934223D8B30C03F179
:104040007D0003F17C0CC300C0E5ABF1080BD84444
:10405000A8EB02084FF0000AABE605F10801204684
:104060000093FFF71FFABD68009B68681968C4E6F3
:1040700040F254518B420BD8930C03F17D01C900DF
:104080007C33F3E64FF47E737F204FF07E0C9DE58A
:104090004FF47E717E23E9E67B6870E7DC08002040
:1040A00088420DD98B1883420AD900EB020CBAB1B1
:1040B000624613F801CD02F801CD9942F9D170475B
:1040C0000F2A0ED8034602F1FF3C4AB10CF1010C55
:1040D000013B8C4411F8012B03F8012F6145F9D104
:1040E000704740EA01039B0750D1A2F1100370B55D
:1040F00001F1200C23F00F0501F1100E00F1100466
:10410000AC441B095EF8105C44F8105C5EF80C5C73
:1041100044F80C5C5EF8085C44F8085C5EF8045CEB
:1041200044F8045C0EF1100EE64504F11004E9D1E8
:10413000013312F00C0F01EB031102F00F0400EB3E
:10414000031327D0043C24F003064FEA940C1E44CA
:104150001C1F8E465EF8045B44F8045FB442F9D13C
:104160000CF1010402F0030203EB840301EB840170
:1041700002F1FF3C4AB10CF1010C013B8C4411F8F7
:10418000012B03F8012F6145F9D170BD02F1FF3C0D
:1041900003469BE72246EBE70148FFF725BC00BF3B
:1041A000D00800200148FFF721BC00BFD008002044
:1041B0002DE9F84F1746002900F0988007F10B050C
:1041C00080460C46FFF7E8FF162D5DD810252A46DD
:1041D000AF425ED854F8041C21F003069642A4F1C5
:1041E000080962DABC4BD3F808C009EB0600844525
:1041F00000F09780D0F804C02CF0010303445B6802
:10420000DB0768D42CF0030C06EB0C03934247DA6F
:10421000CB0710D454F8083CA9EB030ADAF80430B1
:1042200023F003018C44B444944580F21181731847
:10423000934280F2E88039464046FFF781FC07460A
:10424000E0B154F8043C23F001034B44A0F1080210
:10425000934200F0D280321F242A00F2F580132A04
:1042600000F2AC800346224611681960516859601B
:1042700092689A6021464046FFF714F94046FFF7DE
:1042800091FF3846BDE8F88F25F00705002D2A4636
:104290009EDA0C23C8F8003000273846BDE8F88FB6
:1042A0001E46D0E90223D3609A60731B0F2B22D8DD
:1042B000D9F8043003F0010333434E44C9F8043005
:1042C000736843F00103736040462746FFF76AFFB7
:1042D0003846BDE8F88FC907ADD454F8083CA9EBBF
:1042E000030ADAF8041021F00301A0E7BDE8F84F53
:1042F0001146FFF725BCD9F8041001F0010129434C
:10430000C9F8041009EB05014E4443F001034B606A
:10431000736843F00103083173604046FFF7C2F849
:10432000D2E7DCF8040020F0030B06EB0B0C05F1E0
:10433000100084454DDAC9073FF57DAF54F8081CDD
:10434000A9EB010ADAF8041021F003018B44B3440D
:1043500058453FF76CAF5746DAF80C1057F8080F7E
:10436000321F242AC160886000F2DB80132A40F2E9
:10437000D6802168CAF808106168CAF80C101B2A98
:1043800000F2DF8008340AF11002216811606168D0
:104390005160A16891600AEB0501ABEB050242F0A8
:1043A000010299604A60DAF8043003F001031D430A
:1043B0004046CAF80450FFF7F5FE6EE72368036035
:1043C000636843601B2A68D804F1080200F10803FF
:1043D0004AE709EB05029A60ACEB050343F00103E1
:1043E000536054F8043C03F001031D43404644F875
:1043F000045CFFF7D7FE27464FE750F8043C23F054
:1044000003031E4451E75746DAF80C1057F8080F1B
:10441000321F242AC16088604CD8132A48D92168E9
:10442000CAF808106168CAF80C101B2A56D808345C
:104430000AF110021E462368136063685360A36884
:104440009360D1463C4630E72146FFF729FE11E74D
:10445000D0E902135746CB60996057F8081FDAF885
:104460000C30CB60321F242A99602DD8132A29D909
:104470002368CAF808306368CAF80C301B2A42D88F
:1044800008340AF1100322681A6062685A60A26850
:104490009A606646D1463C4607E7A3688360E368B6
:1044A000C360242A26D004F1100200F11003DBE6D9
:1044B0003A46BFE7214638461E46D146FFF7F0FD93
:1044C0003C46F2E63B46DEE7214638466646D146A4
:1044D000FFF7E6FD3C46E8E63C040020A168CAF888
:1044E0001010E168CAF81410242A20D010340AF100
:1044F00018029FE7236903616169416104F11802B1
:1045000000F11803B0E6A368CAF81030E368CAF8EF
:104510001430242A21D010340AF11803B3E73A46A4
:1045200033E721463846FFF7BBFD164B33E72269D8
:10453000CAF818206269CAF81C2018340AF120024F
:1045400078E7A168CAF81010E168CAF81410242AA4
:104550000DD010340AF1180217E72369CAF8183091
:104560006369CAF81C3018340AF120038BE722690A
:10457000CAF818206269CAF81C2018340AF120020F
:1045800003E700BF3C04002038B5074D0022044675
:1045900008462A60FCF70EFF431C00D038BD2B688C
:1045A000002BFBD0236038BD1009002010B50C464D
:1045B000B1F90E1000F052F9002803DB236D03441B
:1045C000236510BDA38923F48053A38110BD00BFD0
:1045D0002DE9F0410C46B1F90C101F46CB050546FC
:1045E00016460BD421F48051A1813B46B4F90E103C
:1045F00032462846BDE8F04100F01EB8B4F90E106E
:104600000223002200F014F9B4F90C10EAE700BF0D
:1046100010B50C46B1F90E1000F00AF9A389421C3E
:104620000EBF23F4805343F480532065A38110BD53
:10463000B1F90E1000F05CB838B50C46084D844650
:10464000114620461A4600232B606446FEF7F6FA10
:10465000431C00D038BD2B68002BFBD0236038BD35
:10466000100900202DE9F047DFF87CA00646DAF8B3
:10467000000098460F469146FFF7B6F91B4B1B68A2
:10468000D3F8484124B365681F2D26DC5EB96B1C46
:104690000235DAF80000636044F82570FFF7A6F9E8
:1046A0000020BDE8F08704EB85010123C1F8889064
:1046B000D4F88821AB401A43022EC4F88821C1F8EF
:1046C0000881E4D1D4F88C211343C4F88C31DEE79F
:1046D00003F5A674C3F84841D5E7DAF80000FFF700
:1046E00085F94FF0FF30DCE738040020D44800089B
:1046F00038B5074D0022044608462A60FEF7B8FA8E
:10470000431C00D038BD2B68002BFBD0236038BD84
:104710001009002070B500294BD006460C4610B198
:10472000836B002B48D0636ED80734D5B4F90C30B6
:10473000002B3ED021463046FEF7F8FCE36A0546E2
:1047400033B1E169304698470028B8BF4FF0FF35D4
:10475000A3891A063BD4216B41B104F1400399426D
:1047600002D03046FEF79EFE00232363616C21B128
:104770003046FEF797FE00236364FEF721FE636E6A
:104780000022DB07A28127D5A06DFFF72BF9FEF7EA
:104790001DFE284670BDA3899905CBD4A06DFFF7F7
:1047A00023F9B4F90C30002BC4D1656E15F0010566
:1047B00008D00025284670BDFEF77CFD636ED80743
:1047C000B4D4E8E7A06DFFF711F9284670BD216960
:1047D0003046FEF767FEBEE7A06DFFF707F9D3E7A7
:1047E00070B50C46084D03460026204611461C466F
:1047F0002E60FEF769FA431C00D070BD2B68002BB9
:10480000FBD0236070BD00BF1009002038B5074DF4
:104810000022044608462A60FEF704FA431C00D032
:1048200038BD2B68002BFBD0236038BD1009002059
:1048300038B50C46084D8446114620461A460023DA
:104840002B606446FEF720FA431C00D038BD2B686D
:10485000002BFBD0236038BD1009002038B50C4672
:10486000084D8446114620461A4600232B606446B4
:10487000FEF712FA431C00D038BD2B68002BFBD08A
:10488000236038BD10090020F8B500BFF8BC08BC93
:104890009E467047F8B500BFF8BC08BC9E467047FE
:1048A00000000000000000000102030406070809E0
:1048B000000000000102030473656E736F723A20FA
:1048C0004153353630300D00696963206661696C8B
:0C48D00065640D00100000200A000000CC
:0848DC0084C3FF7F010000000E
:0848E4000D310008E501000898
:0448EC00C1010008FE
:1048F0000024F4000100000010000000100000205F
:1049000000000000FC02002064030020CC03002013
:104910000000000000000000000000000000000097
:104920000000000000000000000000000000000087
:104930000000000000000000000000000000000077
:104940000000000000000000000000000000000067
:104950000000000000000000000000000000000057
:104960000000000000000000000000000000000047
:104970000000000000000000000000000000000037
:104980000000000000000000000000000000000027
:104990000000000000000000000000000000000017
:1049A0000000000000000000010000000000000006
:1049B0000E33CDAB34126DE6ECDE05000B000000CB
:1049C00000000000000000000000000000000000E7
:1049D00000000000000000000000000000000000D7
:1049E00000000000000000000000000000000000C7
:1049F00000000000000000000000000000000000B7
:104D20000000000000000000CC080020000000008F
:104D3000000000003C0400203C040020440400204B
:104D4000440400204C0400204C04002054040020A3
:104D5000540400205C0400205C0400206404002053
:104D6000640400206C0400206C0400207404002003
:104D7000740400207C0400207C04002084040020B3
:104D8000840400208C0400208C0400209404002063
:104D9000940400209C0400209C040020A404002013
:104DA000A4040020AC040020AC040020B4040020C3
:104DB000B4040020BC040020BC040020C404002073
:104DC000C4040020CC040020CC040020D404002023
:104DD000D4040020DC040020DC040020E4040020D3
:104DE000E4040020EC040020EC040020F404002083
:104DF000F4040020FC040020FC0400200405002032
:104E0000040500200C0500200C05002014050020DE
:104E1000140500201C0500201C050020240500208E
:104E2000240500202C0500202C050020340500203E
:104E3000340500203C0500203C05002044050020EE
:104E4000440500204C0500204C050020540500209E
:104E5000540500205C0500205C050020640500204E
:104E6000640500206C0500206C05002074050020FE
:104E7000740500207C0500207C05002084050020AE
:104E8000840500208C0500208C050020940500205E
:104E9000940500209C0500209C050020A40500200E
:104EA000A4050020AC050020AC050020B4050020BE
:104EB000B4050020BC050020BC050020C40500206E
:104EC000C4050020CC050020CC050020D40500201E
:104ED000D4050020DC050020DC050020E4050020CE
:104EE000E4050020EC050020EC050020F40500207E
:104EF000F4050020FC050020FC050020040600202D
:104F0000040600200C0600200C06002014060020D9
:104F1000140600201C0600201C0600202406002089
:104F2000240600202C0600202C0600203406002039
:104F3000340600203C0600203C06002044060020E9
:104F4000440600204C0600204C0600205406002099
:104F5000540600205C0600205C0600206406002049
:104F6000640600206C0600206C06002074060020F9
:104F7000740600207C0600207C06002084060020A9
:104F8000840600208C0600208C0600209406002059
:104F9000940600209C0600209C060020A406002009
:104FA000A4060020AC060020AC060020B4060020B9
:104FB000B4060020BC060020BC060020C406002069
:104FC000C4060020CC060020CC060020D406002019
:104FD000D4060020DC060020DC060020E4060020C9
:104FE000E4060020EC060020EC060020F406002079
:104FF000F4060020FC060020FC0600200407002028
:10500000040700200C0700200C07002014070020D4
:10501000140700201C0700201C0700202407002084
:10502000240700202C0700202C0700203407002034
:10503000340700203C0700203C07002044070020E4
:10504000440700204C0700204C0700205407002094
:10505000540700205C0700205C0700206407002044
:10506000640700206C0700206C07002074070020F4
:10507000740700207C0700207C07002084070020A4
:10508000840700208C0700208C0700209407002054
:10509000940700209C0700209C070020A407002004
:1050A000A4070020AC070020AC070020B4070020B4
:1050B000B4070020BC070020BC070020C407002064
:1050C000C4070020CC070020CC070020D407002014
:1050D000D4070020DC070020DC070020E4070020C4
:1050E000E4070020EC070020EC070020F407002074
:1050F000F4070020FC070020FC0700200408002023
:10510000040800200C0800200C08002014080020CF
:10511000140800201C0800201C080020240800207F
:10512000240800202C0800202C080020340800202F
:0C51300034080020FFFFFFFF0000020019
:04000005080014B12A
:00000001FF
